{
  "address": "0x610178dA211FEF7D417bC0e6FeD39F05609AD788",
  "abi": [
    {
      "anonymous": false,
      "inputs": [
        {
          "indexed": true,
          "internalType": "address",
          "name": "owner",
          "type": "address"
        },
        {
          "indexed": true,
          "internalType": "address",
          "name": "spender",
          "type": "address"
        },
        {
          "indexed": false,
          "internalType": "uint256",
          "name": "value",
          "type": "uint256"
        }
      ],
      "name": "Approval",
      "type": "event"
    },
    {
      "anonymous": false,
      "inputs": [
        {
          "indexed": true,
          "internalType": "address",
          "name": "authorizer",
          "type": "address"
        },
        {
          "indexed": true,
          "internalType": "bytes32",
          "name": "nonce",
          "type": "bytes32"
        }
      ],
      "name": "AuthorizationCanceled",
      "type": "event"
    },
    {
      "anonymous": false,
      "inputs": [
        {
          "indexed": true,
          "internalType": "address",
          "name": "authorizer",
          "type": "address"
        },
        {
          "indexed": true,
          "internalType": "bytes32",
          "name": "nonce",
          "type": "bytes32"
        }
      ],
      "name": "AuthorizationUsed",
      "type": "event"
    },
    {
      "anonymous": false,
      "inputs": [
        {
          "indexed": true,
          "internalType": "address",
          "name": "account",
          "type": "address"
        }
      ],
      "name": "Blacklisted",
      "type": "event"
    },
    {
      "anonymous": false,
      "inputs": [
        {
          "indexed": false,
          "internalType": "address",
          "name": "userAddress",
          "type": "address"
        },
        {
          "indexed": false,
          "internalType": "address payable",
          "name": "relayerAddress",
          "type": "address"
        },
        {
          "indexed": false,
          "internalType": "bytes",
          "name": "functionSignature",
          "type": "bytes"
        }
      ],
      "name": "MetaTransactionExecuted",
      "type": "event"
    },
    {
      "anonymous": false,
      "inputs": [],
      "name": "Pause",
      "type": "event"
    },
    {
      "anonymous": false,
      "inputs": [
        {
          "indexed": true,
          "internalType": "address",
          "name": "newRescuer",
          "type": "address"
        }
      ],
      "name": "RescuerChanged",
      "type": "event"
    },
    {
      "anonymous": false,
      "inputs": [
        {
          "indexed": true,
          "internalType": "bytes32",
          "name": "role",
          "type": "bytes32"
        },
        {
          "indexed": true,
          "internalType": "bytes32",
          "name": "previousAdminRole",
          "type": "bytes32"
        },
        {
          "indexed": true,
          "internalType": "bytes32",
          "name": "newAdminRole",
          "type": "bytes32"
        }
      ],
      "name": "RoleAdminChanged",
      "type": "event"
    },
    {
      "anonymous": false,
      "inputs": [
        {
          "indexed": true,
          "internalType": "bytes32",
          "name": "role",
          "type": "bytes32"
        },
        {
          "indexed": true,
          "internalType": "address",
          "name": "account",
          "type": "address"
        },
        {
          "indexed": true,
          "internalType": "address",
          "name": "sender",
          "type": "address"
        }
      ],
      "name": "RoleGranted",
      "type": "event"
    },
    {
      "anonymous": false,
      "inputs": [
        {
          "indexed": true,
          "internalType": "bytes32",
          "name": "role",
          "type": "bytes32"
        },
        {
          "indexed": true,
          "internalType": "address",
          "name": "account",
          "type": "address"
        },
        {
          "indexed": true,
          "internalType": "address",
          "name": "sender",
          "type": "address"
        }
      ],
      "name": "RoleRevoked",
      "type": "event"
    },
    {
      "anonymous": false,
      "inputs": [
        {
          "indexed": true,
          "internalType": "address",
          "name": "from",
          "type": "address"
        },
        {
          "indexed": true,
          "internalType": "address",
          "name": "to",
          "type": "address"
        },
        {
          "indexed": false,
          "internalType": "uint256",
          "name": "value",
          "type": "uint256"
        }
      ],
      "name": "Transfer",
      "type": "event"
    },
    {
      "anonymous": false,
      "inputs": [
        {
          "indexed": true,
          "internalType": "address",
          "name": "account",
          "type": "address"
        }
      ],
      "name": "UnBlacklisted",
      "type": "event"
    },
    {
      "anonymous": false,
      "inputs": [],
      "name": "Unpause",
      "type": "event"
    },
    {
      "inputs": [],
      "name": "APPROVE_WITH_AUTHORIZATION_TYPEHASH",
      "outputs": [
        {
          "internalType": "bytes32",
          "name": "",
          "type": "bytes32"
        }
      ],
      "stateMutability": "view",
      "type": "function"
    },
    {
      "inputs": [],
      "name": "BLACKLISTER_ROLE",
      "outputs": [
        {
          "internalType": "bytes32",
          "name": "",
          "type": "bytes32"
        }
      ],
      "stateMutability": "view",
      "type": "function"
    },
    {
      "inputs": [],
      "name": "CANCEL_AUTHORIZATION_TYPEHASH",
      "outputs": [
        {
          "internalType": "bytes32",
          "name": "",
          "type": "bytes32"
        }
      ],
      "stateMutability": "view",
      "type": "function"
    },
    {
      "inputs": [],
      "name": "DECREASE_ALLOWANCE_WITH_AUTHORIZATION_TYPEHASH",
      "outputs": [
        {
          "internalType": "bytes32",
          "name": "",
          "type": "bytes32"
        }
      ],
      "stateMutability": "view",
      "type": "function"
    },
    {
      "inputs": [],
      "name": "DEFAULT_ADMIN_ROLE",
      "outputs": [
        {
          "internalType": "bytes32",
          "name": "",
          "type": "bytes32"
        }
      ],
      "stateMutability": "view",
      "type": "function"
    },
    {
      "inputs": [],
      "name": "DEPOSITOR_ROLE",
      "outputs": [
        {
          "internalType": "bytes32",
          "name": "",
          "type": "bytes32"
        }
      ],
      "stateMutability": "view",
      "type": "function"
    },
    {
      "inputs": [],
      "name": "DOMAIN_SEPARATOR",
      "outputs": [
        {
          "internalType": "bytes32",
          "name": "",
          "type": "bytes32"
        }
      ],
      "stateMutability": "view",
      "type": "function"
    },
    {
      "inputs": [],
      "name": "EIP712_VERSION",
      "outputs": [
        {
          "internalType": "string",
          "name": "",
          "type": "string"
        }
      ],
      "stateMutability": "view",
      "type": "function"
    },
    {
      "inputs": [],
      "name": "INCREASE_ALLOWANCE_WITH_AUTHORIZATION_TYPEHASH",
      "outputs": [
        {
          "internalType": "bytes32",
          "name": "",
          "type": "bytes32"
        }
      ],
      "stateMutability": "view",
      "type": "function"
    },
    {
      "inputs": [],
      "name": "META_TRANSACTION_TYPEHASH",
      "outputs": [
        {
          "internalType": "bytes32",
          "name": "",
          "type": "bytes32"
        }
      ],
      "stateMutability": "view",
      "type": "function"
    },
    {
      "inputs": [],
      "name": "PAUSER_ROLE",
      "outputs": [
        {
          "internalType": "bytes32",
          "name": "",
          "type": "bytes32"
        }
      ],
      "stateMutability": "view",
      "type": "function"
    },
    {
      "inputs": [],
      "name": "PERMIT_TYPEHASH",
      "outputs": [
        {
          "internalType": "bytes32",
          "name": "",
          "type": "bytes32"
        }
      ],
      "stateMutability": "view",
      "type": "function"
    },
    {
      "inputs": [],
      "name": "RESCUER_ROLE",
      "outputs": [
        {
          "internalType": "bytes32",
          "name": "",
          "type": "bytes32"
        }
      ],
      "stateMutability": "view",
      "type": "function"
    },
    {
      "inputs": [],
      "name": "TRANSFER_WITH_AUTHORIZATION_TYPEHASH",
      "outputs": [
        {
          "internalType": "bytes32",
          "name": "",
          "type": "bytes32"
        }
      ],
      "stateMutability": "view",
      "type": "function"
    },
    {
      "inputs": [],
      "name": "WITHDRAW_WITH_AUTHORIZATION_TYPEHASH",
      "outputs": [
        {
          "internalType": "bytes32",
          "name": "",
          "type": "bytes32"
        }
      ],
      "stateMutability": "view",
      "type": "function"
    },
    {
      "inputs": [
        {
          "internalType": "address",
          "name": "owner",
          "type": "address"
        },
        {
          "internalType": "address",
          "name": "spender",
          "type": "address"
        }
      ],
      "name": "allowance",
      "outputs": [
        {
          "internalType": "uint256",
          "name": "",
          "type": "uint256"
        }
      ],
      "stateMutability": "view",
      "type": "function"
    },
    {
      "inputs": [
        {
          "internalType": "address",
          "name": "spender",
          "type": "address"
        },
        {
          "internalType": "uint256",
          "name": "amount",
          "type": "uint256"
        }
      ],
      "name": "approve",
      "outputs": [
        {
          "internalType": "bool",
          "name": "",
          "type": "bool"
        }
      ],
      "stateMutability": "nonpayable",
      "type": "function"
    },
    {
      "inputs": [
        {
          "internalType": "address",
          "name": "owner",
          "type": "address"
        },
        {
          "internalType": "address",
          "name": "spender",
          "type": "address"
        },
        {
          "internalType": "uint256",
          "name": "value",
          "type": "uint256"
        },
        {
          "internalType": "uint256",
          "name": "validAfter",
          "type": "uint256"
        },
        {
          "internalType": "uint256",
          "name": "validBefore",
          "type": "uint256"
        },
        {
          "internalType": "bytes32",
          "name": "nonce",
          "type": "bytes32"
        },
        {
          "internalType": "uint8",
          "name": "v",
          "type": "uint8"
        },
        {
          "internalType": "bytes32",
          "name": "r",
          "type": "bytes32"
        },
        {
          "internalType": "bytes32",
          "name": "s",
          "type": "bytes32"
        }
      ],
      "name": "approveWithAuthorization",
      "outputs": [],
      "stateMutability": "nonpayable",
      "type": "function"
    },
    {
      "inputs": [
        {
          "internalType": "address",
          "name": "authorizer",
          "type": "address"
        },
        {
          "internalType": "bytes32",
          "name": "nonce",
          "type": "bytes32"
        }
      ],
      "name": "authorizationState",
      "outputs": [
        {
          "internalType": "enum GasAbstraction.AuthorizationState",
          "name": "",
          "type": "uint8"
        }
      ],
      "stateMutability": "view",
      "type": "function"
    },
    {
      "inputs": [
        {
          "internalType": "address",
          "name": "account",
          "type": "address"
        }
      ],
      "name": "balanceOf",
      "outputs": [
        {
          "internalType": "uint256",
          "name": "",
          "type": "uint256"
        }
      ],
      "stateMutability": "view",
      "type": "function"
    },
    {
      "inputs": [
        {
          "internalType": "address",
          "name": "account",
          "type": "address"
        }
      ],
      "name": "blacklist",
      "outputs": [],
      "stateMutability": "nonpayable",
      "type": "function"
    },
    {
      "inputs": [],
      "name": "blacklisters",
      "outputs": [
        {
          "internalType": "address[]",
          "name": "",
          "type": "address[]"
        }
      ],
      "stateMutability": "view",
      "type": "function"
    },
    {
      "inputs": [
        {
          "internalType": "address",
          "name": "authorizer",
          "type": "address"
        },
        {
          "internalType": "bytes32",
          "name": "nonce",
          "type": "bytes32"
        },
        {
          "internalType": "uint8",
          "name": "v",
          "type": "uint8"
        },
        {
          "internalType": "bytes32",
          "name": "r",
          "type": "bytes32"
        },
        {
          "internalType": "bytes32",
          "name": "s",
          "type": "bytes32"
        }
      ],
      "name": "cancelAuthorization",
      "outputs": [],
      "stateMutability": "nonpayable",
      "type": "function"
    },
    {
      "inputs": [],
      "name": "decimals",
      "outputs": [
        {
          "internalType": "uint8",
          "name": "",
          "type": "uint8"
        }
      ],
      "stateMutability": "view",
      "type": "function"
    },
    {
      "inputs": [
        {
          "internalType": "address",
          "name": "spender",
          "type": "address"
        },
        {
          "internalType": "uint256",
          "name": "subtractedValue",
          "type": "uint256"
        }
      ],
      "name": "decreaseAllowance",
      "outputs": [
        {
          "internalType": "bool",
          "name": "",
          "type": "bool"
        }
      ],
      "stateMutability": "nonpayable",
      "type": "function"
    },
    {
      "inputs": [
        {
          "internalType": "address",
          "name": "owner",
          "type": "address"
        },
        {
          "internalType": "address",
          "name": "spender",
          "type": "address"
        },
        {
          "internalType": "uint256",
          "name": "decrement",
          "type": "uint256"
        },
        {
          "internalType": "uint256",
          "name": "validAfter",
          "type": "uint256"
        },
        {
          "internalType": "uint256",
          "name": "validBefore",
          "type": "uint256"
        },
        {
          "internalType": "bytes32",
          "name": "nonce",
          "type": "bytes32"
        },
        {
          "internalType": "uint8",
          "name": "v",
          "type": "uint8"
        },
        {
          "internalType": "bytes32",
          "name": "r",
          "type": "bytes32"
        },
        {
          "internalType": "bytes32",
          "name": "s",
          "type": "bytes32"
        }
      ],
      "name": "decreaseAllowanceWithAuthorization",
      "outputs": [],
      "stateMutability": "nonpayable",
      "type": "function"
    },
    {
      "inputs": [
        {
          "internalType": "address",
          "name": "user",
          "type": "address"
        },
        {
          "internalType": "bytes",
          "name": "depositData",
          "type": "bytes"
        }
      ],
      "name": "deposit",
      "outputs": [],
      "stateMutability": "nonpayable",
      "type": "function"
    },
    {
      "inputs": [
        {
          "internalType": "address",
          "name": "userAddress",
          "type": "address"
        },
        {
          "internalType": "bytes",
          "name": "functionSignature",
          "type": "bytes"
        },
        {
          "internalType": "bytes32",
          "name": "sigR",
          "type": "bytes32"
        },
        {
          "internalType": "bytes32",
          "name": "sigS",
          "type": "bytes32"
        },
        {
          "internalType": "uint8",
          "name": "sigV",
          "type": "uint8"
        }
      ],
      "name": "executeMetaTransaction",
      "outputs": [
        {
          "internalType": "bytes",
          "name": "",
          "type": "bytes"
        }
      ],
      "stateMutability": "payable",
      "type": "function"
    },
    {
      "inputs": [
        {
          "internalType": "bytes32",
          "name": "role",
          "type": "bytes32"
        }
      ],
      "name": "getRoleAdmin",
      "outputs": [
        {
          "internalType": "bytes32",
          "name": "",
          "type": "bytes32"
        }
      ],
      "stateMutability": "view",
      "type": "function"
    },
    {
      "inputs": [
        {
          "internalType": "bytes32",
          "name": "role",
          "type": "bytes32"
        },
        {
          "internalType": "uint256",
          "name": "index",
          "type": "uint256"
        }
      ],
      "name": "getRoleMember",
      "outputs": [
        {
          "internalType": "address",
          "name": "",
          "type": "address"
        }
      ],
      "stateMutability": "view",
      "type": "function"
    },
    {
      "inputs": [
        {
          "internalType": "bytes32",
          "name": "role",
          "type": "bytes32"
        }
      ],
      "name": "getRoleMemberCount",
      "outputs": [
        {
          "internalType": "uint256",
          "name": "",
          "type": "uint256"
        }
      ],
      "stateMutability": "view",
      "type": "function"
    },
    {
      "inputs": [
        {
          "internalType": "bytes32",
          "name": "role",
          "type": "bytes32"
        },
        {
          "internalType": "address",
          "name": "account",
          "type": "address"
        }
      ],
      "name": "grantRole",
      "outputs": [],
      "stateMutability": "nonpayable",
      "type": "function"
    },
    {
      "inputs": [
        {
          "internalType": "bytes32",
          "name": "role",
          "type": "bytes32"
        },
        {
          "internalType": "address",
          "name": "account",
          "type": "address"
        }
      ],
      "name": "hasRole",
      "outputs": [
        {
          "internalType": "bool",
          "name": "",
          "type": "bool"
        }
      ],
      "stateMutability": "view",
      "type": "function"
    },
    {
      "inputs": [
        {
          "internalType": "address",
          "name": "spender",
          "type": "address"
        },
        {
          "internalType": "uint256",
          "name": "addedValue",
          "type": "uint256"
        }
      ],
      "name": "increaseAllowance",
      "outputs": [
        {
          "internalType": "bool",
          "name": "",
          "type": "bool"
        }
      ],
      "stateMutability": "nonpayable",
      "type": "function"
    },
    {
      "inputs": [
        {
          "internalType": "address",
          "name": "owner",
          "type": "address"
        },
        {
          "internalType": "address",
          "name": "spender",
          "type": "address"
        },
        {
          "internalType": "uint256",
          "name": "increment",
          "type": "uint256"
        },
        {
          "internalType": "uint256",
          "name": "validAfter",
          "type": "uint256"
        },
        {
          "internalType": "uint256",
          "name": "validBefore",
          "type": "uint256"
        },
        {
          "internalType": "bytes32",
          "name": "nonce",
          "type": "bytes32"
        },
        {
          "internalType": "uint8",
          "name": "v",
          "type": "uint8"
        },
        {
          "internalType": "bytes32",
          "name": "r",
          "type": "bytes32"
        },
        {
          "internalType": "bytes32",
          "name": "s",
          "type": "bytes32"
        }
      ],
      "name": "increaseAllowanceWithAuthorization",
      "outputs": [],
      "stateMutability": "nonpayable",
      "type": "function"
    },
    {
      "inputs": [
        {
          "internalType": "string",
          "name": "newName",
          "type": "string"
        },
        {
          "internalType": "string",
          "name": "newSymbol",
          "type": "string"
        },
        {
          "internalType": "uint8",
          "name": "newDecimals",
          "type": "uint8"
        },
        {
          "internalType": "address",
          "name": "childChainManager",
          "type": "address"
        }
      ],
      "name": "initialize",
      "outputs": [],
      "stateMutability": "nonpayable",
      "type": "function"
    },
    {
      "inputs": [],
      "name": "initialized",
      "outputs": [
        {
          "internalType": "bool",
          "name": "",
          "type": "bool"
        }
      ],
      "stateMutability": "view",
      "type": "function"
    },
    {
      "inputs": [
        {
          "internalType": "address",
          "name": "account",
          "type": "address"
        }
      ],
      "name": "isBlacklisted",
      "outputs": [
        {
          "internalType": "bool",
          "name": "",
          "type": "bool"
        }
      ],
      "stateMutability": "view",
      "type": "function"
    },
    {
      "inputs": [
        {
          "internalType": "address",
          "name": "_to",
          "type": "address"
        },
        {
          "internalType": "uint256",
          "name": "_amount",
          "type": "uint256"
        }
      ],
      "name": "mint",
      "outputs": [],
      "stateMutability": "nonpayable",
      "type": "function"
    },
    {
      "inputs": [],
      "name": "name",
      "outputs": [
        {
          "internalType": "string",
          "name": "",
          "type": "string"
        }
      ],
      "stateMutability": "view",
      "type": "function"
    },
    {
      "inputs": [
        {
          "internalType": "address",
          "name": "owner",
          "type": "address"
        }
      ],
      "name": "nonces",
      "outputs": [
        {
          "internalType": "uint256",
          "name": "",
          "type": "uint256"
        }
      ],
      "stateMutability": "view",
      "type": "function"
    },
    {
      "inputs": [],
      "name": "pause",
      "outputs": [],
      "stateMutability": "nonpayable",
      "type": "function"
    },
    {
      "inputs": [],
      "name": "paused",
      "outputs": [
        {
          "internalType": "bool",
          "name": "",
          "type": "bool"
        }
      ],
      "stateMutability": "view",
      "type": "function"
    },
    {
      "inputs": [],
      "name": "pausers",
      "outputs": [
        {
          "internalType": "address[]",
          "name": "",
          "type": "address[]"
        }
      ],
      "stateMutability": "view",
      "type": "function"
    },
    {
      "inputs": [
        {
          "internalType": "address",
          "name": "owner",
          "type": "address"
        },
        {
          "internalType": "address",
          "name": "spender",
          "type": "address"
        },
        {
          "internalType": "uint256",
          "name": "value",
          "type": "uint256"
        },
        {
          "internalType": "uint256",
          "name": "deadline",
          "type": "uint256"
        },
        {
          "internalType": "uint8",
          "name": "v",
          "type": "uint8"
        },
        {
          "internalType": "bytes32",
          "name": "r",
          "type": "bytes32"
        },
        {
          "internalType": "bytes32",
          "name": "s",
          "type": "bytes32"
        }
      ],
      "name": "permit",
      "outputs": [],
      "stateMutability": "nonpayable",
      "type": "function"
    },
    {
      "inputs": [
        {
          "internalType": "bytes32",
          "name": "role",
          "type": "bytes32"
        },
        {
          "internalType": "address",
          "name": "account",
          "type": "address"
        }
      ],
      "name": "renounceRole",
      "outputs": [],
      "stateMutability": "nonpayable",
      "type": "function"
    },
    {
      "inputs": [
        {
          "internalType": "contract IERC20",
          "name": "tokenContract",
          "type": "address"
        },
        {
          "internalType": "address",
          "name": "to",
          "type": "address"
        },
        {
          "internalType": "uint256",
          "name": "amount",
          "type": "uint256"
        }
      ],
      "name": "rescueERC20",
      "outputs": [],
      "stateMutability": "nonpayable",
      "type": "function"
    },
    {
      "inputs": [],
      "name": "rescuers",
      "outputs": [
        {
          "internalType": "address[]",
          "name": "",
          "type": "address[]"
        }
      ],
      "stateMutability": "view",
      "type": "function"
    },
    {
      "inputs": [
        {
          "internalType": "bytes32",
          "name": "role",
          "type": "bytes32"
        },
        {
          "internalType": "address",
          "name": "account",
          "type": "address"
        }
      ],
      "name": "revokeRole",
      "outputs": [],
      "stateMutability": "nonpayable",
      "type": "function"
    },
    {
      "inputs": [],
      "name": "symbol",
      "outputs": [
        {
          "internalType": "string",
          "name": "",
          "type": "string"
        }
      ],
      "stateMutability": "view",
      "type": "function"
    },
    {
      "inputs": [],
      "name": "totalSupply",
      "outputs": [
        {
          "internalType": "uint256",
          "name": "",
          "type": "uint256"
        }
      ],
      "stateMutability": "view",
      "type": "function"
    },
    {
      "inputs": [
        {
          "internalType": "address",
          "name": "recipient",
          "type": "address"
        },
        {
          "internalType": "uint256",
          "name": "amount",
          "type": "uint256"
        }
      ],
      "name": "transfer",
      "outputs": [
        {
          "internalType": "bool",
          "name": "",
          "type": "bool"
        }
      ],
      "stateMutability": "nonpayable",
      "type": "function"
    },
    {
      "inputs": [
        {
          "internalType": "address",
          "name": "sender",
          "type": "address"
        },
        {
          "internalType": "address",
          "name": "recipient",
          "type": "address"
        },
        {
          "internalType": "uint256",
          "name": "amount",
          "type": "uint256"
        }
      ],
      "name": "transferFrom",
      "outputs": [
        {
          "internalType": "bool",
          "name": "",
          "type": "bool"
        }
      ],
      "stateMutability": "nonpayable",
      "type": "function"
    },
    {
      "inputs": [
        {
          "internalType": "address",
          "name": "from",
          "type": "address"
        },
        {
          "internalType": "address",
          "name": "to",
          "type": "address"
        },
        {
          "internalType": "uint256",
          "name": "value",
          "type": "uint256"
        },
        {
          "internalType": "uint256",
          "name": "validAfter",
          "type": "uint256"
        },
        {
          "internalType": "uint256",
          "name": "validBefore",
          "type": "uint256"
        },
        {
          "internalType": "bytes32",
          "name": "nonce",
          "type": "bytes32"
        },
        {
          "internalType": "uint8",
          "name": "v",
          "type": "uint8"
        },
        {
          "internalType": "bytes32",
          "name": "r",
          "type": "bytes32"
        },
        {
          "internalType": "bytes32",
          "name": "s",
          "type": "bytes32"
        }
      ],
      "name": "transferWithAuthorization",
      "outputs": [],
      "stateMutability": "nonpayable",
      "type": "function"
    },
    {
      "inputs": [
        {
          "internalType": "address",
          "name": "account",
          "type": "address"
        }
      ],
      "name": "unBlacklist",
      "outputs": [],
      "stateMutability": "nonpayable",
      "type": "function"
    },
    {
      "inputs": [],
      "name": "unpause",
      "outputs": [],
      "stateMutability": "nonpayable",
      "type": "function"
    },
    {
      "inputs": [
        {
          "internalType": "string",
          "name": "newName",
          "type": "string"
        },
        {
          "internalType": "string",
          "name": "newSymbol",
          "type": "string"
        }
      ],
      "name": "updateMetadata",
      "outputs": [],
      "stateMutability": "nonpayable",
      "type": "function"
    },
    {
      "inputs": [
        {
          "internalType": "uint256",
          "name": "amount",
          "type": "uint256"
        }
      ],
      "name": "withdraw",
      "outputs": [],
      "stateMutability": "nonpayable",
      "type": "function"
    },
    {
      "inputs": [
        {
          "internalType": "address",
          "name": "owner",
          "type": "address"
        },
        {
          "internalType": "uint256",
          "name": "value",
          "type": "uint256"
        },
        {
          "internalType": "uint256",
          "name": "validAfter",
          "type": "uint256"
        },
        {
          "internalType": "uint256",
          "name": "validBefore",
          "type": "uint256"
        },
        {
          "internalType": "bytes32",
          "name": "nonce",
          "type": "bytes32"
        },
        {
          "internalType": "uint8",
          "name": "v",
          "type": "uint8"
        },
        {
          "internalType": "bytes32",
          "name": "r",
          "type": "bytes32"
        },
        {
          "internalType": "bytes32",
          "name": "s",
          "type": "bytes32"
        }
      ],
      "name": "withdrawWithAuthorization",
      "outputs": [],
      "stateMutability": "nonpayable",
      "type": "function"
    }
  ],
  "transactionHash": "0xb0e34645b6a11c529f419c67e14bd1dbbd51e2fcfe8fb0b4209fa73fc6ee117d",
  "args": [],
  "numDeployments": 1,
  "solcInputHash": "e7f64f64d460a297087c9399ea37ab99",
  "bytecode": "0x60806040526008805460ff19908116909155600d805490911690553480156200002757600080fd5b5060408051602080820180845260008084528451928301909452928152815191929091620000589160039162000084565b5080516200006e90600490602084019062000084565b50506005805460ff191660121790555062000120565b828054600181600116156101000203166002900490600052602060002090601f016020900481019282601f10620000c757805160ff1916838001178555620000f7565b82800160010185558215620000f7579182015b82811115620000f7578251825591602001919060010190620000da565b506200010592915062000109565b5090565b5b808211156200010557600081556001016200010a565b614ca580620001306000396000f3fe60806040526004361061029c5760003560e01c806306fdde03146102a1578063095ea7b31461032b5780630c53c51c14610378578063100a15601461043a57806310c8b4041461049f578063158ef93e146104c657806318160ddd146104db5780631a895266146104f05780632004d2911461052557806323b872dd1461053a578063248a9ca31461057d5780632e1a7d4d146105a75780632f2ff15d146105d157806330adf81f1461060a578063313ce5671461061f5780633644e5151461064a57806336568abe1461065f57806339509351146106985780633f4ba83a146106d157806340c10f19146106e65780634b71f5c31461071f57806356ce0e6c146107345780635a049a70146107ff5780635c975abb1461084d57806370a082311461086257806371372544146108955780637b766e5f146108aa5780637cfa1cfa1461090b5780637ecebe00146109205780638456cb59146109535780639010d07c1461096857806391d14854146109b457806395d89b41146109ed578063a0cc6a6814610a02578063a217fddf14610a17578063a3b0b5a314610a2c578063a457c2d714610a41578063a9059cbb14610a7a578063b008609514610ab3578063b2118a8d14610b1f578063c237108f14610b62578063c7b84f8d14610bce578063ca15c87314610be3578063cf2c52cb14610c0d578063d505accf14610c98578063d547741f14610cf6578063d916948714610d2f578063dd62ed3e14610d44578063de7ea79d14610d7f578063e1560fd314610e5c578063e3ee160e14610ec8578063e63ab1e914610f34578063e8d6fc4714610f49578063e94a010214610f5e578063eccec5a814610fb8578063f515e6f214610fcd578063f9f92be414610fe2578063fa2c322d14611015578063fe575a871461102a575b600080fd5b3480156102ad57600080fd5b506102b661105d565b6040805160208082528351818301528351919283929083019185019080838360005b838110156102f05781810151838201526020016102d8565b50505050905090810190601f16801561031d5780820380516001836020036101000a031916815260200191505b509250505060405180910390f35b34801561033757600080fd5b506103646004803603604081101561034e57600080fd5b506001600160a01b0381351690602001356110f4565b604080519115158252519081900360200190f35b6102b6600480360360a081101561038e57600080fd5b6001600160a01b038235169190810190604081016020820135600160201b8111156103b857600080fd5b8201836020820111156103ca57600080fd5b803590602001918460018302840111600160201b831117156103eb57600080fd5b91908080601f016020809104026020016040519081016040528093929190818152602001838380828437600092019190915250929550508235935050506020810135906040013560ff16611214565b34801561044657600080fd5b5061044f6114db565b60408051602080825283518183015283519192839290830191858101910280838360005b8381101561048b578181015183820152602001610473565b505050509050019250505060405180910390f35b3480156104ab57600080fd5b506104b4611593565b60408051918252519081900360200190f35b3480156104d257600080fd5b506103646115a5565b3480156104e757600080fd5b506104b46115ae565b3480156104fc57600080fd5b506105236004803603602081101561051357600080fd5b50356001600160a01b03166115b4565b005b34801561053157600080fd5b506104b46116bf565b34801561054657600080fd5b506103646004803603606081101561055d57600080fd5b506001600160a01b038135811691602081013590911690604001356116d1565b34801561058957600080fd5b506104b4600480360360208110156105a057600080fd5b5035611846565b3480156105b357600080fd5b50610523600480360360208110156105ca57600080fd5b503561185b565b3480156105dd57600080fd5b50610523600480360360408110156105f457600080fd5b50803590602001356001600160a01b03166118d0565b34801561061657600080fd5b506104b4611933565b34801561062b57600080fd5b50610634611945565b6040805160ff9092168252519081900360200190f35b34801561065657600080fd5b506104b461194e565b34801561066b57600080fd5b506105236004803603604081101561068257600080fd5b50803590602001356001600160a01b0316611954565b3480156106a457600080fd5b50610364600480360360408110156106bb57600080fd5b506001600160a01b0381351690602001356119b5565b3480156106dd57600080fd5b50610523611aca565b3480156106f257600080fd5b506105236004803603604081101561070957600080fd5b506001600160a01b038135169060200135611b82565b34801561072b57600080fd5b506104b4611bb6565b34801561074057600080fd5b506105236004803603604081101561075757600080fd5b810190602081018135600160201b81111561077157600080fd5b82018360208201111561078357600080fd5b803590602001918460018302840111600160201b831117156107a457600080fd5b919390929091602081019035600160201b8111156107c157600080fd5b8201836020820111156107d357600080fd5b803590602001918460018302840111600160201b831117156107f457600080fd5b509092509050611bc8565b34801561080b57600080fd5b50610523600480360360a081101561082257600080fd5b506001600160a01b038135169060208101359060ff6040820135169060608101359060800135611d1a565b34801561085957600080fd5b50610364611d6d565b34801561086e57600080fd5b506104b46004803603602081101561088557600080fd5b50356001600160a01b0316611d76565b3480156108a157600080fd5b506104b4611d91565b3480156108b657600080fd5b5061052360048036036101008110156108ce57600080fd5b506001600160a01b038135169060208101359060408101359060608101359060808101359060ff60a0820135169060c08101359060e00135611da3565b34801561091757600080fd5b5061044f611e5e565b34801561092c57600080fd5b506104b46004803603602081101561094357600080fd5b50356001600160a01b0316611f0f565b34801561095f57600080fd5b50610523611f2a565b34801561097457600080fd5b506109986004803603604081101561098b57600080fd5b5080359060200135611fe5565b604080516001600160a01b039092168252519081900360200190f35b3480156109c057600080fd5b50610364600480360360408110156109d757600080fd5b50803590602001356001600160a01b0316612006565b3480156109f957600080fd5b506102b661201e565b348015610a0e57600080fd5b506104b461207f565b348015610a2357600080fd5b506104b4612091565b348015610a3857600080fd5b506104b4612096565b348015610a4d57600080fd5b5061036460048036036040811015610a6457600080fd5b506001600160a01b0381351690602001356120a8565b348015610a8657600080fd5b5061036460048036036040811015610a9d57600080fd5b506001600160a01b0381351690602001356121bd565b348015610abf57600080fd5b506105236004803603610120811015610ad757600080fd5b506001600160a01b03813581169160208101359091169060408101359060608101359060808101359060a08101359060ff60c0820135169060e08101359061010001356122d2565b348015610b2b57600080fd5b5061052360048036036060811015610b4257600080fd5b506001600160a01b038135811691602081013590911690604001356123ea565b348015610b6e57600080fd5b506105236004803603610120811015610b8657600080fd5b506001600160a01b03813581169160208101359091169060408101359060608101359060808101359060a08101359060ff60c0820135169060e0810135906101000135612486565b348015610bda57600080fd5b506104b4612591565b348015610bef57600080fd5b506104b460048036036020811015610c0657600080fd5b50356125a3565b348015610c1957600080fd5b5061052360048036036040811015610c3057600080fd5b6001600160a01b038235169190810190604081016020820135600160201b811115610c5a57600080fd5b820183602082011115610c6c57600080fd5b803590602001918460018302840111600160201b83111715610c8d57600080fd5b5090925090506125ba565b348015610ca457600080fd5b50610523600480360360e0811015610cbb57600080fd5b506001600160a01b03813581169160208101359091169060408101359060608101359060ff6080820135169060a08101359060c0013561265c565b348015610d0257600080fd5b5061052360048036036040811015610d1957600080fd5b50803590602001356001600160a01b0316612765565b348015610d3b57600080fd5b506104b46127be565b348015610d5057600080fd5b506104b460048036036040811015610d6757600080fd5b506001600160a01b03813581169160200135166127d0565b348015610d8b57600080fd5b5061052360048036036080811015610da257600080fd5b810190602081018135600160201b811115610dbc57600080fd5b820183602082011115610dce57600080fd5b803590602001918460018302840111600160201b83111715610def57600080fd5b919390929091602081019035600160201b811115610e0c57600080fd5b820183602082011115610e1e57600080fd5b803590602001918460018302840111600160201b83111715610e3f57600080fd5b9193509150803560ff1690602001356001600160a01b03166127fb565b348015610e6857600080fd5b506105236004803603610120811015610e8057600080fd5b506001600160a01b03813581169160208101359091169060408101359060608101359060808101359060a08101359060ff60c0820135169060e081013590610100013561296a565b348015610ed457600080fd5b506105236004803603610120811015610eec57600080fd5b506001600160a01b03813581169160208101359091169060408101359060608101359060808101359060a08101359060ff60c0820135169060e0810135906101000135612a75565b348015610f4057600080fd5b506104b4612b80565b348015610f5557600080fd5b5061044f612b92565b348015610f6a57600080fd5b50610f9760048036036040811015610f8157600080fd5b506001600160a01b038135169060200135612c43565b60405180826002811115610fa757fe5b815260200191505060405180910390f35b348015610fc457600080fd5b506102b6612c6e565b348015610fd957600080fd5b506104b4612c8b565b348015610fee57600080fd5b506105236004803603602081101561100557600080fd5b50356001600160a01b0316612c9d565b34801561102157600080fd5b506104b4612d6c565b34801561103657600080fd5b506103646004803603602081101561104d57600080fd5b50356001600160a01b0316612d7e565b60038054604080516020601f60026000196101006001881615020190951694909404938401819004810282018101909252828152606093909290918301828280156110e95780601f106110be576101008083540402835291602001916110e9565b820191906000526020600020905b8154815290600101906020018083116110cc57829003601f168201915b505050505090505b90565b600d5460009060ff161561113d576040805162461bcd60e51b81526020600482015260106024820152600080516020614b3e833981519152604482015290519081900360640190fd5b611145612d9c565b6001600160a01b0381166000908152600c602052604090205460ff161561119d5760405162461bcd60e51b8152600401808060200182810382526025815260200180614c206025913960400191505060405180910390fd5b6001600160a01b0384166000908152600c6020526040902054849060ff16156111f75760405162461bcd60e51b8152600401808060200182810382526025815260200180614c206025913960400191505060405180910390fd5b611209611202612d9c565b8686612ddf565b506001949350505050565b606061121e61469e565b50604080516060810182526001600160a01b0388166000818152600a60209081529084902080546001810190915583528201529081018690526112648782878787612ecb565b61129f5760405162461bcd60e51b8152600401808060200182810382526021815260200180614a776021913960400191505060405180910390fd5b7f5845892132946850460bff5a0083f71031bc5bf9aadcd40f1de79423eac9b10b87338860405180846001600160a01b03168152602001836001600160a01b0316815260200180602001828103825283818151815260200191508051906020019080838360005b8381101561131e578181015183820152602001611306565b50505050905090810190601f16801561134b5780820380516001836020036101000a031916815260200191505b5094505050505060405180910390a160006060306001600160a01b0316888a6040516020018083805190602001908083835b6020831061139c5780518252601f19909201916020918201910161137d565b6001836020036101000a038019825116818451168082178552505050505050905001826001600160a01b031660601b8152601401925050506040516020818303038152906040526040518082805190602001908083835b602083106114125780518252601f1990920191602091820191016113f3565b6001836020036101000a0380198251168184511680821785525050505050509050019150506000604051808303816000865af19150503d8060008114611474576040519150601f19603f3d011682016040523d82523d6000602084013e611479565b606091505b5091509150816114cf576040805162461bcd60e51b815260206004820152601c60248201527b119d5b98dd1a5bdb8818d85b1b081b9bdd081cdd58d8d95cdcd99d5b60221b604482015290519081900360640190fd5b98975050505050505050565b606060006114f66000805160206147a18339815191526125a3565b90506060816001600160401b038111801561151057600080fd5b5060405190808252806020026020018201604052801561153a578160200160208202803683370190505b50905060005b8281101561158c576115606000805160206147a183398151915282611fe5565b82828151811061156c57fe5b6001600160a01b0390921660209283029190910190910152600101611540565b5091505090565b6000805160206148d183398151915281565b60085460ff1690565b60025490565b600080516020614a988339815191526115d4816115cf612d9c565b612006565b6007906116745760405162461bcd60e51b81526020600482019081528254600260001961010060018416150201909116046024830181905290918291604490910190849080156116655780601f1061163a57610100808354040283529160200191611665565b820191906000526020600020905b81548152906001019060200180831161164857829003601f168201915b50509250505060405180910390fd5b506001600160a01b0382166000818152600c6020526040808220805460ff19169055517f117e3210bb9aa7d9baff172026820255c6f6c30ba8999d1c2fd88e2848137c4e9190a25050565b600080516020614bd683398151915281565b600d5460009060ff161561171a576040805162461bcd60e51b81526020600482015260106024820152600080516020614b3e833981519152604482015290519081900360640190fd5b611722612d9c565b6001600160a01b0381166000908152600c602052604090205460ff161561177a5760405162461bcd60e51b8152600401808060200182810382526025815260200180614c206025913960400191505060405180910390fd5b6001600160a01b0385166000908152600c6020526040902054859060ff16156117d45760405162461bcd60e51b8152600401808060200182810382526025815260200180614c206025913960400191505060405180910390fd5b6001600160a01b0385166000908152600c6020526040902054859060ff161561182e5760405162461bcd60e51b8152600401808060200182810382526025815260200180614c206025913960400191505060405180910390fd5b611839878787612fa9565b5060019695505050505050565b60009081526006602052604090206002015490565b611863612d9c565b6001600160a01b0381166000908152600c602052604090205460ff16156118bb5760405162461bcd60e51b8152600401808060200182810382526025815260200180614c206025913960400191505060405180910390fd5b6118cc6118c6612d9c565b83613029565b5050565b6000828152600660205260409020600201546118ee906115cf612d9c565b6119295760405162461bcd60e51b815260040180806020018281038252602f8152602001806147c1602f913960400191505060405180910390fd5b6118cc8282613113565b600080516020614af983398151915281565b60055460ff1690565b60095481565b61195c612d9c565b6001600160a01b0316816001600160a01b0316146119ab5760405162461bcd60e51b815260040180806020018281038252602f815260200180614c6a602f913960400191505060405180910390fd5b6118cc828261317c565b600d5460009060ff16156119fe576040805162461bcd60e51b81526020600482015260106024820152600080516020614b3e833981519152604482015290519081900360640190fd5b611a06612d9c565b6001600160a01b0381166000908152600c602052604090205460ff1615611a5e5760405162461bcd60e51b8152600401808060200182810382526025815260200180614c206025913960400191505060405180910390fd5b6001600160a01b0384166000908152600c6020526040902054849060ff1615611ab85760405162461bcd60e51b8152600401808060200182810382526025815260200180614c206025913960400191505060405180910390fd5b611209611ac3612d9c565b86866131e5565b600080516020614a57833981519152611ae5816115cf612d9c565b600790611b4b5760405162461bcd60e51b81526020600482019081528254600260001961010060018416150201909116046024830181905290918291604490910190849080156116655780601f1061163a57610100808354040283529160200191611665565b50600d805460ff191690556040517f7805862f689e2f13df9f062ff482ad3ad112aca9e0847911ed832e158c525b3390600090a150565b611bac6040518060400160405280600981526020016836b4b73a34b733971760b91b81525061321d565b6118cc82826132c6565b60008051602061498e83398151915281565b6000611bd6816115cf612d9c565b600790611c3c5760405162461bcd60e51b81526020600482019081528254600260001961010060018416150201909116046024830181905290918291604490910190849080156116655780601f1061163a57610100808354040283529160200191611665565b50611c7c85858080601f0160208091040260200160405190810160405280939291908181526020018383808284376000920191909152506133a492505050565b611cbb83838080601f0160208091040260200160405190810160405280939291908181526020018383808284376000920191909152506133b792505050565b611d1385858080601f016020809104026020016040519081016040528093929190818152602001838380828437600092019190915250506040805180820190915260018152603160f81b602082015291506133ca9050565b5050505050565b600d5460ff1615611d60576040805162461bcd60e51b81526020600482015260106024820152600080516020614b3e833981519152604482015290519081900360640190fd5b611d1385858585856133db565b600d5460ff1690565b6001600160a01b031660009081526020819052604090205490565b6000805160206147a183398151915281565b600d5460ff1615611de9576040805162461bcd60e51b81526020600482015260106024820152600080516020614b3e833981519152604482015290519081900360640190fd5b6001600160a01b0388166000908152600c6020526040902054889060ff1615611e435760405162461bcd60e51b8152600401808060200182810382526025815260200180614c206025913960400191505060405180910390fd5b611e5389898989898989896134dd565b505050505050505050565b60606000611e79600080516020614a988339815191526125a3565b90506060816001600160401b0381118015611e9357600080fd5b50604051908082528060200260200182016040528015611ebd578160200160208202803683370190505b50905060005b8281101561158c57611ee3600080516020614a9883398151915282611fe5565b828281518110611eef57fe5b6001600160a01b0390921660209283029190910190910152600101611ec3565b6001600160a01b03166000908152600a602052604090205490565b600080516020614a57833981519152611f45816115cf612d9c565b600790611fab5760405162461bcd60e51b81526020600482019081528254600260001961010060018416150201909116046024830181905290918291604490910190849080156116655780601f1061163a57610100808354040283529160200191611665565b50600d805460ff191660011790556040517f6985a02210a168e66602d3235cb6db0e70f92b3ba4d376a33c0f3d9434bff62590600090a150565b6000828152600660205260408120611ffd90836135ac565b90505b92915050565b6000828152600660205260408120611ffd90836135b8565b60048054604080516020601f60026000196101006001881615020190951694909404938401819004810282018101909252828152606093909290918301828280156110e95780601f106110be576101008083540402835291602001916110e9565b60008051602061483883398151915281565b600081565b6000805160206149ce83398151915281565b600d5460009060ff16156120f1576040805162461bcd60e51b81526020600482015260106024820152600080516020614b3e833981519152604482015290519081900360640190fd5b6120f9612d9c565b6001600160a01b0381166000908152600c602052604090205460ff16156121515760405162461bcd60e51b8152600401808060200182810382526025815260200180614c206025913960400191505060405180910390fd5b6001600160a01b0384166000908152600c6020526040902054849060ff16156121ab5760405162461bcd60e51b8152600401808060200182810382526025815260200180614c206025913960400191505060405180910390fd5b6112096121b6612d9c565b86866135cd565b600d5460009060ff1615612206576040805162461bcd60e51b81526020600482015260106024820152600080516020614b3e833981519152604482015290519081900360640190fd5b61220e612d9c565b6001600160a01b0381166000908152600c602052604090205460ff16156122665760405162461bcd60e51b8152600401808060200182810382526025815260200180614c206025913960400191505060405180910390fd5b6001600160a01b0384166000908152600c6020526040902054849060ff16156122c05760405162461bcd60e51b8152600401808060200182810382526025815260200180614c206025913960400191505060405180910390fd5b6112096122cb612d9c565b868661361c565b600d5460ff1615612318576040805162461bcd60e51b81526020600482015260106024820152600080516020614b3e833981519152604482015290519081900360640190fd5b6001600160a01b0389166000908152600c6020526040902054899060ff16156123725760405162461bcd60e51b8152600401808060200182810382526025815260200180614c206025913960400191505060405180910390fd5b6001600160a01b0389166000908152600c6020526040902054899060ff16156123cc5760405162461bcd60e51b8152600401808060200182810382526025815260200180614c206025913960400191505060405180910390fd5b6123dd8b8b8b8b8b8b8b8b8b613765565b5050505050505050505050565b6000805160206147a1833981519152612405816115cf612d9c565b60079061246b5760405162461bcd60e51b81526020600482019081528254600260001961010060018416150201909116046024830181905290918291604490910190849080156116655780601f1061163a57610100808354040283529160200191611665565b506124806001600160a01b038516848461384b565b50505050565b600d5460ff16156124cc576040805162461bcd60e51b81526020600482015260106024820152600080516020614b3e833981519152604482015290519081900360640190fd5b6001600160a01b0389166000908152600c6020526040902054899060ff16156125265760405162461bcd60e51b8152600401808060200182810382526025815260200180614c206025913960400191505060405180910390fd5b6001600160a01b0389166000908152600c6020526040902054899060ff16156125805760405162461bcd60e51b8152600401808060200182810382526025815260200180614c206025913960400191505060405180910390fd5b6123dd8b8b8b8b8b8b8b8b8b61389d565b6000805160206149ae83398151915281565b600081815260066020526040812061200090613977565b6000805160206149ce8339815191526125d5816115cf612d9c565b60079061263b5760405162461bcd60e51b81526020600482019081528254600260001961010060018416150201909116046024830181905290918291604490910190849080156116655780601f1061163a57610100808354040283529160200191611665565b5060008383602081101561264e57600080fd5b50359050611d1385826132c6565b600d5460ff16156126a2576040805162461bcd60e51b81526020600482015260106024820152600080516020614b3e833981519152604482015290519081900360640190fd5b6001600160a01b0387166000908152600c6020526040902054879060ff16156126fc5760405162461bcd60e51b8152600401808060200182810382526025815260200180614c206025913960400191505060405180910390fd5b6001600160a01b0387166000908152600c6020526040902054879060ff16156127565760405162461bcd60e51b8152600401808060200182810382526025815260200180614c206025913960400191505060405180910390fd5b611e5389898989898989613982565b600082815260066020526040902060020154612783906115cf612d9c565b6119ab5760405162461bcd60e51b81526004018080602001828103825260308152602001806149396030913960400191505060405180910390fd5b6000805160206148f183398151915281565b6001600160a01b03918216600090815260016020908152604080832093909416825291909152205490565b60085460ff161561280b57600080fd5b61284a86868080601f0160208091040260200160405190810160405280939291908181526020018383808284376000920191909152506133a492505050565b61288984848080601f0160208091040260200160405190810160405280939291908181526020018383808284376000920191909152506133b792505050565b61289282613b12565b6128d3848460405160200180806410da1a5b1960da1b8152506005018383808284378083019250505092505050604051602081830303815290604052613b28565b6128e560006128e0612d9c565b611929565b6128fd6000805160206149ce83398151915282611929565b61295586868080601f016020809104026020016040519081016040528093929190818152602001838380828437600092019190915250506040805180820190915260018152603160f81b602082015291506133ca9050565b50506008805460ff1916600117905550505050565b600d5460ff16156129b0576040805162461bcd60e51b81526020600482015260106024820152600080516020614b3e833981519152604482015290519081900360640190fd5b6001600160a01b0389166000908152600c6020526040902054899060ff1615612a0a5760405162461bcd60e51b8152600401808060200182810382526025815260200180614c206025913960400191505060405180910390fd5b6001600160a01b0389166000908152600c6020526040902054899060ff1615612a645760405162461bcd60e51b8152600401808060200182810382526025815260200180614c206025913960400191505060405180910390fd5b6123dd8b8b8b8b8b8b8b8b8b613bc3565b600d5460ff1615612abb576040805162461bcd60e51b81526020600482015260106024820152600080516020614b3e833981519152604482015290519081900360640190fd5b6001600160a01b0389166000908152600c6020526040902054899060ff1615612b155760405162461bcd60e51b8152600401808060200182810382526025815260200180614c206025913960400191505060405180910390fd5b6001600160a01b0389166000908152600c6020526040902054899060ff1615612b6f5760405162461bcd60e51b8152600401808060200182810382526025815260200180614c206025913960400191505060405180910390fd5b6123dd8b8b8b8b8b8b8b8b8b613c9d565b600080516020614a5783398151915281565b60606000612bad600080516020614a578339815191526125a3565b90506060816001600160401b0381118015612bc757600080fd5b50604051908082528060200260200182016040528015612bf1578160200160208202803683370190505b50905060005b8281101561158c57612c17600080516020614a5783398151915282611fe5565b828281518110612c2357fe5b6001600160a01b0390921660209283029190910190910152600101612bf7565b6001600160a01b03919091166000908152600b60209081526040808320938352929052205460ff1690565b604051806040016040528060018152602001603160f81b81525081565b600080516020614a9883398151915281565b600080516020614a98833981519152612cb8816115cf612d9c565b600790612d1e5760405162461bcd60e51b81526020600482019081528254600260001961010060018416150201909116046024830181905290918291604490910190849080156116655780601f1061163a57610100808354040283529160200191611665565b506001600160a01b0382166000818152600c6020526040808220805460ff19166001179055517fffa4e6181777692565cf28528fc88fd1516ea86b56da075235fa575af6a4b8559190a25050565b600080516020614a0f83398151915281565b6001600160a01b03166000908152600c602052604090205460ff1690565b6000612dd2604051806040016040528060138152602001722fb6b9b3a9b2b73232b91031b0b63632b2171760691b81525061321d565b612dda613d77565b905090565b6001600160a01b038316612e245760405162461bcd60e51b8152600401808060200182810382526024815260200180614b8c6024913960400191505060405180910390fd5b6001600160a01b038216612e695760405162461bcd60e51b81526004018080602001828103825260228152602001806148586022913960400191505060405180910390fd5b6001600160a01b03808416600081815260016020908152604080832094871680845294825291829020859055815185815291517f8c5be1e5ebec7d5bd14f71427d1e84f3dd0314c0f7b2291e5b200ac8c7c3b9259281900390910190a3505050565b60006001600160a01b038616612f125760405162461bcd60e51b81526004018080602001828103825260258152602001806149696025913960400191505060405180910390fd5b6060600080516020614a0f83398151915260001b8660000151876020015188604001518051906020012060405160200180858152602001848152602001836001600160a01b031681526020018281526020019450505050506040516020818303038152906040529050866001600160a01b0316612f9460095485888886613dd4565b6001600160a01b031614979650505050505050565b612fb483838361361c565b61302483612fc0612d9c565b61301f84604051806060016040528060288152602001614a2f602891396001600160a01b038916600090815260016020526040812090612ffe612d9c565b6001600160a01b031681526020810191909152604001600020549190613e2b565b612ddf565b505050565b6001600160a01b03821661306e5760405162461bcd60e51b8152600401808060200182810382526021815260200180614ad86021913960400191505060405180910390fd5b61307a82600083613024565b6130b7816040518060600160405280602281526020016147f0602291396001600160a01b0385166000908152602081905260409020549190613e2b565b6001600160a01b0383166000908152602081905260409020556002546130dd9082613ec2565b6002556040805182815290516000916001600160a01b03851691600080516020614ab88339815191529181900360200190a35050565b600082815260066020526040902061312b9082613f04565b156118cc57613138612d9c565b6001600160a01b0316816001600160a01b0316837f2f8788117e7eff1d82e926ec794901d17c78024a50270940304540a733656f0d60405160405180910390a45050565b60008281526006602052604090206131949082613f19565b156118cc576131a1612d9c565b6001600160a01b0316816001600160a01b0316837ff6391f5c32d9c69d2a47ea670b442974b53935d1edc7fd64eb21e047a839171b60405160405180910390a45050565b6001600160a01b03808416600090815260016020908152604080832093861683529290522054613024908490849061301f9085613f2e565b6132c3816040516024018080602001828103825283818151815260200191508051906020019080838360005b83811015613261578181015183820152602001613249565b50505050905090810190601f16801561328e5780820380516001836020036101000a031916815260200191505b5060408051601f198184030181529190526020810180516001600160e01b031663104c13eb60e21b1790529250613f86915050565b50565b6001600160a01b038216613321576040805162461bcd60e51b815260206004820152601f60248201527f45524332303a206d696e7420746f20746865207a65726f206164647265737300604482015290519081900360640190fd5b61332d60008383613024565b60025461333a9082613f2e565b6002556001600160a01b0382166000908152602081905260409020546133609082613f2e565b6001600160a01b038316600081815260208181526040808320949094558351858152935192939192600080516020614ab88339815191529281900390910190a35050565b80516118cc9060039060208401906146c8565b80516118cc9060049060208401906146c8565b6133d48282613fa7565b6009555050565b6133e58585614019565b604080516000805160206148f183398151915260208201526001600160a01b038716818301819052606082810188905283518084039091018152608090920190925260095490919061343a9086868686613dd4565b6001600160a01b03161461347f5760405162461bcd60e51b81526004018080602001828103825260218152602001806149ee6021913960400191505060405180910390fd5b6001600160a01b0386166000818152600b60209081526040808320898452909152808220805460ff19166002179055518792917f1cdd46ff242716cdaa72d159d339a485b3438398348d68f09d7c8c0a59353d8191a3505050505050565b6134e988858888614087565b60408051600080516020614bd683398151915260208201526001600160a01b038a16818301819052606082018a90526080820189905260a0820188905260c08083018890528351808403909101815260e09092019092526009549091906135539086868686613dd4565b6001600160a01b0316146135985760405162461bcd60e51b81526004018080602001828103825260218152602001806149ee6021913960400191505060405180910390fd5b6135a2898661410d565b611e538989613029565b6000611ffd8383614167565b6000611ffd836001600160a01b0384166141cb565b613024838361301f84604051806060016040528060258152602001614c45602591396001600160a01b03808a166000908152600160209081526040808320938c16835292905220549190613e2b565b6001600160a01b0383166136615760405162461bcd60e51b8152600401808060200182810382526025815260200180614b196025913960400191505060405180910390fd5b6001600160a01b0382166136a65760405162461bcd60e51b815260040180806020018281038252602381526020018061477e6023913960400191505060405180910390fd5b6136b1838383613024565b6136ee816040518060600160405280602681526020016148ab602691396001600160a01b0386166000908152602081905260409020549190613e2b565b6001600160a01b03808516600090815260208190526040808220939093559084168152205461371d9082613f2e565b6001600160a01b03808416600081815260208181526040918290209490945580518581529051919392871692600080516020614ab883398151915292918290030190a3505050565b61377189858888614087565b6040805160008051602061498e83398151915260208201526001600160a01b03808c16828401819052908b166060830152608082018a905260a0820189905260c0820188905260e0808301889052835180840390910181526101009092019092526009549091906137e59086868686613dd4565b6001600160a01b03161461382a5760405162461bcd60e51b81526004018080602001828103825260218152602001806149ee6021913960400191505060405180910390fd5b6138348a8661410d565b61383f8a8a8a6135cd565b50505050505050505050565b604080516001600160a01b038416602482015260448082018490528251808303909101815260649091019091526020810180516001600160e01b031663a9059cbb60e01b1790526130249084906141e3565b6138a989858888614087565b604080516000805160206149ae83398151915260208201526001600160a01b03808c16828401819052908b166060830152608082018a905260a0820189905260c0820188905260e08083018890528351808403909101815261010090920190925260095490919061391d9086868686613dd4565b6001600160a01b0316146139625760405162461bcd60e51b81526004018080602001828103825260218152602001806149ee6021913960400191505060405180910390fd5b61396c8a8661410d565b61383f8a8a8a6131e5565b600061200082614294565b333014156139d1576040805162461bcd60e51b815260206004820152601760248201527610d85b1b195c881a5cc81d1a1a5cc818dbdb9d1c9858dd604a1b604482015290519081900360640190fd5b42841015613a22576040805162461bcd60e51b815260206004820152601960248201527814195c9b5a5d0e881c195c9b5a5d081a5cc8195e1c1a5c9959603a1b604482015290519081900360640190fd5b6001600160a01b038088166000818152600a60209081526040918290208054600181019091558251600080516020614af983398151915292810192909252818301849052938a1660608201526080810189905260a081019390935260c08084018890528151808503909101815260e09093019052600954613aa69086868686613dd4565b6001600160a01b031614613afd576040805162461bcd60e51b81526020600482015260196024820152785065726d69743a20696e76616c6964207369676e617475726560381b604482015290519081900360640190fd5b613b08888888612ddf565b5050505050505050565b6005805460ff191660ff92909216919091179055565b806040516020018082805190602001908083835b60208310613b5b5780518252601f199092019160209182019101613b3c565b51815160209384036101000a6000190180199092169116179052793a20494e53554646494349454e545f5045524d495353494f4e5360301b9190930190815260408051808303600519018152601a909201905280516118cc95506007945092019190506146c8565b613bcf89858888614087565b604080516000805160206148d183398151915260208201526001600160a01b03808c16828401819052908b166060830152608082018a905260a0820189905260c0820188905260e080830188905283518084039091018152610100909201909252600954909190613c439086868686613dd4565b6001600160a01b031614613c885760405162461bcd60e51b81526004018080602001828103825260218152602001806149ee6021913960400191505060405180910390fd5b613c928a8661410d565b61383f8a8a8a612ddf565b613ca989858888614087565b6040805160008051602061483883398151915260208201526001600160a01b03808c16828401819052908b166060830152608082018a905260a0820189905260c0820188905260e080830188905283518084039091018152610100909201909252600954909190613d1d9086868686613dd4565b6001600160a01b031614613d625760405162461bcd60e51b81526004018080602001828103825260218152602001806149ee6021913960400191505060405180910390fd5b613d6c8a8661410d565b61383f8a8a8a61361c565b600033301415613dcf5760606000368080601f0160208091040260200160405190810160405280939291908181526020018383808284376000920191909152505050503601516001600160a01b031691506110f19050565b503390565b80516020808301919091206040805161190160f01b81850152602281018990526042808201939093528151808203909301835260620190528051910120600090613e2081878787614298565b979650505050505050565b60008184841115613eba5760405162461bcd60e51b81526004018080602001828103825283818151815260200191508051906020019080838360005b83811015613e7f578181015183820152602001613e67565b50505050905090810190601f168015613eac5780820380516001836020036101000a031916815260200191505b509250505060405180910390fd5b505050900390565b6000611ffd83836040518060400160405280601e81526020017f536166654d6174683a207375627472616374696f6e206f766572666c6f770000815250613e2b565b6000611ffd836001600160a01b038416614411565b6000611ffd836001600160a01b03841661445b565b600082820183811015611ffd576040805162461bcd60e51b815260206004820152601b60248201527a536166654d6174683a206164646974696f6e206f766572666c6f7760281b604482015290519081900360640190fd5b80516a636f6e736f6c652e6c6f67602083016000808483855afa5050505050565b8151602092830120815191830191909120604080517f36c25de3e541d5d970f66e4210d728721220fff5c077cc6cd008b3a0c62adab7818601528082019390935260608301919091523060808301524660a0808401919091528151808403909101815260c09092019052805191012090565b6001600160a01b0382166000908152600b6020908152604080832084845290915281205460ff16600281111561404b57fe5b146118cc5760405162461bcd60e51b815260040180806020018281038252603181526020018061487a6031913960400191505060405180910390fd5b8142116140c55760405162461bcd60e51b815260040180806020018281038252602e815260200180614b5e602e913960400191505060405180910390fd5b8042106141035760405162461bcd60e51b81526004018080602001828103825260288152602001806149116028913960400191505060405180910390fd5b6124808484614019565b6001600160a01b0382166000818152600b60209081526040808320858452909152808220805460ff19166001179055518392917f98de503528ee59b575ef0c0a2576a82497bfc029a5685b209e9ec333479b10a591a35050565b815460009082106141a95760405162461bcd60e51b815260040180806020018281038252602281526020018061475c6022913960400191505060405180910390fd5b8260000182815481106141b857fe5b9060005260206000200154905092915050565b60009081526001919091016020526040902054151590565b6060614238826040518060400160405280602081526020017f5361666545524332303a206c6f772d6c6576656c2063616c6c206661696c6564815250856001600160a01b03166145219092919063ffffffff16565b8051909150156130245780806020019051602081101561425757600080fd5b50516130245760405162461bcd60e51b815260040180806020018281038252602a815260200180614bf6602a913960400191505060405180910390fd5b5490565b60006fa2a8918ca85bafe22016d0b997e4df60600160ff1b038211156142ef5760405162461bcd60e51b8152600401808060200182810382526026815260200180614bb06026913960400191505060405180910390fd5b8360ff16601b1415801561430757508360ff16601c14155b156143435760405162461bcd60e51b81526004018080602001828103825260268152602001806148126026913960400191505060405180910390fd5b600060018686868660405160008152602001604052604051808581526020018460ff1681526020018381526020018281526020019450505050506020604051602081039080840390855afa15801561439f573d6000803e3d6000fd5b5050604051601f1901519150506001600160a01b038116614406576040805162461bcd60e51b815260206004820152601c60248201527b45435265636f7665723a20696e76616c6964207369676e617475726560201b604482015290519081900360640190fd5b90505b949350505050565b600061441d83836141cb565b61445357508154600181810184556000848152602080822090930184905584548482528286019093526040902091909155612000565b506000612000565b60008181526001830160205260408120548015614517578354600019808301919081019060009087908390811061448e57fe5b90600052602060002001549050808760000184815481106144ab57fe5b6000918252602080832090910192909255828152600189810190925260409020908401905586548790806144db57fe5b60019003818190600052602060002001600090559055866001016000878152602001908152602001600020600090556001945050505050612000565b6000915050612000565b60606144098484600085606061453685614698565b614587576040805162461bcd60e51b815260206004820152601d60248201527f416464726573733a2063616c6c20746f206e6f6e2d636f6e7472616374000000604482015290519081900360640190fd5b60006060866001600160a01b031685876040518082805190602001908083835b602083106145c65780518252601f1990920191602091820191016145a7565b6001836020036101000a03801982511681845116808217855250505050505090500191505060006040518083038185875af1925050503d8060008114614628576040519150601f19603f3d011682016040523d82523d6000602084013e61462d565b606091505b509150915081156146415791506144099050565b8051156146515780518082602001fd5b60405162461bcd60e51b8152602060048201818152865160248401528651879391928392604401919085019080838360008315613e7f578181015183820152602001613e67565b3b151590565b60405180606001604052806000815260200160006001600160a01b03168152602001606081525090565b828054600181600116156101000203166002900490600052602060002090601f016020900481019282601f1061470957805160ff1916838001178555614736565b82800160010185558215614736579182015b8281111561473657825182559160200191906001019061471b565b50614742929150614746565b5090565b5b80821115614742576000815560010161474756fe456e756d657261626c655365743a20696e646578206f7574206f6620626f756e647345524332303a207472616e7366657220746f20746865207a65726f2061646472657373cf6f9f892731e14b8859835f2ff35575f447fb501f46243c4eb8bac19e31a050416363657373436f6e74726f6c3a2073656e646572206d75737420626520616e2061646d696e20746f206772616e7445524332303a206275726e20616d6f756e7420657863656564732062616c616e636545435265636f7665723a20696e76616c6964207369676e6174757265202776272076616c75657c7c6cdb67a18743f49ec6fa9b35f50d52ed05cbed4cc592e13b44501c1a226745524332303a20617070726f766520746f20746865207a65726f20616464726573734761734162737472616374696f6e3a20617574686f72697a6174696f6e2069732075736564206f722063616e63656c656445524332303a207472616e7366657220616d6f756e7420657863656564732062616c616e6365808c10407a796f3ef2c7ea38c0638ea9d2b8a1c63e3ca9e1f56ce84ae59df73c158b0a9edf7a828aad02f63cd515c68ef2f50ba807396f6d12842833a15974294761734162737472616374696f6e3a20617574686f72697a6174696f6e2069732065787069726564416363657373436f6e74726f6c3a2073656e646572206d75737420626520616e2061646d696e20746f207265766f6b654e61746976654d6574615472616e73616374696f6e3a20494e56414c49445f5349474e4552b70559e94cbda91958ebec07f9b65b3b490097c8d25c8dacd71105df1015b6d8424222bb050a1f7f14017232a5671f2680a2d3420f504bd565cf03035c53198a8f4f2da22e8ac8f11e15f9fc141cddbb5deea8800186560abb6e68c5496619a94761734162737472616374696f6e3a20696e76616c6964207369676e617475726523d10def3caacba2e4042e0c75d44a42d2558aabcf5ce951d0642a8032e1e65345524332303a207472616e7366657220616d6f756e74206578636565647320616c6c6f77616e636565d7a28e3265b37a6474929f336521b332c1681b933f6cb9f3376673440d862a5369676e657220616e64207369676e617475726520646f206e6f74206d6174636898db8a220cd0f09badce9f22d0ba7e93edb3d404448cc3560d391ab096ad16e9ddf252ad1be2c89b69c2b068fc378daa952ba7f163c4a11628f55a4df523b3ef45524332303a206275726e2066726f6d20746865207a65726f20616464726573736e71edae12b1b97f4d1f60370fef10105fa2faae0126114a169c64845d6126c945524332303a207472616e736665722066726f6d20746865207a65726f20616464726573735061757361626c653a20706175736564000000000000000000000000000000004761734162737472616374696f6e3a20617574686f72697a6174696f6e206973206e6f74207965742076616c696445524332303a20617070726f76652066726f6d20746865207a65726f206164647265737345435265636f7665723a20696e76616c6964207369676e6174757265202773272076616c75656c8f8f5f82f0c140edd12e80d10ff715a36d6e5f73e406394862b5f1eb44c4f95361666545524332303a204552433230206f7065726174696f6e20646964206e6f742073756363656564426c61636b6c69737461626c653a206163636f756e7420697320626c61636b6c697374656445524332303a2064656372656173656420616c6c6f77616e63652062656c6f77207a65726f416363657373436f6e74726f6c3a2063616e206f6e6c792072656e6f756e636520726f6c657320666f722073656c66a164736f6c634300060c000a",
  "devdoc": {
    "kind": "dev",
    "methods": {
      "allowance(address,address)": {
        "details": "See {IERC20-allowance}."
      },
      "approve(address,uint256)": {
        "details": "See {IERC20-approve}. Requirements: - `spender` cannot be the zero address."
      },
      "approveWithAuthorization(address,address,uint256,uint256,uint256,bytes32,uint8,bytes32,bytes32)": {
        "params": {
          "nonce": "Unique nonce",
          "owner": "Token owner's address (Authorizer)",
          "r": "r of the signature",
          "s": "s of the signature",
          "spender": "Spender's address",
          "v": "v of the signature",
          "validAfter": "The time after which this is valid (unix time)",
          "validBefore": "The time before which this is valid (unix time)",
          "value": "Amount of allowance"
        }
      },
      "authorizationState(address,bytes32)": {
        "params": {
          "authorizer": "Authorizer's address",
          "nonce": "Nonce of the authorization"
        },
        "returns": {
          "_0": "Authorization state"
        }
      },
      "balanceOf(address)": {
        "details": "See {IERC20-balanceOf}."
      },
      "blacklist(address)": {
        "details": "Adds an account to the blacklist",
        "params": {
          "account": "The address to blacklist"
        }
      },
      "blacklisters()": {
        "returns": {
          "_0": "Addresses"
        }
      },
      "cancelAuthorization(address,bytes32,uint8,bytes32,bytes32)": {
        "details": "Works only if the authorization is not yet used.",
        "params": {
          "authorizer": "Authorizer's address",
          "nonce": "Nonce of the authorization",
          "r": "r of the signature",
          "s": "s of the signature",
          "v": "v of the signature"
        }
      },
      "decimals()": {
        "details": "Returns the number of decimals used to get its user representation. For example, if `decimals` equals `2`, a balance of `505` tokens should be displayed to a user as `5,05` (`505 / 10 ** 2`). Tokens usually opt for a value of 18, imitating the relationship between Ether and Wei. This is the value {ERC20} uses, unless {_setupDecimals} is called. NOTE: This information is only used for _display_ purposes: it in no way affects any of the arithmetic of the contract, including {IERC20-balanceOf} and {IERC20-transfer}."
      },
      "decreaseAllowance(address,uint256)": {
        "details": "Atomically decreases the allowance granted to `spender` by the caller. This is an alternative to {approve} that can be used as a mitigation for problems described in {IERC20-approve}. Emits an {Approval} event indicating the updated allowance. Requirements: - `spender` cannot be the zero address. - `spender` must have allowance for the caller of at least `subtractedValue`."
      },
      "decreaseAllowanceWithAuthorization(address,address,uint256,uint256,uint256,bytes32,uint8,bytes32,bytes32)": {
        "params": {
          "decrement": "Amount of decrease in allowance",
          "nonce": "Unique nonce",
          "owner": "Token owner's address (Authorizer)",
          "r": "r of the signature",
          "s": "s of the signature",
          "spender": "Spender's address",
          "v": "v of the signature",
          "validAfter": "The time after which this is valid (unix time)",
          "validBefore": "The time before which this is valid (unix time)"
        }
      },
      "deposit(address,bytes)": {
        "details": "Should be callable only by ChildChainManager Should handle deposit by minting the required amount for user Make sure minting is done only by this function",
        "params": {
          "depositData": "abi encoded amount",
          "user": "user address for whom deposit is being done"
        }
      },
      "getRoleAdmin(bytes32)": {
        "details": "Returns the admin role that controls `role`. See {grantRole} and {revokeRole}. To change a role's admin, use {_setRoleAdmin}."
      },
      "getRoleMember(bytes32,uint256)": {
        "details": "Returns one of the accounts that have `role`. `index` must be a value between 0 and {getRoleMemberCount}, non-inclusive. Role bearers are not sorted in any particular way, and their ordering may change at any point. WARNING: When using {getRoleMember} and {getRoleMemberCount}, make sure you perform all queries on the same block. See the following https://forum.openzeppelin.com/t/iterating-over-elements-on-enumerableset-in-openzeppelin-contracts/2296[forum post] for more information."
      },
      "getRoleMemberCount(bytes32)": {
        "details": "Returns the number of accounts that have `role`. Can be used together with {getRoleMember} to enumerate all bearers of a role."
      },
      "grantRole(bytes32,address)": {
        "details": "Grants `role` to `account`. If `account` had not been already granted `role`, emits a {RoleGranted} event. Requirements: - the caller must have ``role``'s admin role."
      },
      "hasRole(bytes32,address)": {
        "details": "Returns `true` if `account` has been granted `role`."
      },
      "increaseAllowance(address,uint256)": {
        "details": "Atomically increases the allowance granted to `spender` by the caller. This is an alternative to {approve} that can be used as a mitigation for problems described in {IERC20-approve}. Emits an {Approval} event indicating the updated allowance. Requirements: - `spender` cannot be the zero address."
      },
      "increaseAllowanceWithAuthorization(address,address,uint256,uint256,uint256,bytes32,uint8,bytes32,bytes32)": {
        "params": {
          "increment": "Amount of increase in allowance",
          "nonce": "Unique nonce",
          "owner": "Token owner's address (Authorizer)",
          "r": "r of the signature",
          "s": "s of the signature",
          "spender": "Spender's address",
          "v": "v of the signature",
          "validAfter": "The time after which this is valid (unix time)",
          "validBefore": "The time before which this is valid (unix time)"
        }
      },
      "initialize(string,string,uint8,address)": {
        "details": "meant to be called once immediately after deployment"
      },
      "isBlacklisted(address)": {
        "details": "Checks if an account is blacklisted",
        "params": {
          "account": "The address to check"
        }
      },
      "name()": {
        "details": "Returns the name of the token."
      },
      "nonces(address)": {
        "params": {
          "owner": "Token owner's address"
        },
        "returns": {
          "_0": "Next nonce"
        }
      },
      "paused()": {
        "returns": {
          "_0": "True if paused"
        }
      },
      "pausers()": {
        "returns": {
          "_0": "Addresses"
        }
      },
      "permit(address,address,uint256,uint256,uint8,bytes32,bytes32)": {
        "params": {
          "deadline": "Expiration time, seconds since the epoch",
          "owner": "Token owner's address (Authorizer)",
          "r": "r of the signature",
          "s": "s of the signature",
          "spender": "Spender's address",
          "v": "v of the signature",
          "value": "Amount of allowance"
        }
      },
      "renounceRole(bytes32,address)": {
        "details": "Revokes `role` from the calling account. Roles are often managed via {grantRole} and {revokeRole}: this function's purpose is to provide a mechanism for accounts to lose their privileges if they are compromised (such as when a trusted device is misplaced). If the calling account had been granted `role`, emits a {RoleRevoked} event. Requirements: - the caller must be `account`."
      },
      "rescueERC20(address,address,uint256)": {
        "params": {
          "amount": "Amount to withdraw",
          "to": "Recipient address",
          "tokenContract": "ERC20 token contract address"
        }
      },
      "rescuers()": {
        "returns": {
          "_0": "Addresses"
        }
      },
      "revokeRole(bytes32,address)": {
        "details": "Revokes `role` from `account`. If `account` had been granted `role`, emits a {RoleRevoked} event. Requirements: - the caller must have ``role``'s admin role."
      },
      "symbol()": {
        "details": "Returns the symbol of the token, usually a shorter version of the name."
      },
      "totalSupply()": {
        "details": "See {IERC20-totalSupply}."
      },
      "transfer(address,uint256)": {
        "details": "See {IERC20-transfer}. Requirements: - `recipient` cannot be the zero address. - the caller must have a balance of at least `amount`."
      },
      "transferFrom(address,address,uint256)": {
        "details": "See {IERC20-transferFrom}. Emits an {Approval} event indicating the updated allowance. This is not required by the EIP. See the note at the beginning of {ERC20}; Requirements: - `sender` and `recipient` cannot be the zero address. - `sender` must have a balance of at least `amount`. - the caller must have allowance for ``sender``'s tokens of at least `amount`."
      },
      "transferWithAuthorization(address,address,uint256,uint256,uint256,bytes32,uint8,bytes32,bytes32)": {
        "params": {
          "from": "Payer's address (Authorizer)",
          "nonce": "Unique nonce",
          "r": "r of the signature",
          "s": "s of the signature",
          "to": "Payee's address",
          "v": "v of the signature",
          "validAfter": "The time after which this is valid (unix time)",
          "validBefore": "The time before which this is valid (unix time)",
          "value": "Amount to be transferred"
        }
      },
      "unBlacklist(address)": {
        "params": {
          "account": "The address to remove from the blacklist"
        }
      },
      "withdraw(uint256)": {
        "details": "Should burn user's tokens. This transaction will be verified when exiting on root chain",
        "params": {
          "amount": "amount of tokens to withdraw"
        }
      },
      "withdrawWithAuthorization(address,uint256,uint256,uint256,bytes32,uint8,bytes32,bytes32)": {
        "params": {
          "nonce": "Unique nonce",
          "owner": "Token owner's address (Authorizer)",
          "r": "r of the signature",
          "s": "s of the signature",
          "v": "v of the signature",
          "validAfter": "The time after which this is valid (unix time)",
          "validBefore": "The time before which this is valid (unix time)",
          "value": "Amount to be withdrawn"
        }
      }
    },
    "version": 1
  },
  "userdoc": {
    "kind": "user",
    "methods": {
      "approveWithAuthorization(address,address,uint256,uint256,uint256,bytes32,uint8,bytes32,bytes32)": {
        "notice": "Update allowance with a signed authorization"
      },
      "authorizationState(address,bytes32)": {
        "notice": "Returns the state of an authorization"
      },
      "blacklisters()": {
        "notice": "Return the members of the blacklister role"
      },
      "cancelAuthorization(address,bytes32,uint8,bytes32,bytes32)": {
        "notice": "Attempt to cancel an authorization"
      },
      "decreaseAllowanceWithAuthorization(address,address,uint256,uint256,uint256,bytes32,uint8,bytes32,bytes32)": {
        "notice": "Decrease allowance with a signed authorization"
      },
      "deposit(address,bytes)": {
        "notice": "called when token is deposited on root chain"
      },
      "increaseAllowanceWithAuthorization(address,address,uint256,uint256,uint256,bytes32,uint8,bytes32,bytes32)": {
        "notice": "Increase allowance with a signed authorization"
      },
      "initialize(string,string,uint8,address)": {
        "notice": "Initialize the contract after it has been proxified"
      },
      "nonces(address)": {
        "notice": "Nonces for permit / meta-transactions"
      },
      "pause()": {
        "notice": "Pause this contract"
      },
      "paused()": {
        "notice": "Returns whether this contract is paused"
      },
      "pausers()": {
        "notice": "Return the members of the pauser role"
      },
      "permit(address,address,uint256,uint256,uint8,bytes32,bytes32)": {
        "notice": "Update allowance with a signed permit"
      },
      "rescueERC20(address,address,uint256)": {
        "notice": "Rescue ERC20 tokens locked up in this contract."
      },
      "rescuers()": {
        "notice": "Return the members of the rescuer role"
      },
      "transferWithAuthorization(address,address,uint256,uint256,uint256,bytes32,uint8,bytes32,bytes32)": {
        "notice": "Execute a transfer with a signed authorization"
      },
      "unBlacklist(address)": {
        "notice": "Removes an account from the blacklist"
      },
      "unpause()": {
        "notice": "Unpause this contract"
      },
      "withdraw(uint256)": {
        "notice": "called when user wants to withdraw tokens back to root chain"
      },
      "withdrawWithAuthorization(address,uint256,uint256,uint256,bytes32,uint8,bytes32,bytes32)": {
        "notice": "Execute a withdrawal with a signed authorization. This is used to transfer tokens back to the root chain."
      }
    },
    "version": 1
  },
  "storageLayout": {
    "storage": [
      {
        "astId": 559,
        "contract": "contracts/USDC.sol:UChildAdministrableERC20",
        "label": "_balances",
        "offset": 0,
        "slot": "0",
        "type": "t_mapping(t_address,t_uint256)"
      },
      {
        "astId": 565,
        "contract": "contracts/USDC.sol:UChildAdministrableERC20",
        "label": "_allowances",
        "offset": 0,
        "slot": "1",
        "type": "t_mapping(t_address,t_mapping(t_address,t_uint256))"
      },
      {
        "astId": 567,
        "contract": "contracts/USDC.sol:UChildAdministrableERC20",
        "label": "_totalSupply",
        "offset": 0,
        "slot": "2",
        "type": "t_uint256"
      },
      {
        "astId": 569,
        "contract": "contracts/USDC.sol:UChildAdministrableERC20",
        "label": "_name",
        "offset": 0,
        "slot": "3",
        "type": "t_string_storage"
      },
      {
        "astId": 571,
        "contract": "contracts/USDC.sol:UChildAdministrableERC20",
        "label": "_symbol",
        "offset": 0,
        "slot": "4",
        "type": "t_string_storage"
      },
      {
        "astId": 573,
        "contract": "contracts/USDC.sol:UChildAdministrableERC20",
        "label": "_decimals",
        "offset": 0,
        "slot": "5",
        "type": "t_uint8"
      },
      {
        "astId": 1537,
        "contract": "contracts/USDC.sol:UChildAdministrableERC20",
        "label": "_roles",
        "offset": 0,
        "slot": "6",
        "type": "t_mapping(t_bytes32,t_struct(RoleData)1533_storage)"
      },
      {
        "astId": 1801,
        "contract": "contracts/USDC.sol:UChildAdministrableERC20",
        "label": "_revertMsg",
        "offset": 0,
        "slot": "7",
        "type": "t_string_storage"
      },
      {
        "astId": 1845,
        "contract": "contracts/USDC.sol:UChildAdministrableERC20",
        "label": "_initialized",
        "offset": 0,
        "slot": "8",
        "type": "t_bool"
      },
      {
        "astId": 2015,
        "contract": "contracts/USDC.sol:UChildAdministrableERC20",
        "label": "DOMAIN_SEPARATOR",
        "offset": 0,
        "slot": "9",
        "type": "t_bytes32"
      },
      {
        "astId": 2036,
        "contract": "contracts/USDC.sol:UChildAdministrableERC20",
        "label": "_nonces",
        "offset": 0,
        "slot": "10",
        "type": "t_mapping(t_address,t_uint256)"
      },
      {
        "astId": 2341,
        "contract": "contracts/USDC.sol:UChildAdministrableERC20",
        "label": "_authorizationStates",
        "offset": 0,
        "slot": "11",
        "type": "t_mapping(t_address,t_mapping(t_bytes32,t_enum(AuthorizationState)2334))"
      },
      {
        "astId": 3243,
        "contract": "contracts/USDC.sol:UChildAdministrableERC20",
        "label": "_blacklisted",
        "offset": 0,
        "slot": "12",
        "type": "t_mapping(t_address,t_bool)"
      },
      {
        "astId": 3382,
        "contract": "contracts/USDC.sol:UChildAdministrableERC20",
        "label": "_paused",
        "offset": 0,
        "slot": "13",
        "type": "t_bool"
      }
    ],
    "types": {
      "t_address": {
        "encoding": "inplace",
        "label": "address",
        "numberOfBytes": "20"
      },
      "t_array(t_bytes32)dyn_storage": {
        "base": "t_bytes32",
        "encoding": "dynamic_array",
        "label": "bytes32[]",
        "numberOfBytes": "32"
      },
      "t_bool": {
        "encoding": "inplace",
        "label": "bool",
        "numberOfBytes": "1"
      },
      "t_bytes32": {
        "encoding": "inplace",
        "label": "bytes32",
        "numberOfBytes": "32"
      },
      "t_enum(AuthorizationState)2334": {
        "encoding": "inplace",
        "label": "enum GasAbstraction.AuthorizationState",
        "numberOfBytes": "1"
      },
      "t_mapping(t_address,t_bool)": {
        "encoding": "mapping",
        "key": "t_address",
        "label": "mapping(address => bool)",
        "numberOfBytes": "32",
        "value": "t_bool"
      },
      "t_mapping(t_address,t_mapping(t_address,t_uint256))": {
        "encoding": "mapping",
        "key": "t_address",
        "label": "mapping(address => mapping(address => uint256))",
        "numberOfBytes": "32",
        "value": "t_mapping(t_address,t_uint256)"
      },
      "t_mapping(t_address,t_mapping(t_bytes32,t_enum(AuthorizationState)2334))": {
        "encoding": "mapping",
        "key": "t_address",
        "label": "mapping(address => mapping(bytes32 => enum GasAbstraction.AuthorizationState))",
        "numberOfBytes": "32",
        "value": "t_mapping(t_bytes32,t_enum(AuthorizationState)2334)"
      },
      "t_mapping(t_address,t_uint256)": {
        "encoding": "mapping",
        "key": "t_address",
        "label": "mapping(address => uint256)",
        "numberOfBytes": "32",
        "value": "t_uint256"
      },
      "t_mapping(t_bytes32,t_enum(AuthorizationState)2334)": {
        "encoding": "mapping",
        "key": "t_bytes32",
        "label": "mapping(bytes32 => enum GasAbstraction.AuthorizationState)",
        "numberOfBytes": "32",
        "value": "t_enum(AuthorizationState)2334"
      },
      "t_mapping(t_bytes32,t_struct(RoleData)1533_storage)": {
        "encoding": "mapping",
        "key": "t_bytes32",
        "label": "mapping(bytes32 => struct AccessControl.RoleData)",
        "numberOfBytes": "32",
        "value": "t_struct(RoleData)1533_storage"
      },
      "t_mapping(t_bytes32,t_uint256)": {
        "encoding": "mapping",
        "key": "t_bytes32",
        "label": "mapping(bytes32 => uint256)",
        "numberOfBytes": "32",
        "value": "t_uint256"
      },
      "t_string_storage": {
        "encoding": "bytes",
        "label": "string",
        "numberOfBytes": "32"
      },
      "t_struct(AddressSet)1316_storage": {
        "encoding": "inplace",
        "label": "struct EnumerableSet.AddressSet",
        "members": [
          {
            "astId": 1315,
            "contract": "contracts/USDC.sol:UChildAdministrableERC20",
            "label": "_inner",
            "offset": 0,
            "slot": "0",
            "type": "t_struct(Set)1136_storage"
          }
        ],
        "numberOfBytes": "64"
      },
      "t_struct(RoleData)1533_storage": {
        "encoding": "inplace",
        "label": "struct AccessControl.RoleData",
        "members": [
          {
            "astId": 1530,
            "contract": "contracts/USDC.sol:UChildAdministrableERC20",
            "label": "members",
            "offset": 0,
            "slot": "0",
            "type": "t_struct(AddressSet)1316_storage"
          },
          {
            "astId": 1532,
            "contract": "contracts/USDC.sol:UChildAdministrableERC20",
            "label": "adminRole",
            "offset": 0,
            "slot": "2",
            "type": "t_bytes32"
          }
        ],
        "numberOfBytes": "96"
      },
      "t_struct(Set)1136_storage": {
        "encoding": "inplace",
        "label": "struct EnumerableSet.Set",
        "members": [
          {
            "astId": 1131,
            "contract": "contracts/USDC.sol:UChildAdministrableERC20",
            "label": "_values",
            "offset": 0,
            "slot": "0",
            "type": "t_array(t_bytes32)dyn_storage"
          },
          {
            "astId": 1135,
            "contract": "contracts/USDC.sol:UChildAdministrableERC20",
            "label": "_indexes",
            "offset": 0,
            "slot": "1",
            "type": "t_mapping(t_bytes32,t_uint256)"
          }
        ],
        "numberOfBytes": "64"
      },
      "t_uint256": {
        "encoding": "inplace",
        "label": "uint256",
        "numberOfBytes": "32"
      },
      "t_uint8": {
        "encoding": "inplace",
        "label": "uint8",
        "numberOfBytes": "1"
      }
    }
  }
}