{
  "_format": "hh-sol-artifact-1",
  "contractName": "AccessControlMixin",
  "sourceName": "contracts/USDC.sol",
  "abi": [
    {
      "anonymous": false,
      "inputs": [
        {
          "indexed": true,
          "internalType": "bytes32",
          "name": "role",
          "type": "bytes32"
        },
        {
          "indexed": true,
          "internalType": "bytes32",
          "name": "previousAdminRole",
          "type": "bytes32"
        },
        {
          "indexed": true,
          "internalType": "bytes32",
          "name": "newAdminRole",
          "type": "bytes32"
        }
      ],
      "name": "RoleAdminChanged",
      "type": "event"
    },
    {
      "anonymous": false,
      "inputs": [
        {
          "indexed": true,
          "internalType": "bytes32",
          "name": "role",
          "type": "bytes32"
        },
        {
          "indexed": true,
          "internalType": "address",
          "name": "account",
          "type": "address"
        },
        {
          "indexed": true,
          "internalType": "address",
          "name": "sender",
          "type": "address"
        }
      ],
      "name": "RoleGranted",
      "type": "event"
    },
    {
      "anonymous": false,
      "inputs": [
        {
          "indexed": true,
          "internalType": "bytes32",
          "name": "role",
          "type": "bytes32"
        },
        {
          "indexed": true,
          "internalType": "address",
          "name": "account",
          "type": "address"
        },
        {
          "indexed": true,
          "internalType": "address",
          "name": "sender",
          "type": "address"
        }
      ],
      "name": "RoleRevoked",
      "type": "event"
    },
    {
      "inputs": [],
      "name": "DEFAULT_ADMIN_ROLE",
      "outputs": [
        {
          "internalType": "bytes32",
          "name": "",
          "type": "bytes32"
        }
      ],
      "stateMutability": "view",
      "type": "function"
    },
    {
      "inputs": [
        {
          "internalType": "bytes32",
          "name": "role",
          "type": "bytes32"
        }
      ],
      "name": "getRoleAdmin",
      "outputs": [
        {
          "internalType": "bytes32",
          "name": "",
          "type": "bytes32"
        }
      ],
      "stateMutability": "view",
      "type": "function"
    },
    {
      "inputs": [
        {
          "internalType": "bytes32",
          "name": "role",
          "type": "bytes32"
        },
        {
          "internalType": "uint256",
          "name": "index",
          "type": "uint256"
        }
      ],
      "name": "getRoleMember",
      "outputs": [
        {
          "internalType": "address",
          "name": "",
          "type": "address"
        }
      ],
      "stateMutability": "view",
      "type": "function"
    },
    {
      "inputs": [
        {
          "internalType": "bytes32",
          "name": "role",
          "type": "bytes32"
        }
      ],
      "name": "getRoleMemberCount",
      "outputs": [
        {
          "internalType": "uint256",
          "name": "",
          "type": "uint256"
        }
      ],
      "stateMutability": "view",
      "type": "function"
    },
    {
      "inputs": [
        {
          "internalType": "bytes32",
          "name": "role",
          "type": "bytes32"
        },
        {
          "internalType": "address",
          "name": "account",
          "type": "address"
        }
      ],
      "name": "grantRole",
      "outputs": [],
      "stateMutability": "nonpayable",
      "type": "function"
    },
    {
      "inputs": [
        {
          "internalType": "bytes32",
          "name": "role",
          "type": "bytes32"
        },
        {
          "internalType": "address",
          "name": "account",
          "type": "address"
        }
      ],
      "name": "hasRole",
      "outputs": [
        {
          "internalType": "bool",
          "name": "",
          "type": "bool"
        }
      ],
      "stateMutability": "view",
      "type": "function"
    },
    {
      "inputs": [
        {
          "internalType": "bytes32",
          "name": "role",
          "type": "bytes32"
        },
        {
          "internalType": "address",
          "name": "account",
          "type": "address"
        }
      ],
      "name": "renounceRole",
      "outputs": [],
      "stateMutability": "nonpayable",
      "type": "function"
    },
    {
      "inputs": [
        {
          "internalType": "bytes32",
          "name": "role",
          "type": "bytes32"
        },
        {
          "internalType": "address",
          "name": "account",
          "type": "address"
        }
      ],
      "name": "revokeRole",
      "outputs": [],
      "stateMutability": "nonpayable",
      "type": "function"
    }
  ],
  "bytecode": "0x608060405234801561001057600080fd5b506106df806100206000396000f3fe608060405234801561001057600080fd5b50600436106100785760003560e01c8063248a9ca31461007d5780632f2ff15d146100ac57806336568abe146100da5780639010d07c1461010657806391d1485414610145578063a217fddf14610185578063ca15c8731461018d578063d547741f146101aa575b600080fd5b61009a6004803603602081101561009357600080fd5b50356101d6565b60408051918252519081900360200190f35b6100d8600480360360408110156100c257600080fd5b50803590602001356001600160a01b03166101eb565b005b6100d8600480360360408110156100f057600080fd5b50803590602001356001600160a01b0316610257565b6101296004803603604081101561011c57600080fd5b50803590602001356102b8565b604080516001600160a01b039092168252519081900360200190f35b6101716004803603604081101561015b57600080fd5b50803590602001356001600160a01b03166102d9565b604080519115158252519081900360200190f35b61009a6102f1565b61009a600480360360208110156101a357600080fd5b50356102f6565b6100d8600480360360408110156101c057600080fd5b50803590602001356001600160a01b031661030d565b60009081526020819052604090206002015490565b60008281526020819052604090206002015461020e90610209610366565b6102d9565b6102495760405162461bcd60e51b815260040180806020018281038252602f815260200180610645602f913960400191505060405180910390fd5b610253828261036a565b5050565b61025f610366565b6001600160a01b0316816001600160a01b0316146102ae5760405162461bcd60e51b815260040180806020018281038252602f8152602001806106a4602f913960400191505060405180910390fd5b61025382826103d3565b60008281526020819052604081206102d0908361043c565b90505b92915050565b60008281526020819052604081206102d09083610448565b600081565b60008181526020819052604081206102d39061045d565b60008281526020819052604090206002015461032b90610209610366565b6102ae5760405162461bcd60e51b81526004018080602001828103825260308152602001806106746030913960400191505060405180910390fd5b3390565b60008281526020819052604090206103829082610468565b156102535761038f610366565b6001600160a01b0316816001600160a01b0316837f2f8788117e7eff1d82e926ec794901d17c78024a50270940304540a733656f0d60405160405180910390a45050565b60008281526020819052604090206103eb908261047d565b15610253576103f8610366565b6001600160a01b0316816001600160a01b0316837ff6391f5c32d9c69d2a47ea670b442974b53935d1edc7fd64eb21e047a839171b60405160405180910390a45050565b60006102d08383610492565b60006102d0836001600160a01b0384166104f6565b60006102d38261050e565b60006102d0836001600160a01b038416610512565b60006102d0836001600160a01b03841661055c565b815460009082106104d45760405162461bcd60e51b81526004018080602001828103825260228152602001806106236022913960400191505060405180910390fd5b8260000182815481106104e357fe5b9060005260206000200154905092915050565b60009081526001919091016020526040902054151590565b5490565b600061051e83836104f6565b610554575081546001818101845560008481526020808220909301849055845484825282860190935260409020919091556102d3565b5060006102d3565b60008181526001830160205260408120548015610618578354600019808301919081019060009087908390811061058f57fe5b90600052602060002001549050808760000184815481106105ac57fe5b6000918252602080832090910192909255828152600189810190925260409020908401905586548790806105dc57fe5b600190038181906000526020600020016000905590558660010160008781526020019081526020016000206000905560019450505050506102d3565b60009150506102d356fe456e756d657261626c655365743a20696e646578206f7574206f6620626f756e6473416363657373436f6e74726f6c3a2073656e646572206d75737420626520616e2061646d696e20746f206772616e74416363657373436f6e74726f6c3a2073656e646572206d75737420626520616e2061646d696e20746f207265766f6b65416363657373436f6e74726f6c3a2063616e206f6e6c792072656e6f756e636520726f6c657320666f722073656c66a164736f6c634300060c000a",
  "linkReferences": {},
  "deployedLinkReferences": {}
}