{
  "_format": "hh-sol-artifact-1",
  "contractName": "EIP712",
  "sourceName": "contracts/USDC.sol",
  "abi": [
    {
      "inputs": [],
      "name": "EIP712_DOMAIN_TYPEHASH",
      "outputs": [
        {
          "internalType": "bytes32",
          "name": "",
          "type": "bytes32"
        }
      ],
      "stateMutability": "view",
      "type": "function"
    }
  ],
  "bytecode": "0x6081610024600b82828239805160001a607314601757fe5b30600052607381538281f3fe730000000000000000000000000000000000000000301460806040526004361060335760003560e01c8063c7977be7146038575b600080fd5b603e6050565b60408051918252519081900360200190f35b7f36c25de3e541d5d970f66e4210d728721220fff5c077cc6cd008b3a0c62adab78156fea164736f6c634300060c000a",
  "linkReferences": {},
  "deployedLinkReferences": {}
}