{
  "_format": "hh-sol-artifact-1",
  "contractName": "UChildERC20",
  "sourceName": "contracts/USDC.sol",
  "abi": [
    {
      "inputs": [],
      "stateMutability": "nonpayable",
      "type": "constructor"
    },
    {
      "anonymous": false,
      "inputs": [
        {
          "indexed": true,
          "internalType": "address",
          "name": "owner",
          "type": "address"
        },
        {
          "indexed": true,
          "internalType": "address",
          "name": "spender",
          "type": "address"
        },
        {
          "indexed": false,
          "internalType": "uint256",
          "name": "value",
          "type": "uint256"
        }
      ],
      "name": "Approval",
      "type": "event"
    },
    {
      "anonymous": false,
      "inputs": [
        {
          "indexed": true,
          "internalType": "address",
          "name": "authorizer",
          "type": "address"
        },
        {
          "indexed": true,
          "internalType": "bytes32",
          "name": "nonce",
          "type": "bytes32"
        }
      ],
      "name": "AuthorizationCanceled",
      "type": "event"
    },
    {
      "anonymous": false,
      "inputs": [
        {
          "indexed": true,
          "internalType": "address",
          "name": "authorizer",
          "type": "address"
        },
        {
          "indexed": true,
          "internalType": "bytes32",
          "name": "nonce",
          "type": "bytes32"
        }
      ],
      "name": "AuthorizationUsed",
      "type": "event"
    },
    {
      "anonymous": false,
      "inputs": [
        {
          "indexed": false,
          "internalType": "address",
          "name": "userAddress",
          "type": "address"
        },
        {
          "indexed": false,
          "internalType": "address payable",
          "name": "relayerAddress",
          "type": "address"
        },
        {
          "indexed": false,
          "internalType": "bytes",
          "name": "functionSignature",
          "type": "bytes"
        }
      ],
      "name": "MetaTransactionExecuted",
      "type": "event"
    },
    {
      "anonymous": false,
      "inputs": [
        {
          "indexed": true,
          "internalType": "bytes32",
          "name": "role",
          "type": "bytes32"
        },
        {
          "indexed": true,
          "internalType": "bytes32",
          "name": "previousAdminRole",
          "type": "bytes32"
        },
        {
          "indexed": true,
          "internalType": "bytes32",
          "name": "newAdminRole",
          "type": "bytes32"
        }
      ],
      "name": "RoleAdminChanged",
      "type": "event"
    },
    {
      "anonymous": false,
      "inputs": [
        {
          "indexed": true,
          "internalType": "bytes32",
          "name": "role",
          "type": "bytes32"
        },
        {
          "indexed": true,
          "internalType": "address",
          "name": "account",
          "type": "address"
        },
        {
          "indexed": true,
          "internalType": "address",
          "name": "sender",
          "type": "address"
        }
      ],
      "name": "RoleGranted",
      "type": "event"
    },
    {
      "anonymous": false,
      "inputs": [
        {
          "indexed": true,
          "internalType": "bytes32",
          "name": "role",
          "type": "bytes32"
        },
        {
          "indexed": true,
          "internalType": "address",
          "name": "account",
          "type": "address"
        },
        {
          "indexed": true,
          "internalType": "address",
          "name": "sender",
          "type": "address"
        }
      ],
      "name": "RoleRevoked",
      "type": "event"
    },
    {
      "anonymous": false,
      "inputs": [
        {
          "indexed": true,
          "internalType": "address",
          "name": "from",
          "type": "address"
        },
        {
          "indexed": true,
          "internalType": "address",
          "name": "to",
          "type": "address"
        },
        {
          "indexed": false,
          "internalType": "uint256",
          "name": "value",
          "type": "uint256"
        }
      ],
      "name": "Transfer",
      "type": "event"
    },
    {
      "inputs": [],
      "name": "APPROVE_WITH_AUTHORIZATION_TYPEHASH",
      "outputs": [
        {
          "internalType": "bytes32",
          "name": "",
          "type": "bytes32"
        }
      ],
      "stateMutability": "view",
      "type": "function"
    },
    {
      "inputs": [],
      "name": "CANCEL_AUTHORIZATION_TYPEHASH",
      "outputs": [
        {
          "internalType": "bytes32",
          "name": "",
          "type": "bytes32"
        }
      ],
      "stateMutability": "view",
      "type": "function"
    },
    {
      "inputs": [],
      "name": "DECREASE_ALLOWANCE_WITH_AUTHORIZATION_TYPEHASH",
      "outputs": [
        {
          "internalType": "bytes32",
          "name": "",
          "type": "bytes32"
        }
      ],
      "stateMutability": "view",
      "type": "function"
    },
    {
      "inputs": [],
      "name": "DEFAULT_ADMIN_ROLE",
      "outputs": [
        {
          "internalType": "bytes32",
          "name": "",
          "type": "bytes32"
        }
      ],
      "stateMutability": "view",
      "type": "function"
    },
    {
      "inputs": [],
      "name": "DEPOSITOR_ROLE",
      "outputs": [
        {
          "internalType": "bytes32",
          "name": "",
          "type": "bytes32"
        }
      ],
      "stateMutability": "view",
      "type": "function"
    },
    {
      "inputs": [],
      "name": "DOMAIN_SEPARATOR",
      "outputs": [
        {
          "internalType": "bytes32",
          "name": "",
          "type": "bytes32"
        }
      ],
      "stateMutability": "view",
      "type": "function"
    },
    {
      "inputs": [],
      "name": "EIP712_VERSION",
      "outputs": [
        {
          "internalType": "string",
          "name": "",
          "type": "string"
        }
      ],
      "stateMutability": "view",
      "type": "function"
    },
    {
      "inputs": [],
      "name": "INCREASE_ALLOWANCE_WITH_AUTHORIZATION_TYPEHASH",
      "outputs": [
        {
          "internalType": "bytes32",
          "name": "",
          "type": "bytes32"
        }
      ],
      "stateMutability": "view",
      "type": "function"
    },
    {
      "inputs": [],
      "name": "META_TRANSACTION_TYPEHASH",
      "outputs": [
        {
          "internalType": "bytes32",
          "name": "",
          "type": "bytes32"
        }
      ],
      "stateMutability": "view",
      "type": "function"
    },
    {
      "inputs": [],
      "name": "PERMIT_TYPEHASH",
      "outputs": [
        {
          "internalType": "bytes32",
          "name": "",
          "type": "bytes32"
        }
      ],
      "stateMutability": "view",
      "type": "function"
    },
    {
      "inputs": [],
      "name": "TRANSFER_WITH_AUTHORIZATION_TYPEHASH",
      "outputs": [
        {
          "internalType": "bytes32",
          "name": "",
          "type": "bytes32"
        }
      ],
      "stateMutability": "view",
      "type": "function"
    },
    {
      "inputs": [],
      "name": "WITHDRAW_WITH_AUTHORIZATION_TYPEHASH",
      "outputs": [
        {
          "internalType": "bytes32",
          "name": "",
          "type": "bytes32"
        }
      ],
      "stateMutability": "view",
      "type": "function"
    },
    {
      "inputs": [
        {
          "internalType": "address",
          "name": "owner",
          "type": "address"
        },
        {
          "internalType": "address",
          "name": "spender",
          "type": "address"
        }
      ],
      "name": "allowance",
      "outputs": [
        {
          "internalType": "uint256",
          "name": "",
          "type": "uint256"
        }
      ],
      "stateMutability": "view",
      "type": "function"
    },
    {
      "inputs": [
        {
          "internalType": "address",
          "name": "spender",
          "type": "address"
        },
        {
          "internalType": "uint256",
          "name": "amount",
          "type": "uint256"
        }
      ],
      "name": "approve",
      "outputs": [
        {
          "internalType": "bool",
          "name": "",
          "type": "bool"
        }
      ],
      "stateMutability": "nonpayable",
      "type": "function"
    },
    {
      "inputs": [
        {
          "internalType": "address",
          "name": "owner",
          "type": "address"
        },
        {
          "internalType": "address",
          "name": "spender",
          "type": "address"
        },
        {
          "internalType": "uint256",
          "name": "value",
          "type": "uint256"
        },
        {
          "internalType": "uint256",
          "name": "validAfter",
          "type": "uint256"
        },
        {
          "internalType": "uint256",
          "name": "validBefore",
          "type": "uint256"
        },
        {
          "internalType": "bytes32",
          "name": "nonce",
          "type": "bytes32"
        },
        {
          "internalType": "uint8",
          "name": "v",
          "type": "uint8"
        },
        {
          "internalType": "bytes32",
          "name": "r",
          "type": "bytes32"
        },
        {
          "internalType": "bytes32",
          "name": "s",
          "type": "bytes32"
        }
      ],
      "name": "approveWithAuthorization",
      "outputs": [],
      "stateMutability": "nonpayable",
      "type": "function"
    },
    {
      "inputs": [
        {
          "internalType": "address",
          "name": "authorizer",
          "type": "address"
        },
        {
          "internalType": "bytes32",
          "name": "nonce",
          "type": "bytes32"
        }
      ],
      "name": "authorizationState",
      "outputs": [
        {
          "internalType": "enum GasAbstraction.AuthorizationState",
          "name": "",
          "type": "uint8"
        }
      ],
      "stateMutability": "view",
      "type": "function"
    },
    {
      "inputs": [
        {
          "internalType": "address",
          "name": "account",
          "type": "address"
        }
      ],
      "name": "balanceOf",
      "outputs": [
        {
          "internalType": "uint256",
          "name": "",
          "type": "uint256"
        }
      ],
      "stateMutability": "view",
      "type": "function"
    },
    {
      "inputs": [
        {
          "internalType": "address",
          "name": "authorizer",
          "type": "address"
        },
        {
          "internalType": "bytes32",
          "name": "nonce",
          "type": "bytes32"
        },
        {
          "internalType": "uint8",
          "name": "v",
          "type": "uint8"
        },
        {
          "internalType": "bytes32",
          "name": "r",
          "type": "bytes32"
        },
        {
          "internalType": "bytes32",
          "name": "s",
          "type": "bytes32"
        }
      ],
      "name": "cancelAuthorization",
      "outputs": [],
      "stateMutability": "nonpayable",
      "type": "function"
    },
    {
      "inputs": [],
      "name": "decimals",
      "outputs": [
        {
          "internalType": "uint8",
          "name": "",
          "type": "uint8"
        }
      ],
      "stateMutability": "view",
      "type": "function"
    },
    {
      "inputs": [
        {
          "internalType": "address",
          "name": "spender",
          "type": "address"
        },
        {
          "internalType": "uint256",
          "name": "subtractedValue",
          "type": "uint256"
        }
      ],
      "name": "decreaseAllowance",
      "outputs": [
        {
          "internalType": "bool",
          "name": "",
          "type": "bool"
        }
      ],
      "stateMutability": "nonpayable",
      "type": "function"
    },
    {
      "inputs": [
        {
          "internalType": "address",
          "name": "owner",
          "type": "address"
        },
        {
          "internalType": "address",
          "name": "spender",
          "type": "address"
        },
        {
          "internalType": "uint256",
          "name": "decrement",
          "type": "uint256"
        },
        {
          "internalType": "uint256",
          "name": "validAfter",
          "type": "uint256"
        },
        {
          "internalType": "uint256",
          "name": "validBefore",
          "type": "uint256"
        },
        {
          "internalType": "bytes32",
          "name": "nonce",
          "type": "bytes32"
        },
        {
          "internalType": "uint8",
          "name": "v",
          "type": "uint8"
        },
        {
          "internalType": "bytes32",
          "name": "r",
          "type": "bytes32"
        },
        {
          "internalType": "bytes32",
          "name": "s",
          "type": "bytes32"
        }
      ],
      "name": "decreaseAllowanceWithAuthorization",
      "outputs": [],
      "stateMutability": "nonpayable",
      "type": "function"
    },
    {
      "inputs": [
        {
          "internalType": "address",
          "name": "user",
          "type": "address"
        },
        {
          "internalType": "bytes",
          "name": "depositData",
          "type": "bytes"
        }
      ],
      "name": "deposit",
      "outputs": [],
      "stateMutability": "nonpayable",
      "type": "function"
    },
    {
      "inputs": [
        {
          "internalType": "address",
          "name": "userAddress",
          "type": "address"
        },
        {
          "internalType": "bytes",
          "name": "functionSignature",
          "type": "bytes"
        },
        {
          "internalType": "bytes32",
          "name": "sigR",
          "type": "bytes32"
        },
        {
          "internalType": "bytes32",
          "name": "sigS",
          "type": "bytes32"
        },
        {
          "internalType": "uint8",
          "name": "sigV",
          "type": "uint8"
        }
      ],
      "name": "executeMetaTransaction",
      "outputs": [
        {
          "internalType": "bytes",
          "name": "",
          "type": "bytes"
        }
      ],
      "stateMutability": "payable",
      "type": "function"
    },
    {
      "inputs": [
        {
          "internalType": "bytes32",
          "name": "role",
          "type": "bytes32"
        }
      ],
      "name": "getRoleAdmin",
      "outputs": [
        {
          "internalType": "bytes32",
          "name": "",
          "type": "bytes32"
        }
      ],
      "stateMutability": "view",
      "type": "function"
    },
    {
      "inputs": [
        {
          "internalType": "bytes32",
          "name": "role",
          "type": "bytes32"
        },
        {
          "internalType": "uint256",
          "name": "index",
          "type": "uint256"
        }
      ],
      "name": "getRoleMember",
      "outputs": [
        {
          "internalType": "address",
          "name": "",
          "type": "address"
        }
      ],
      "stateMutability": "view",
      "type": "function"
    },
    {
      "inputs": [
        {
          "internalType": "bytes32",
          "name": "role",
          "type": "bytes32"
        }
      ],
      "name": "getRoleMemberCount",
      "outputs": [
        {
          "internalType": "uint256",
          "name": "",
          "type": "uint256"
        }
      ],
      "stateMutability": "view",
      "type": "function"
    },
    {
      "inputs": [
        {
          "internalType": "bytes32",
          "name": "role",
          "type": "bytes32"
        },
        {
          "internalType": "address",
          "name": "account",
          "type": "address"
        }
      ],
      "name": "grantRole",
      "outputs": [],
      "stateMutability": "nonpayable",
      "type": "function"
    },
    {
      "inputs": [
        {
          "internalType": "bytes32",
          "name": "role",
          "type": "bytes32"
        },
        {
          "internalType": "address",
          "name": "account",
          "type": "address"
        }
      ],
      "name": "hasRole",
      "outputs": [
        {
          "internalType": "bool",
          "name": "",
          "type": "bool"
        }
      ],
      "stateMutability": "view",
      "type": "function"
    },
    {
      "inputs": [
        {
          "internalType": "address",
          "name": "spender",
          "type": "address"
        },
        {
          "internalType": "uint256",
          "name": "addedValue",
          "type": "uint256"
        }
      ],
      "name": "increaseAllowance",
      "outputs": [
        {
          "internalType": "bool",
          "name": "",
          "type": "bool"
        }
      ],
      "stateMutability": "nonpayable",
      "type": "function"
    },
    {
      "inputs": [
        {
          "internalType": "address",
          "name": "owner",
          "type": "address"
        },
        {
          "internalType": "address",
          "name": "spender",
          "type": "address"
        },
        {
          "internalType": "uint256",
          "name": "increment",
          "type": "uint256"
        },
        {
          "internalType": "uint256",
          "name": "validAfter",
          "type": "uint256"
        },
        {
          "internalType": "uint256",
          "name": "validBefore",
          "type": "uint256"
        },
        {
          "internalType": "bytes32",
          "name": "nonce",
          "type": "bytes32"
        },
        {
          "internalType": "uint8",
          "name": "v",
          "type": "uint8"
        },
        {
          "internalType": "bytes32",
          "name": "r",
          "type": "bytes32"
        },
        {
          "internalType": "bytes32",
          "name": "s",
          "type": "bytes32"
        }
      ],
      "name": "increaseAllowanceWithAuthorization",
      "outputs": [],
      "stateMutability": "nonpayable",
      "type": "function"
    },
    {
      "inputs": [
        {
          "internalType": "string",
          "name": "newName",
          "type": "string"
        },
        {
          "internalType": "string",
          "name": "newSymbol",
          "type": "string"
        },
        {
          "internalType": "uint8",
          "name": "newDecimals",
          "type": "uint8"
        },
        {
          "internalType": "address",
          "name": "childChainManager",
          "type": "address"
        }
      ],
      "name": "initialize",
      "outputs": [],
      "stateMutability": "nonpayable",
      "type": "function"
    },
    {
      "inputs": [],
      "name": "initialized",
      "outputs": [
        {
          "internalType": "bool",
          "name": "",
          "type": "bool"
        }
      ],
      "stateMutability": "view",
      "type": "function"
    },
    {
      "inputs": [],
      "name": "name",
      "outputs": [
        {
          "internalType": "string",
          "name": "",
          "type": "string"
        }
      ],
      "stateMutability": "view",
      "type": "function"
    },
    {
      "inputs": [
        {
          "internalType": "address",
          "name": "owner",
          "type": "address"
        }
      ],
      "name": "nonces",
      "outputs": [
        {
          "internalType": "uint256",
          "name": "",
          "type": "uint256"
        }
      ],
      "stateMutability": "view",
      "type": "function"
    },
    {
      "inputs": [
        {
          "internalType": "address",
          "name": "owner",
          "type": "address"
        },
        {
          "internalType": "address",
          "name": "spender",
          "type": "address"
        },
        {
          "internalType": "uint256",
          "name": "value",
          "type": "uint256"
        },
        {
          "internalType": "uint256",
          "name": "deadline",
          "type": "uint256"
        },
        {
          "internalType": "uint8",
          "name": "v",
          "type": "uint8"
        },
        {
          "internalType": "bytes32",
          "name": "r",
          "type": "bytes32"
        },
        {
          "internalType": "bytes32",
          "name": "s",
          "type": "bytes32"
        }
      ],
      "name": "permit",
      "outputs": [],
      "stateMutability": "nonpayable",
      "type": "function"
    },
    {
      "inputs": [
        {
          "internalType": "bytes32",
          "name": "role",
          "type": "bytes32"
        },
        {
          "internalType": "address",
          "name": "account",
          "type": "address"
        }
      ],
      "name": "renounceRole",
      "outputs": [],
      "stateMutability": "nonpayable",
      "type": "function"
    },
    {
      "inputs": [
        {
          "internalType": "bytes32",
          "name": "role",
          "type": "bytes32"
        },
        {
          "internalType": "address",
          "name": "account",
          "type": "address"
        }
      ],
      "name": "revokeRole",
      "outputs": [],
      "stateMutability": "nonpayable",
      "type": "function"
    },
    {
      "inputs": [],
      "name": "symbol",
      "outputs": [
        {
          "internalType": "string",
          "name": "",
          "type": "string"
        }
      ],
      "stateMutability": "view",
      "type": "function"
    },
    {
      "inputs": [],
      "name": "totalSupply",
      "outputs": [
        {
          "internalType": "uint256",
          "name": "",
          "type": "uint256"
        }
      ],
      "stateMutability": "view",
      "type": "function"
    },
    {
      "inputs": [
        {
          "internalType": "address",
          "name": "recipient",
          "type": "address"
        },
        {
          "internalType": "uint256",
          "name": "amount",
          "type": "uint256"
        }
      ],
      "name": "transfer",
      "outputs": [
        {
          "internalType": "bool",
          "name": "",
          "type": "bool"
        }
      ],
      "stateMutability": "nonpayable",
      "type": "function"
    },
    {
      "inputs": [
        {
          "internalType": "address",
          "name": "sender",
          "type": "address"
        },
        {
          "internalType": "address",
          "name": "recipient",
          "type": "address"
        },
        {
          "internalType": "uint256",
          "name": "amount",
          "type": "uint256"
        }
      ],
      "name": "transferFrom",
      "outputs": [
        {
          "internalType": "bool",
          "name": "",
          "type": "bool"
        }
      ],
      "stateMutability": "nonpayable",
      "type": "function"
    },
    {
      "inputs": [
        {
          "internalType": "address",
          "name": "from",
          "type": "address"
        },
        {
          "internalType": "address",
          "name": "to",
          "type": "address"
        },
        {
          "internalType": "uint256",
          "name": "value",
          "type": "uint256"
        },
        {
          "internalType": "uint256",
          "name": "validAfter",
          "type": "uint256"
        },
        {
          "internalType": "uint256",
          "name": "validBefore",
          "type": "uint256"
        },
        {
          "internalType": "bytes32",
          "name": "nonce",
          "type": "bytes32"
        },
        {
          "internalType": "uint8",
          "name": "v",
          "type": "uint8"
        },
        {
          "internalType": "bytes32",
          "name": "r",
          "type": "bytes32"
        },
        {
          "internalType": "bytes32",
          "name": "s",
          "type": "bytes32"
        }
      ],
      "name": "transferWithAuthorization",
      "outputs": [],
      "stateMutability": "nonpayable",
      "type": "function"
    },
    {
      "inputs": [
        {
          "internalType": "string",
          "name": "newName",
          "type": "string"
        },
        {
          "internalType": "string",
          "name": "newSymbol",
          "type": "string"
        }
      ],
      "name": "updateMetadata",
      "outputs": [],
      "stateMutability": "nonpayable",
      "type": "function"
    },
    {
      "inputs": [
        {
          "internalType": "uint256",
          "name": "amount",
          "type": "uint256"
        }
      ],
      "name": "withdraw",
      "outputs": [],
      "stateMutability": "nonpayable",
      "type": "function"
    },
    {
      "inputs": [
        {
          "internalType": "address",
          "name": "owner",
          "type": "address"
        },
        {
          "internalType": "uint256",
          "name": "value",
          "type": "uint256"
        },
        {
          "internalType": "uint256",
          "name": "validAfter",
          "type": "uint256"
        },
        {
          "internalType": "uint256",
          "name": "validBefore",
          "type": "uint256"
        },
        {
          "internalType": "bytes32",
          "name": "nonce",
          "type": "bytes32"
        },
        {
          "internalType": "uint8",
          "name": "v",
          "type": "uint8"
        },
        {
          "internalType": "bytes32",
          "name": "r",
          "type": "bytes32"
        },
        {
          "internalType": "bytes32",
          "name": "s",
          "type": "bytes32"
        }
      ],
      "name": "withdrawWithAuthorization",
      "outputs": [],
      "stateMutability": "nonpayable",
      "type": "function"
    }
  ],
  "bytecode": "0x60806040526008805460ff191690553480156200001b57600080fd5b50604080516020808201808452600080845284519283019094529281528151919290916200004c9160039162000078565b5080516200006290600490602084019062000078565b50506005805460ff191660121790555062000114565b828054600181600116156101000203166002900490600052602060002090601f016020900481019282601f10620000bb57805160ff1916838001178555620000eb565b82800160010185558215620000eb579182015b82811115620000eb578251825591602001919060010190620000ce565b50620000f9929150620000fd565b5090565b5b80821115620000f95760008155600101620000fe565b6133bd80620001246000396000f3fe6080604052600436106102025760003560e01c806306fdde0314610207578063095ea7b3146102915780630c53c51c146102de57806310c8b404146103a0578063158ef93e146103c757806318160ddd146103dc5780632004d291146103f157806323b872dd14610406578063248a9ca3146104495780632e1a7d4d146104735780632f2ff15d1461049f57806330adf81f146104d8578063313ce567146104ed5780633644e5151461051857806336568abe1461052d57806339509351146105665780634b71f5c31461059f57806356ce0e6c146105b45780635a049a701461067f57806370a08231146106cd5780637b766e5f146107005780637ecebe00146107615780639010d07c1461079457806391d14854146107e057806395d89b4114610819578063a0cc6a681461082e578063a217fddf14610843578063a3b0b5a314610858578063a457c2d71461086d578063a9059cbb146108a6578063b0086095146108df578063c237108f1461094b578063c7b84f8d146109b7578063ca15c873146109cc578063cf2c52cb146109f6578063d505accf14610a81578063d547741f14610adf578063d916948714610b18578063dd62ed3e14610b2d578063de7ea79d14610b68578063e1560fd314610c45578063e3ee160e14610cb1578063e94a010214610d1d578063eccec5a814610d77578063fa2c322d14610d8c575b600080fd5b34801561021357600080fd5b5061021c610da1565b6040805160208082528351818301528351919283929083019185019080838360005b8381101561025657818101518382015260200161023e565b50505050905090810190601f1680156102835780820380516001836020036101000a031916815260200191505b509250505060405180910390f35b34801561029d57600080fd5b506102ca600480360360408110156102b457600080fd5b506001600160a01b038135169060200135610e38565b604080519115158252519081900360200190f35b61021c600480360360a08110156102f457600080fd5b6001600160a01b038235169190810190604081016020820135600160201b81111561031e57600080fd5b82018360208201111561033057600080fd5b803590602001918460018302840111600160201b8311171561035157600080fd5b91908080601f016020809104026020016040519081016040528093929190818152602001838380828437600092019190915250929550508235935050506020810135906040013560ff16610e56565b3480156103ac57600080fd5b506103b561111d565b60408051918252519081900360200190f35b3480156103d357600080fd5b506102ca61112f565b3480156103e857600080fd5b506103b5611138565b3480156103fd57600080fd5b506103b561113e565b34801561041257600080fd5b506102ca6004803603606081101561042957600080fd5b506001600160a01b03813581169160208101359091169060400135611150565b34801561045557600080fd5b506103b56004803603602081101561046c57600080fd5b5035611167565b34801561047f57600080fd5b5061049d6004803603602081101561049657600080fd5b503561117c565b005b3480156104ab57600080fd5b5061049d600480360360408110156104c257600080fd5b50803590602001356001600160a01b0316611190565b3480156104e457600080fd5b506103b56111fc565b3480156104f957600080fd5b5061050261120e565b6040805160ff9092168252519081900360200190f35b34801561052457600080fd5b506103b5611217565b34801561053957600080fd5b5061049d6004803603604081101561055057600080fd5b50803590602001356001600160a01b031661121d565b34801561057257600080fd5b506102ca6004803603604081101561058957600080fd5b506001600160a01b03813516906020013561127e565b3480156105ab57600080fd5b506103b5611292565b3480156105c057600080fd5b5061049d600480360360408110156105d757600080fd5b810190602081018135600160201b8111156105f157600080fd5b82018360208201111561060357600080fd5b803590602001918460018302840111600160201b8311171561062457600080fd5b919390929091602081019035600160201b81111561064157600080fd5b82018360208201111561065357600080fd5b803590602001918460018302840111600160201b8311171561067457600080fd5b5090925090506112a4565b34801561068b57600080fd5b5061049d600480360360a08110156106a257600080fd5b506001600160a01b038135169060208101359060ff6040820135169060608101359060800135611430565b3480156106d957600080fd5b506103b5600480360360208110156106f057600080fd5b50356001600160a01b031661143d565b34801561070c57600080fd5b5061049d600480360361010081101561072457600080fd5b506001600160a01b038135169060208101359060408101359060608101359060808101359060ff60a0820135169060c08101359060e00135611458565b34801561076d57600080fd5b506103b56004803603602081101561078457600080fd5b50356001600160a01b0316611472565b3480156107a057600080fd5b506107c4600480360360408110156107b757600080fd5b508035906020013561148d565b604080516001600160a01b039092168252519081900360200190f35b3480156107ec57600080fd5b506102ca6004803603604081101561080357600080fd5b50803590602001356001600160a01b03166114ac565b34801561082557600080fd5b5061021c6114c4565b34801561083a57600080fd5b506103b5611525565b34801561084f57600080fd5b506103b5611537565b34801561086457600080fd5b506103b561153c565b34801561087957600080fd5b506102ca6004803603604081101561089057600080fd5b506001600160a01b03813516906020013561154e565b3480156108b257600080fd5b506102ca600480360360408110156108c957600080fd5b506001600160a01b038135169060200135611562565b3480156108eb57600080fd5b5061049d600480360361012081101561090357600080fd5b506001600160a01b03813581169160208101359091169060408101359060608101359060808101359060a08101359060ff60c0820135169060e0810135906101000135611576565b34801561095757600080fd5b5061049d600480360361012081101561096f57600080fd5b506001600160a01b03813581169160208101359091169060408101359060608101359060808101359060a08101359060ff60c0820135169060e0810135906101000135611592565b3480156109c357600080fd5b506103b56115a3565b3480156109d857600080fd5b506103b5600480360360208110156109ef57600080fd5b50356115b5565b348015610a0257600080fd5b5061049d60048036036040811015610a1957600080fd5b6001600160a01b038235169190810190604081016020820135600160201b811115610a4357600080fd5b820183602082011115610a5557600080fd5b803590602001918460018302840111600160201b83111715610a7657600080fd5b5090925090506115cc565b348015610a8d57600080fd5b5061049d600480360360e0811015610aa457600080fd5b506001600160a01b03813581169160208101359091169060408101359060608101359060ff6080820135169060a08101359060c0013561166e565b348015610aeb57600080fd5b5061049d60048036036040811015610b0257600080fd5b50803590602001356001600160a01b0316611686565b348015610b2457600080fd5b506103b56116df565b348015610b3957600080fd5b506103b560048036036040811015610b5057600080fd5b506001600160a01b03813581169160200135166116f1565b348015610b7457600080fd5b5061049d60048036036080811015610b8b57600080fd5b810190602081018135600160201b811115610ba557600080fd5b820183602082011115610bb757600080fd5b803590602001918460018302840111600160201b83111715610bd857600080fd5b919390929091602081019035600160201b811115610bf557600080fd5b820183602082011115610c0757600080fd5b803590602001918460018302840111600160201b83111715610c2857600080fd5b9193509150803560ff1690602001356001600160a01b031661171c565b348015610c5157600080fd5b5061049d6004803603610120811015610c6957600080fd5b506001600160a01b03813581169160208101359091169060408101359060608101359060808101359060a08101359060ff60c0820135169060e081013590610100013561188b565b348015610cbd57600080fd5b5061049d6004803603610120811015610cd557600080fd5b506001600160a01b03813581169160208101359091169060408101359060608101359060808101359060a08101359060ff60c0820135169060e081013590610100013561189c565b348015610d2957600080fd5b50610d5660048036036040811015610d4057600080fd5b506001600160a01b0381351690602001356118ad565b60405180826002811115610d6657fe5b815260200191505060405180910390f35b348015610d8357600080fd5b5061021c6118d8565b348015610d9857600080fd5b506103b56118f5565b60038054604080516020601f6002600019610100600188161502019095169490940493840181900481028201810190925282815260609390929091830182828015610e2d5780601f10610e0257610100808354040283529160200191610e2d565b820191906000526020600020905b815481529060010190602001808311610e1057829003601f168201915b505050505090505b90565b6000610e4c610e45611907565b8484611916565b5060015b92915050565b6060610e60612e85565b50604080516060810182526001600160a01b0388166000818152600a6020908152908490208054600181019091558352820152908101869052610ea68782878787611a02565b610ee15760405162461bcd60e51b815260040180806020018281038252602181526020018061321e6021913960400191505060405180910390fd5b7f5845892132946850460bff5a0083f71031bc5bf9aadcd40f1de79423eac9b10b87338860405180846001600160a01b03168152602001836001600160a01b0316815260200180602001828103825283818151815260200191508051906020019080838360005b83811015610f60578181015183820152602001610f48565b50505050905090810190601f168015610f8d5780820380516001836020036101000a031916815260200191505b5094505050505060405180910390a160006060306001600160a01b0316888a6040516020018083805190602001908083835b60208310610fde5780518252601f199092019160209182019101610fbf565b6001836020036101000a038019825116818451168082178552505050505050905001826001600160a01b031660601b8152601401925050506040516020818303038152906040526040518082805190602001908083835b602083106110545780518252601f199092019160209182019101611035565b6001836020036101000a0380198251168184511680821785525050505050509050019150506000604051808303816000865af19150503d80600081146110b6576040519150601f19603f3d011682016040523d82523d6000602084013e6110bb565b606091505b509150915081611111576040805162461bcd60e51b815260206004820152601c60248201527b119d5b98dd1a5bdb8818d85b1b081b9bdd081cdd58d8d95cdcd99d5b60221b604482015290519081900360640190fd5b98975050505050505050565b60008051602061309883398151915281565b60085460ff1690565b60025490565b60008051602061333d83398151915281565b600061115d848484611ae0565b5060019392505050565b60009081526006602052604090206002015490565b61118d611187611907565b82611b60565b50565b6000828152600660205260409020600201546111b3906111ae611907565b6114ac565b6111ee5760405162461bcd60e51b815260040180806020018281038252602f815260200180612f88602f913960400191505060405180910390fd5b6111f88282611c4a565b5050565b60008051602061328083398151915281565b60055460ff1690565b60095481565b611225611907565b6001600160a01b0316816001600160a01b0316146112745760405162461bcd60e51b815260040180806020018281038252602f815260200180613382602f913960400191505060405180910390fd5b6111f88282611cb3565b6000610e4c61128b611907565b8484611d1c565b60008051602061315583398151915281565b60006112b2816111ae611907565b6007906113525760405162461bcd60e51b81526020600482019081528254600260001961010060018416150201909116046024830181905290918291604490910190849080156113435780601f1061131857610100808354040283529160200191611343565b820191906000526020600020905b81548152906001019060200180831161132657829003601f168201915b50509250505060405180910390fd5b5061139285858080601f016020809104026020016040519081016040528093929190818152602001838380828437600092019190915250611d5492505050565b6113d183838080601f016020809104026020016040519081016040528093929190818152602001838380828437600092019190915250611d6792505050565b61142985858080601f016020809104026020016040519081016040528093929190818152602001838380828437600092019190915250506040805180820190915260018152603160f81b60208201529150611d7a9050565b5050505050565b6114298585858585611d8b565b6001600160a01b031660009081526020819052604090205490565b6114688888888888888888611e8d565b5050505050505050565b6001600160a01b03166000908152600a602052604090205490565b60008281526006602052604081206114a59083611f5c565b9392505050565b60008281526006602052604081206114a59083611f68565b60048054604080516020601f6002600019610100600188161502019095169490940493840181900481028201810190925282815260609390929091830182828015610e2d5780601f10610e0257610100808354040283529160200191610e2d565b600080516020612fff83398151915281565b600081565b60008051602061319583398151915281565b6000610e4c61155b611907565b8484611f7d565b6000610e4c61156f611907565b8484611fcc565b611587898989898989898989612115565b505050505050505050565b6115878989898989898989896121fb565b60008051602061317583398151915281565b6000818152600660205260408120610e50906122d5565b6000805160206131958339815191526115e7816111ae611907565b60079061164d5760405162461bcd60e51b81526020600482019081528254600260001961010060018416150201909116046024830181905290918291604490910190849080156113435780601f1061131857610100808354040283529160200191611343565b5060008383602081101561166057600080fd5b5035905061142985826122e0565b61167d878787878787876123be565b50505050505050565b6000828152600660205260409020600201546116a4906111ae611907565b6112745760405162461bcd60e51b81526004018080602001828103825260308152602001806131006030913960400191505060405180910390fd5b6000805160206130b883398151915281565b6001600160a01b03918216600090815260016020908152604080832093909416825291909152205490565b60085460ff161561172c57600080fd5b61176b86868080601f016020809104026020016040519081016040528093929190818152602001838380828437600092019190915250611d5492505050565b6117aa84848080601f016020809104026020016040519081016040528093929190818152602001838380828437600092019190915250611d6792505050565b6117b382612544565b6117f4848460405160200180806410da1a5b1960da1b815250600501838380828437808301925050509250505060405160208183030381529060405261255a565b6118066000611801611907565b6111ee565b61181e600080516020613195833981519152826111ee565b61187686868080601f016020809104026020016040519081016040528093929190818152602001838380828437600092019190915250506040805180820190915260018152603160f81b60208201529150611d7a9050565b50506008805460ff1916600117905550505050565b6115878989898989898989896125f5565b6115878989898989898989896126cf565b6001600160a01b03919091166000908152600b60209081526040808320938352929052205460ff1690565b604051806040016040528060018152602001603160f81b81525081565b6000805160206131d683398151915281565b60006119116127a9565b905090565b6001600160a01b03831661195b5760405162461bcd60e51b81526004018080602001828103825260248152602001806132f36024913960400191505060405180910390fd5b6001600160a01b0382166119a05760405162461bcd60e51b815260040180806020018281038252602281526020018061301f6022913960400191505060405180910390fd5b6001600160a01b03808416600081815260016020908152604080832094871680845294825291829020859055815185815291517f8c5be1e5ebec7d5bd14f71427d1e84f3dd0314c0f7b2291e5b200ac8c7c3b9259281900390910190a3505050565b60006001600160a01b038616611a495760405162461bcd60e51b81526004018080602001828103825260258152602001806131306025913960400191505060405180910390fd5b60606000805160206131d683398151915260001b8660000151876020015188604001518051906020012060405160200180858152602001848152602001836001600160a01b031681526020018281526020019450505050506040516020818303038152906040529050866001600160a01b0316611acb60095485888886612806565b6001600160a01b031614979650505050505050565b611aeb838383611fcc565b611b5b83611af7611907565b611b56846040518060600160405280602881526020016131f6602891396001600160a01b038916600090815260016020526040812090611b35611907565b6001600160a01b03168152602081019190915260400160002054919061285d565b611916565b505050565b6001600160a01b038216611ba55760405162461bcd60e51b815260040180806020018281038252602181526020018061325f6021913960400191505060405180910390fd5b611bb182600083611b5b565b611bee81604051806060016040528060228152602001612fb7602291396001600160a01b038516600090815260208190526040902054919061285d565b6001600160a01b038316600090815260208190526040902055600254611c1490826128f4565b6002556040805182815290516000916001600160a01b0385169160008051602061323f8339815191529181900360200190a35050565b6000828152600660205260409020611c629082612936565b156111f857611c6f611907565b6001600160a01b0316816001600160a01b0316837f2f8788117e7eff1d82e926ec794901d17c78024a50270940304540a733656f0d60405160405180910390a45050565b6000828152600660205260409020611ccb908261294b565b156111f857611cd8611907565b6001600160a01b0316816001600160a01b0316837ff6391f5c32d9c69d2a47ea670b442974b53935d1edc7fd64eb21e047a839171b60405160405180910390a45050565b6001600160a01b03808416600090815260016020908152604080832093861683529290522054611b5b9084908490611b569085612960565b80516111f8906003906020840190612eaf565b80516111f8906004906020840190612eaf565b611d8482826129b8565b6009555050565b611d958585612a2a565b604080516000805160206130b883398151915260208201526001600160a01b0387168183018190526060828101889052835180840390910181526080909201909252600954909190611dea9086868686612806565b6001600160a01b031614611e2f5760405162461bcd60e51b81526004018080602001828103825260218152602001806131b56021913960400191505060405180910390fd5b6001600160a01b0386166000818152600b60209081526040808320898452909152808220805460ff19166002179055518792917f1cdd46ff242716cdaa72d159d339a485b3438398348d68f09d7c8c0a59353d8191a3505050505050565b611e9988858888612a98565b6040805160008051602061333d83398151915260208201526001600160a01b038a16818301819052606082018a90526080820189905260a0820188905260c08083018890528351808403909101815260e0909201909252600954909190611f039086868686612806565b6001600160a01b031614611f485760405162461bcd60e51b81526004018080602001828103825260218152602001806131b56021913960400191505060405180910390fd5b611f528986612b24565b6115878989611b60565b60006114a58383612b7e565b60006114a5836001600160a01b038416612be2565b611b5b8383611b568460405180606001604052806025815260200161335d602591396001600160a01b03808a166000908152600160209081526040808320938c1683529290522054919061285d565b6001600160a01b0383166120115760405162461bcd60e51b81526004018080602001828103825260258152602001806132a06025913960400191505060405180910390fd5b6001600160a01b0382166120565760405162461bcd60e51b8152600401808060200182810382526023815260200180612f656023913960400191505060405180910390fd5b612061838383611b5b565b61209e81604051806060016040528060268152602001613072602691396001600160a01b038616600090815260208190526040902054919061285d565b6001600160a01b0380851660009081526020819052604080822093909355908416815220546120cd9082612960565b6001600160a01b0380841660008181526020818152604091829020949094558051858152905191939287169260008051602061323f83398151915292918290030190a3505050565b61212189858888612a98565b6040805160008051602061315583398151915260208201526001600160a01b03808c16828401819052908b166060830152608082018a905260a0820189905260c0820188905260e0808301889052835180840390910181526101009092019092526009549091906121959086868686612806565b6001600160a01b0316146121da5760405162461bcd60e51b81526004018080602001828103825260218152602001806131b56021913960400191505060405180910390fd5b6121e48a86612b24565b6121ef8a8a8a611f7d565b50505050505050505050565b61220789858888612a98565b6040805160008051602061317583398151915260208201526001600160a01b03808c16828401819052908b166060830152608082018a905260a0820189905260c0820188905260e08083018890528351808403909101815261010090920190925260095490919061227b9086868686612806565b6001600160a01b0316146122c05760405162461bcd60e51b81526004018080602001828103825260218152602001806131b56021913960400191505060405180910390fd5b6122ca8a86612b24565b6121ef8a8a8a611d1c565b6000610e5082612bfa565b6001600160a01b03821661233b576040805162461bcd60e51b815260206004820152601f60248201527f45524332303a206d696e7420746f20746865207a65726f206164647265737300604482015290519081900360640190fd5b61234760008383611b5b565b6002546123549082612960565b6002556001600160a01b03821660009081526020819052604090205461237a9082612960565b6001600160a01b03831660008181526020818152604080832094909455835185815293519293919260008051602061323f8339815191529281900390910190a35050565b3330141561240d576040805162461bcd60e51b815260206004820152601760248201527610d85b1b195c881a5cc81d1a1a5cc818dbdb9d1c9858dd604a1b604482015290519081900360640190fd5b4284101561245e576040805162461bcd60e51b815260206004820152601960248201527814195c9b5a5d0e881c195c9b5a5d081a5cc8195e1c1a5c9959603a1b604482015290519081900360640190fd5b6001600160a01b038088166000818152600a6020908152604091829020805460018101909155825160008051602061328083398151915292810192909252818301849052938a1660608201526080810189905260a081019390935260c08084018890528151808503909101815260e090930190526009546124e29086868686612806565b6001600160a01b031614612539576040805162461bcd60e51b81526020600482015260196024820152785065726d69743a20696e76616c6964207369676e617475726560381b604482015290519081900360640190fd5b611468888888611916565b6005805460ff191660ff92909216919091179055565b806040516020018082805190602001908083835b6020831061258d5780518252601f19909201916020918201910161256e565b51815160209384036101000a6000190180199092169116179052793a20494e53554646494349454e545f5045524d495353494f4e5360301b9190930190815260408051808303600519018152601a909201905280516111f89550600794509201919050612eaf565b61260189858888612a98565b6040805160008051602061309883398151915260208201526001600160a01b03808c16828401819052908b166060830152608082018a905260a0820189905260c0820188905260e0808301889052835180840390910181526101009092019092526009549091906126759086868686612806565b6001600160a01b0316146126ba5760405162461bcd60e51b81526004018080602001828103825260218152602001806131b56021913960400191505060405180910390fd5b6126c48a86612b24565b6121ef8a8a8a611916565b6126db89858888612a98565b60408051600080516020612fff83398151915260208201526001600160a01b03808c16828401819052908b166060830152608082018a905260a0820189905260c0820188905260e08083018890528351808403909101815261010090920190925260095490919061274f9086868686612806565b6001600160a01b0316146127945760405162461bcd60e51b81526004018080602001828103825260218152602001806131b56021913960400191505060405180910390fd5b61279e8a86612b24565b6121ef8a8a8a611fcc565b6000333014156128015760606000368080601f0160208091040260200160405190810160405280939291908181526020018383808284376000920191909152505050503601516001600160a01b03169150610e359050565b503390565b80516020808301919091206040805161190160f01b8185015260228101899052604280820193909352815180820390930183526062019052805191012060009061285281878787612bfe565b979650505050505050565b600081848411156128ec5760405162461bcd60e51b81526004018080602001828103825283818151815260200191508051906020019080838360005b838110156128b1578181015183820152602001612899565b50505050905090810190601f1680156128de5780820380516001836020036101000a031916815260200191505b509250505060405180910390fd5b505050900390565b60006114a583836040518060400160405280601e81526020017f536166654d6174683a207375627472616374696f6e206f766572666c6f77000081525061285d565b60006114a5836001600160a01b038416612d75565b60006114a5836001600160a01b038416612dbf565b6000828201838110156114a5576040805162461bcd60e51b815260206004820152601b60248201527a536166654d6174683a206164646974696f6e206f766572666c6f7760281b604482015290519081900360640190fd5b8151602092830120815191830191909120604080517f36c25de3e541d5d970f66e4210d728721220fff5c077cc6cd008b3a0c62adab7818601528082019390935260608301919091523060808301524660a0808401919091528151808403909101815260c09092019052805191012090565b6001600160a01b0382166000908152600b6020908152604080832084845290915281205460ff166002811115612a5c57fe5b146111f85760405162461bcd60e51b81526004018080602001828103825260318152602001806130416031913960400191505060405180910390fd5b814211612ad65760405162461bcd60e51b815260040180806020018281038252602e8152602001806132c5602e913960400191505060405180910390fd5b804210612b145760405162461bcd60e51b81526004018080602001828103825260288152602001806130d86028913960400191505060405180910390fd5b612b1e8484612a2a565b50505050565b6001600160a01b0382166000818152600b60209081526040808320858452909152808220805460ff19166001179055518392917f98de503528ee59b575ef0c0a2576a82497bfc029a5685b209e9ec333479b10a591a35050565b81546000908210612bc05760405162461bcd60e51b8152600401808060200182810382526022815260200180612f436022913960400191505060405180910390fd5b826000018281548110612bcf57fe5b9060005260206000200154905092915050565b60009081526001919091016020526040902054151590565b5490565b60006fa2a8918ca85bafe22016d0b997e4df60600160ff1b03821115612c555760405162461bcd60e51b81526004018080602001828103825260268152602001806133176026913960400191505060405180910390fd5b8360ff16601b14158015612c6d57508360ff16601c14155b15612ca95760405162461bcd60e51b8152600401808060200182810382526026815260200180612fd96026913960400191505060405180910390fd5b600060018686868660405160008152602001604052604051808581526020018460ff1681526020018381526020018281526020019450505050506020604051602081039080840390855afa158015612d05573d6000803e3d6000fd5b5050604051601f1901519150506001600160a01b038116612d6c576040805162461bcd60e51b815260206004820152601c60248201527b45435265636f7665723a20696e76616c6964207369676e617475726560201b604482015290519081900360640190fd5b95945050505050565b6000612d818383612be2565b612db757508154600181810184556000848152602080822090930184905584548482528286019093526040902091909155610e50565b506000610e50565b60008181526001830160205260408120548015612e7b5783546000198083019190810190600090879083908110612df257fe5b9060005260206000200154905080876000018481548110612e0f57fe5b600091825260208083209091019290925582815260018981019092526040902090840190558654879080612e3f57fe5b60019003818190600052602060002001600090559055866001016000878152602001908152602001600020600090556001945050505050610e50565b6000915050610e50565b60405180606001604052806000815260200160006001600160a01b03168152602001606081525090565b828054600181600116156101000203166002900490600052602060002090601f016020900481019282601f10612ef057805160ff1916838001178555612f1d565b82800160010185558215612f1d579182015b82811115612f1d578251825591602001919060010190612f02565b50612f29929150612f2d565b5090565b5b80821115612f295760008155600101612f2e56fe456e756d657261626c655365743a20696e646578206f7574206f6620626f756e647345524332303a207472616e7366657220746f20746865207a65726f2061646472657373416363657373436f6e74726f6c3a2073656e646572206d75737420626520616e2061646d696e20746f206772616e7445524332303a206275726e20616d6f756e7420657863656564732062616c616e636545435265636f7665723a20696e76616c6964207369676e6174757265202776272076616c75657c7c6cdb67a18743f49ec6fa9b35f50d52ed05cbed4cc592e13b44501c1a226745524332303a20617070726f766520746f20746865207a65726f20616464726573734761734162737472616374696f6e3a20617574686f72697a6174696f6e2069732075736564206f722063616e63656c656445524332303a207472616e7366657220616d6f756e7420657863656564732062616c616e6365808c10407a796f3ef2c7ea38c0638ea9d2b8a1c63e3ca9e1f56ce84ae59df73c158b0a9edf7a828aad02f63cd515c68ef2f50ba807396f6d12842833a15974294761734162737472616374696f6e3a20617574686f72697a6174696f6e2069732065787069726564416363657373436f6e74726f6c3a2073656e646572206d75737420626520616e2061646d696e20746f207265766f6b654e61746976654d6574615472616e73616374696f6e3a20494e56414c49445f5349474e4552b70559e94cbda91958ebec07f9b65b3b490097c8d25c8dacd71105df1015b6d8424222bb050a1f7f14017232a5671f2680a2d3420f504bd565cf03035c53198a8f4f2da22e8ac8f11e15f9fc141cddbb5deea8800186560abb6e68c5496619a94761734162737472616374696f6e3a20696e76616c6964207369676e617475726523d10def3caacba2e4042e0c75d44a42d2558aabcf5ce951d0642a8032e1e65345524332303a207472616e7366657220616d6f756e74206578636565647320616c6c6f77616e63655369676e657220616e64207369676e617475726520646f206e6f74206d61746368ddf252ad1be2c89b69c2b068fc378daa952ba7f163c4a11628f55a4df523b3ef45524332303a206275726e2066726f6d20746865207a65726f20616464726573736e71edae12b1b97f4d1f60370fef10105fa2faae0126114a169c64845d6126c945524332303a207472616e736665722066726f6d20746865207a65726f20616464726573734761734162737472616374696f6e3a20617574686f72697a6174696f6e206973206e6f74207965742076616c696445524332303a20617070726f76652066726f6d20746865207a65726f206164647265737345435265636f7665723a20696e76616c6964207369676e6174757265202773272076616c75656c8f8f5f82f0c140edd12e80d10ff715a36d6e5f73e406394862b5f1eb44c4f945524332303a2064656372656173656420616c6c6f77616e63652062656c6f77207a65726f416363657373436f6e74726f6c3a2063616e206f6e6c792072656e6f756e636520726f6c657320666f722073656c66a164736f6c634300060c000a",
  "linkReferences": {},
  "deployedLinkReferences": {}
}