{
  "_format": "hh-sol-artifact-1",
  "contractName": "UChildAdministrableERC20",
  "sourceName": "contracts/USDC.sol",
  "abi": [
    {
      "anonymous": false,
      "inputs": [
        {
          "indexed": true,
          "internalType": "address",
          "name": "owner",
          "type": "address"
        },
        {
          "indexed": true,
          "internalType": "address",
          "name": "spender",
          "type": "address"
        },
        {
          "indexed": false,
          "internalType": "uint256",
          "name": "value",
          "type": "uint256"
        }
      ],
      "name": "Approval",
      "type": "event"
    },
    {
      "anonymous": false,
      "inputs": [
        {
          "indexed": true,
          "internalType": "address",
          "name": "authorizer",
          "type": "address"
        },
        {
          "indexed": true,
          "internalType": "bytes32",
          "name": "nonce",
          "type": "bytes32"
        }
      ],
      "name": "AuthorizationCanceled",
      "type": "event"
    },
    {
      "anonymous": false,
      "inputs": [
        {
          "indexed": true,
          "internalType": "address",
          "name": "authorizer",
          "type": "address"
        },
        {
          "indexed": true,
          "internalType": "bytes32",
          "name": "nonce",
          "type": "bytes32"
        }
      ],
      "name": "AuthorizationUsed",
      "type": "event"
    },
    {
      "anonymous": false,
      "inputs": [
        {
          "indexed": true,
          "internalType": "address",
          "name": "account",
          "type": "address"
        }
      ],
      "name": "Blacklisted",
      "type": "event"
    },
    {
      "anonymous": false,
      "inputs": [
        {
          "indexed": false,
          "internalType": "address",
          "name": "userAddress",
          "type": "address"
        },
        {
          "indexed": false,
          "internalType": "address payable",
          "name": "relayerAddress",
          "type": "address"
        },
        {
          "indexed": false,
          "internalType": "bytes",
          "name": "functionSignature",
          "type": "bytes"
        }
      ],
      "name": "MetaTransactionExecuted",
      "type": "event"
    },
    {
      "anonymous": false,
      "inputs": [],
      "name": "Pause",
      "type": "event"
    },
    {
      "anonymous": false,
      "inputs": [
        {
          "indexed": true,
          "internalType": "address",
          "name": "newRescuer",
          "type": "address"
        }
      ],
      "name": "RescuerChanged",
      "type": "event"
    },
    {
      "anonymous": false,
      "inputs": [
        {
          "indexed": true,
          "internalType": "bytes32",
          "name": "role",
          "type": "bytes32"
        },
        {
          "indexed": true,
          "internalType": "bytes32",
          "name": "previousAdminRole",
          "type": "bytes32"
        },
        {
          "indexed": true,
          "internalType": "bytes32",
          "name": "newAdminRole",
          "type": "bytes32"
        }
      ],
      "name": "RoleAdminChanged",
      "type": "event"
    },
    {
      "anonymous": false,
      "inputs": [
        {
          "indexed": true,
          "internalType": "bytes32",
          "name": "role",
          "type": "bytes32"
        },
        {
          "indexed": true,
          "internalType": "address",
          "name": "account",
          "type": "address"
        },
        {
          "indexed": true,
          "internalType": "address",
          "name": "sender",
          "type": "address"
        }
      ],
      "name": "RoleGranted",
      "type": "event"
    },
    {
      "anonymous": false,
      "inputs": [
        {
          "indexed": true,
          "internalType": "bytes32",
          "name": "role",
          "type": "bytes32"
        },
        {
          "indexed": true,
          "internalType": "address",
          "name": "account",
          "type": "address"
        },
        {
          "indexed": true,
          "internalType": "address",
          "name": "sender",
          "type": "address"
        }
      ],
      "name": "RoleRevoked",
      "type": "event"
    },
    {
      "anonymous": false,
      "inputs": [
        {
          "indexed": true,
          "internalType": "address",
          "name": "from",
          "type": "address"
        },
        {
          "indexed": true,
          "internalType": "address",
          "name": "to",
          "type": "address"
        },
        {
          "indexed": false,
          "internalType": "uint256",
          "name": "value",
          "type": "uint256"
        }
      ],
      "name": "Transfer",
      "type": "event"
    },
    {
      "anonymous": false,
      "inputs": [
        {
          "indexed": true,
          "internalType": "address",
          "name": "account",
          "type": "address"
        }
      ],
      "name": "UnBlacklisted",
      "type": "event"
    },
    {
      "anonymous": false,
      "inputs": [],
      "name": "Unpause",
      "type": "event"
    },
    {
      "inputs": [],
      "name": "APPROVE_WITH_AUTHORIZATION_TYPEHASH",
      "outputs": [
        {
          "internalType": "bytes32",
          "name": "",
          "type": "bytes32"
        }
      ],
      "stateMutability": "view",
      "type": "function"
    },
    {
      "inputs": [],
      "name": "BLACKLISTER_ROLE",
      "outputs": [
        {
          "internalType": "bytes32",
          "name": "",
          "type": "bytes32"
        }
      ],
      "stateMutability": "view",
      "type": "function"
    },
    {
      "inputs": [],
      "name": "CANCEL_AUTHORIZATION_TYPEHASH",
      "outputs": [
        {
          "internalType": "bytes32",
          "name": "",
          "type": "bytes32"
        }
      ],
      "stateMutability": "view",
      "type": "function"
    },
    {
      "inputs": [],
      "name": "DECREASE_ALLOWANCE_WITH_AUTHORIZATION_TYPEHASH",
      "outputs": [
        {
          "internalType": "bytes32",
          "name": "",
          "type": "bytes32"
        }
      ],
      "stateMutability": "view",
      "type": "function"
    },
    {
      "inputs": [],
      "name": "DEFAULT_ADMIN_ROLE",
      "outputs": [
        {
          "internalType": "bytes32",
          "name": "",
          "type": "bytes32"
        }
      ],
      "stateMutability": "view",
      "type": "function"
    },
    {
      "inputs": [],
      "name": "DEPOSITOR_ROLE",
      "outputs": [
        {
          "internalType": "bytes32",
          "name": "",
          "type": "bytes32"
        }
      ],
      "stateMutability": "view",
      "type": "function"
    },
    {
      "inputs": [],
      "name": "DOMAIN_SEPARATOR",
      "outputs": [
        {
          "internalType": "bytes32",
          "name": "",
          "type": "bytes32"
        }
      ],
      "stateMutability": "view",
      "type": "function"
    },
    {
      "inputs": [],
      "name": "EIP712_VERSION",
      "outputs": [
        {
          "internalType": "string",
          "name": "",
          "type": "string"
        }
      ],
      "stateMutability": "view",
      "type": "function"
    },
    {
      "inputs": [],
      "name": "INCREASE_ALLOWANCE_WITH_AUTHORIZATION_TYPEHASH",
      "outputs": [
        {
          "internalType": "bytes32",
          "name": "",
          "type": "bytes32"
        }
      ],
      "stateMutability": "view",
      "type": "function"
    },
    {
      "inputs": [],
      "name": "META_TRANSACTION_TYPEHASH",
      "outputs": [
        {
          "internalType": "bytes32",
          "name": "",
          "type": "bytes32"
        }
      ],
      "stateMutability": "view",
      "type": "function"
    },
    {
      "inputs": [],
      "name": "PAUSER_ROLE",
      "outputs": [
        {
          "internalType": "bytes32",
          "name": "",
          "type": "bytes32"
        }
      ],
      "stateMutability": "view",
      "type": "function"
    },
    {
      "inputs": [],
      "name": "PERMIT_TYPEHASH",
      "outputs": [
        {
          "internalType": "bytes32",
          "name": "",
          "type": "bytes32"
        }
      ],
      "stateMutability": "view",
      "type": "function"
    },
    {
      "inputs": [],
      "name": "RESCUER_ROLE",
      "outputs": [
        {
          "internalType": "bytes32",
          "name": "",
          "type": "bytes32"
        }
      ],
      "stateMutability": "view",
      "type": "function"
    },
    {
      "inputs": [],
      "name": "TRANSFER_WITH_AUTHORIZATION_TYPEHASH",
      "outputs": [
        {
          "internalType": "bytes32",
          "name": "",
          "type": "bytes32"
        }
      ],
      "stateMutability": "view",
      "type": "function"
    },
    {
      "inputs": [],
      "name": "WITHDRAW_WITH_AUTHORIZATION_TYPEHASH",
      "outputs": [
        {
          "internalType": "bytes32",
          "name": "",
          "type": "bytes32"
        }
      ],
      "stateMutability": "view",
      "type": "function"
    },
    {
      "inputs": [
        {
          "internalType": "address",
          "name": "owner",
          "type": "address"
        },
        {
          "internalType": "address",
          "name": "spender",
          "type": "address"
        }
      ],
      "name": "allowance",
      "outputs": [
        {
          "internalType": "uint256",
          "name": "",
          "type": "uint256"
        }
      ],
      "stateMutability": "view",
      "type": "function"
    },
    {
      "inputs": [
        {
          "internalType": "address",
          "name": "spender",
          "type": "address"
        },
        {
          "internalType": "uint256",
          "name": "amount",
          "type": "uint256"
        }
      ],
      "name": "approve",
      "outputs": [
        {
          "internalType": "bool",
          "name": "",
          "type": "bool"
        }
      ],
      "stateMutability": "nonpayable",
      "type": "function"
    },
    {
      "inputs": [
        {
          "internalType": "address",
          "name": "owner",
          "type": "address"
        },
        {
          "internalType": "address",
          "name": "spender",
          "type": "address"
        },
        {
          "internalType": "uint256",
          "name": "value",
          "type": "uint256"
        },
        {
          "internalType": "uint256",
          "name": "validAfter",
          "type": "uint256"
        },
        {
          "internalType": "uint256",
          "name": "validBefore",
          "type": "uint256"
        },
        {
          "internalType": "bytes32",
          "name": "nonce",
          "type": "bytes32"
        },
        {
          "internalType": "uint8",
          "name": "v",
          "type": "uint8"
        },
        {
          "internalType": "bytes32",
          "name": "r",
          "type": "bytes32"
        },
        {
          "internalType": "bytes32",
          "name": "s",
          "type": "bytes32"
        }
      ],
      "name": "approveWithAuthorization",
      "outputs": [],
      "stateMutability": "nonpayable",
      "type": "function"
    },
    {
      "inputs": [
        {
          "internalType": "address",
          "name": "authorizer",
          "type": "address"
        },
        {
          "internalType": "bytes32",
          "name": "nonce",
          "type": "bytes32"
        }
      ],
      "name": "authorizationState",
      "outputs": [
        {
          "internalType": "enum GasAbstraction.AuthorizationState",
          "name": "",
          "type": "uint8"
        }
      ],
      "stateMutability": "view",
      "type": "function"
    },
    {
      "inputs": [
        {
          "internalType": "address",
          "name": "account",
          "type": "address"
        }
      ],
      "name": "balanceOf",
      "outputs": [
        {
          "internalType": "uint256",
          "name": "",
          "type": "uint256"
        }
      ],
      "stateMutability": "view",
      "type": "function"
    },
    {
      "inputs": [
        {
          "internalType": "address",
          "name": "account",
          "type": "address"
        }
      ],
      "name": "blacklist",
      "outputs": [],
      "stateMutability": "nonpayable",
      "type": "function"
    },
    {
      "inputs": [],
      "name": "blacklisters",
      "outputs": [
        {
          "internalType": "address[]",
          "name": "",
          "type": "address[]"
        }
      ],
      "stateMutability": "view",
      "type": "function"
    },
    {
      "inputs": [
        {
          "internalType": "address",
          "name": "authorizer",
          "type": "address"
        },
        {
          "internalType": "bytes32",
          "name": "nonce",
          "type": "bytes32"
        },
        {
          "internalType": "uint8",
          "name": "v",
          "type": "uint8"
        },
        {
          "internalType": "bytes32",
          "name": "r",
          "type": "bytes32"
        },
        {
          "internalType": "bytes32",
          "name": "s",
          "type": "bytes32"
        }
      ],
      "name": "cancelAuthorization",
      "outputs": [],
      "stateMutability": "nonpayable",
      "type": "function"
    },
    {
      "inputs": [],
      "name": "decimals",
      "outputs": [
        {
          "internalType": "uint8",
          "name": "",
          "type": "uint8"
        }
      ],
      "stateMutability": "view",
      "type": "function"
    },
    {
      "inputs": [
        {
          "internalType": "address",
          "name": "spender",
          "type": "address"
        },
        {
          "internalType": "uint256",
          "name": "subtractedValue",
          "type": "uint256"
        }
      ],
      "name": "decreaseAllowance",
      "outputs": [
        {
          "internalType": "bool",
          "name": "",
          "type": "bool"
        }
      ],
      "stateMutability": "nonpayable",
      "type": "function"
    },
    {
      "inputs": [
        {
          "internalType": "address",
          "name": "owner",
          "type": "address"
        },
        {
          "internalType": "address",
          "name": "spender",
          "type": "address"
        },
        {
          "internalType": "uint256",
          "name": "decrement",
          "type": "uint256"
        },
        {
          "internalType": "uint256",
          "name": "validAfter",
          "type": "uint256"
        },
        {
          "internalType": "uint256",
          "name": "validBefore",
          "type": "uint256"
        },
        {
          "internalType": "bytes32",
          "name": "nonce",
          "type": "bytes32"
        },
        {
          "internalType": "uint8",
          "name": "v",
          "type": "uint8"
        },
        {
          "internalType": "bytes32",
          "name": "r",
          "type": "bytes32"
        },
        {
          "internalType": "bytes32",
          "name": "s",
          "type": "bytes32"
        }
      ],
      "name": "decreaseAllowanceWithAuthorization",
      "outputs": [],
      "stateMutability": "nonpayable",
      "type": "function"
    },
    {
      "inputs": [
        {
          "internalType": "address",
          "name": "user",
          "type": "address"
        },
        {
          "internalType": "bytes",
          "name": "depositData",
          "type": "bytes"
        }
      ],
      "name": "deposit",
      "outputs": [],
      "stateMutability": "nonpayable",
      "type": "function"
    },
    {
      "inputs": [
        {
          "internalType": "address",
          "name": "userAddress",
          "type": "address"
        },
        {
          "internalType": "bytes",
          "name": "functionSignature",
          "type": "bytes"
        },
        {
          "internalType": "bytes32",
          "name": "sigR",
          "type": "bytes32"
        },
        {
          "internalType": "bytes32",
          "name": "sigS",
          "type": "bytes32"
        },
        {
          "internalType": "uint8",
          "name": "sigV",
          "type": "uint8"
        }
      ],
      "name": "executeMetaTransaction",
      "outputs": [
        {
          "internalType": "bytes",
          "name": "",
          "type": "bytes"
        }
      ],
      "stateMutability": "payable",
      "type": "function"
    },
    {
      "inputs": [],
      "name": "getChainId",
      "outputs": [
        {
          "internalType": "uint256",
          "name": "chainId",
          "type": "uint256"
        }
      ],
      "stateMutability": "view",
      "type": "function"
    },
    {
      "inputs": [
        {
          "internalType": "bytes32",
          "name": "role",
          "type": "bytes32"
        }
      ],
      "name": "getRoleAdmin",
      "outputs": [
        {
          "internalType": "bytes32",
          "name": "",
          "type": "bytes32"
        }
      ],
      "stateMutability": "view",
      "type": "function"
    },
    {
      "inputs": [
        {
          "internalType": "bytes32",
          "name": "role",
          "type": "bytes32"
        },
        {
          "internalType": "uint256",
          "name": "index",
          "type": "uint256"
        }
      ],
      "name": "getRoleMember",
      "outputs": [
        {
          "internalType": "address",
          "name": "",
          "type": "address"
        }
      ],
      "stateMutability": "view",
      "type": "function"
    },
    {
      "inputs": [
        {
          "internalType": "bytes32",
          "name": "role",
          "type": "bytes32"
        }
      ],
      "name": "getRoleMemberCount",
      "outputs": [
        {
          "internalType": "uint256",
          "name": "",
          "type": "uint256"
        }
      ],
      "stateMutability": "view",
      "type": "function"
    },
    {
      "inputs": [
        {
          "internalType": "bytes32",
          "name": "role",
          "type": "bytes32"
        },
        {
          "internalType": "address",
          "name": "account",
          "type": "address"
        }
      ],
      "name": "grantRole",
      "outputs": [],
      "stateMutability": "nonpayable",
      "type": "function"
    },
    {
      "inputs": [
        {
          "internalType": "bytes32",
          "name": "role",
          "type": "bytes32"
        },
        {
          "internalType": "address",
          "name": "account",
          "type": "address"
        }
      ],
      "name": "hasRole",
      "outputs": [
        {
          "internalType": "bool",
          "name": "",
          "type": "bool"
        }
      ],
      "stateMutability": "view",
      "type": "function"
    },
    {
      "inputs": [
        {
          "internalType": "address",
          "name": "spender",
          "type": "address"
        },
        {
          "internalType": "uint256",
          "name": "addedValue",
          "type": "uint256"
        }
      ],
      "name": "increaseAllowance",
      "outputs": [
        {
          "internalType": "bool",
          "name": "",
          "type": "bool"
        }
      ],
      "stateMutability": "nonpayable",
      "type": "function"
    },
    {
      "inputs": [
        {
          "internalType": "address",
          "name": "owner",
          "type": "address"
        },
        {
          "internalType": "address",
          "name": "spender",
          "type": "address"
        },
        {
          "internalType": "uint256",
          "name": "increment",
          "type": "uint256"
        },
        {
          "internalType": "uint256",
          "name": "validAfter",
          "type": "uint256"
        },
        {
          "internalType": "uint256",
          "name": "validBefore",
          "type": "uint256"
        },
        {
          "internalType": "bytes32",
          "name": "nonce",
          "type": "bytes32"
        },
        {
          "internalType": "uint8",
          "name": "v",
          "type": "uint8"
        },
        {
          "internalType": "bytes32",
          "name": "r",
          "type": "bytes32"
        },
        {
          "internalType": "bytes32",
          "name": "s",
          "type": "bytes32"
        }
      ],
      "name": "increaseAllowanceWithAuthorization",
      "outputs": [],
      "stateMutability": "nonpayable",
      "type": "function"
    },
    {
      "inputs": [
        {
          "internalType": "string",
          "name": "newName",
          "type": "string"
        },
        {
          "internalType": "string",
          "name": "newSymbol",
          "type": "string"
        },
        {
          "internalType": "uint8",
          "name": "newDecimals",
          "type": "uint8"
        },
        {
          "internalType": "address",
          "name": "childChainManager",
          "type": "address"
        }
      ],
      "name": "initialize",
      "outputs": [],
      "stateMutability": "nonpayable",
      "type": "function"
    },
    {
      "inputs": [],
      "name": "initialized",
      "outputs": [
        {
          "internalType": "bool",
          "name": "",
          "type": "bool"
        }
      ],
      "stateMutability": "view",
      "type": "function"
    },
    {
      "inputs": [
        {
          "internalType": "address",
          "name": "account",
          "type": "address"
        }
      ],
      "name": "isBlacklisted",
      "outputs": [
        {
          "internalType": "bool",
          "name": "",
          "type": "bool"
        }
      ],
      "stateMutability": "view",
      "type": "function"
    },
    {
      "inputs": [
        {
          "internalType": "address",
          "name": "_to",
          "type": "address"
        },
        {
          "internalType": "uint256",
          "name": "_amount",
          "type": "uint256"
        }
      ],
      "name": "mint",
      "outputs": [],
      "stateMutability": "nonpayable",
      "type": "function"
    },
    {
      "inputs": [],
      "name": "name",
      "outputs": [
        {
          "internalType": "string",
          "name": "",
          "type": "string"
        }
      ],
      "stateMutability": "view",
      "type": "function"
    },
    {
      "inputs": [
        {
          "internalType": "address",
          "name": "owner",
          "type": "address"
        }
      ],
      "name": "nonces",
      "outputs": [
        {
          "internalType": "uint256",
          "name": "",
          "type": "uint256"
        }
      ],
      "stateMutability": "view",
      "type": "function"
    },
    {
      "inputs": [],
      "name": "pause",
      "outputs": [],
      "stateMutability": "nonpayable",
      "type": "function"
    },
    {
      "inputs": [],
      "name": "paused",
      "outputs": [
        {
          "internalType": "bool",
          "name": "",
          "type": "bool"
        }
      ],
      "stateMutability": "view",
      "type": "function"
    },
    {
      "inputs": [],
      "name": "pausers",
      "outputs": [
        {
          "internalType": "address[]",
          "name": "",
          "type": "address[]"
        }
      ],
      "stateMutability": "view",
      "type": "function"
    },
    {
      "inputs": [
        {
          "internalType": "address",
          "name": "owner",
          "type": "address"
        },
        {
          "internalType": "address",
          "name": "spender",
          "type": "address"
        },
        {
          "internalType": "uint256",
          "name": "value",
          "type": "uint256"
        },
        {
          "internalType": "uint256",
          "name": "deadline",
          "type": "uint256"
        },
        {
          "internalType": "uint8",
          "name": "v",
          "type": "uint8"
        },
        {
          "internalType": "bytes32",
          "name": "r",
          "type": "bytes32"
        },
        {
          "internalType": "bytes32",
          "name": "s",
          "type": "bytes32"
        }
      ],
      "name": "permit",
      "outputs": [],
      "stateMutability": "nonpayable",
      "type": "function"
    },
    {
      "inputs": [
        {
          "internalType": "bytes32",
          "name": "role",
          "type": "bytes32"
        },
        {
          "internalType": "address",
          "name": "account",
          "type": "address"
        }
      ],
      "name": "renounceRole",
      "outputs": [],
      "stateMutability": "nonpayable",
      "type": "function"
    },
    {
      "inputs": [
        {
          "internalType": "contract IERC20",
          "name": "tokenContract",
          "type": "address"
        },
        {
          "internalType": "address",
          "name": "to",
          "type": "address"
        },
        {
          "internalType": "uint256",
          "name": "amount",
          "type": "uint256"
        }
      ],
      "name": "rescueERC20",
      "outputs": [],
      "stateMutability": "nonpayable",
      "type": "function"
    },
    {
      "inputs": [],
      "name": "rescuers",
      "outputs": [
        {
          "internalType": "address[]",
          "name": "",
          "type": "address[]"
        }
      ],
      "stateMutability": "view",
      "type": "function"
    },
    {
      "inputs": [
        {
          "internalType": "bytes32",
          "name": "role",
          "type": "bytes32"
        },
        {
          "internalType": "address",
          "name": "account",
          "type": "address"
        }
      ],
      "name": "revokeRole",
      "outputs": [],
      "stateMutability": "nonpayable",
      "type": "function"
    },
    {
      "inputs": [],
      "name": "symbol",
      "outputs": [
        {
          "internalType": "string",
          "name": "",
          "type": "string"
        }
      ],
      "stateMutability": "view",
      "type": "function"
    },
    {
      "inputs": [],
      "name": "totalSupply",
      "outputs": [
        {
          "internalType": "uint256",
          "name": "",
          "type": "uint256"
        }
      ],
      "stateMutability": "view",
      "type": "function"
    },
    {
      "inputs": [
        {
          "internalType": "address",
          "name": "recipient",
          "type": "address"
        },
        {
          "internalType": "uint256",
          "name": "amount",
          "type": "uint256"
        }
      ],
      "name": "transfer",
      "outputs": [
        {
          "internalType": "bool",
          "name": "",
          "type": "bool"
        }
      ],
      "stateMutability": "nonpayable",
      "type": "function"
    },
    {
      "inputs": [
        {
          "internalType": "address",
          "name": "sender",
          "type": "address"
        },
        {
          "internalType": "address",
          "name": "recipient",
          "type": "address"
        },
        {
          "internalType": "uint256",
          "name": "amount",
          "type": "uint256"
        }
      ],
      "name": "transferFrom",
      "outputs": [
        {
          "internalType": "bool",
          "name": "",
          "type": "bool"
        }
      ],
      "stateMutability": "nonpayable",
      "type": "function"
    },
    {
      "inputs": [
        {
          "internalType": "address",
          "name": "from",
          "type": "address"
        },
        {
          "internalType": "address",
          "name": "to",
          "type": "address"
        },
        {
          "internalType": "uint256",
          "name": "value",
          "type": "uint256"
        },
        {
          "internalType": "uint256",
          "name": "validAfter",
          "type": "uint256"
        },
        {
          "internalType": "uint256",
          "name": "validBefore",
          "type": "uint256"
        },
        {
          "internalType": "bytes32",
          "name": "nonce",
          "type": "bytes32"
        },
        {
          "internalType": "uint8",
          "name": "v",
          "type": "uint8"
        },
        {
          "internalType": "bytes32",
          "name": "r",
          "type": "bytes32"
        },
        {
          "internalType": "bytes32",
          "name": "s",
          "type": "bytes32"
        }
      ],
      "name": "transferWithAuthorization",
      "outputs": [],
      "stateMutability": "nonpayable",
      "type": "function"
    },
    {
      "inputs": [
        {
          "internalType": "address",
          "name": "account",
          "type": "address"
        }
      ],
      "name": "unBlacklist",
      "outputs": [],
      "stateMutability": "nonpayable",
      "type": "function"
    },
    {
      "inputs": [],
      "name": "unpause",
      "outputs": [],
      "stateMutability": "nonpayable",
      "type": "function"
    },
    {
      "inputs": [
        {
          "internalType": "string",
          "name": "newName",
          "type": "string"
        },
        {
          "internalType": "string",
          "name": "newSymbol",
          "type": "string"
        }
      ],
      "name": "updateMetadata",
      "outputs": [],
      "stateMutability": "nonpayable",
      "type": "function"
    },
    {
      "inputs": [
        {
          "internalType": "uint256",
          "name": "amount",
          "type": "uint256"
        }
      ],
      "name": "withdraw",
      "outputs": [],
      "stateMutability": "nonpayable",
      "type": "function"
    },
    {
      "inputs": [
        {
          "internalType": "address",
          "name": "owner",
          "type": "address"
        },
        {
          "internalType": "uint256",
          "name": "value",
          "type": "uint256"
        },
        {
          "internalType": "uint256",
          "name": "validAfter",
          "type": "uint256"
        },
        {
          "internalType": "uint256",
          "name": "validBefore",
          "type": "uint256"
        },
        {
          "internalType": "bytes32",
          "name": "nonce",
          "type": "bytes32"
        },
        {
          "internalType": "uint8",
          "name": "v",
          "type": "uint8"
        },
        {
          "internalType": "bytes32",
          "name": "r",
          "type": "bytes32"
        },
        {
          "internalType": "bytes32",
          "name": "s",
          "type": "bytes32"
        }
      ],
      "name": "withdrawWithAuthorization",
      "outputs": [],
      "stateMutability": "nonpayable",
      "type": "function"
    }
  ],
  "bytecode": "0x60806040526008805460ff19908116909155600d805490911690553480156200002757600080fd5b5060408051602080820180845260008084528451928301909452928152815191929091620000589160039162000084565b5080516200006e90600490602084019062000084565b50506005805460ff191660121790555062000120565b828054600181600116156101000203166002900490600052602060002090601f016020900481019282601f10620000c757805160ff1916838001178555620000f7565b82800160010185558215620000f7579182015b82811115620000f7578251825591602001919060010190620000da565b506200010592915062000109565b5090565b5b808211156200010557600081556001016200010a565b614ba180620001306000396000f3fe6080604052600436106102a75760003560e01c806306fdde03146102ac578063095ea7b3146103365780630c53c51c14610383578063100a15601461044557806310c8b404146104aa578063158ef93e146104d157806318160ddd146104e65780631a895266146104fb5780632004d2911461053057806323b872dd14610545578063248a9ca3146105885780632e1a7d4d146105b25780632f2ff15d146105dc57806330adf81f14610615578063313ce5671461062a5780633408e470146106555780633644e5151461066a57806336568abe1461067f57806339509351146106b85780633f4ba83a146106f157806340c10f19146107065780634b71f5c31461073f57806356ce0e6c146107545780635a049a701461081f5780635c975abb1461086d57806370a082311461088257806371372544146108b55780637b766e5f146108ca5780637cfa1cfa1461092b5780637ecebe00146109405780638456cb59146109735780639010d07c1461098857806391d14854146109d457806395d89b4114610a0d578063a0cc6a6814610a22578063a217fddf14610a37578063a3b0b5a314610a4c578063a457c2d714610a61578063a9059cbb14610a9a578063b008609514610ad3578063b2118a8d14610b3f578063c237108f14610b82578063c7b84f8d14610bee578063ca15c87314610c03578063cf2c52cb14610c2d578063d505accf14610cb8578063d547741f14610d16578063d916948714610d4f578063dd62ed3e14610d64578063de7ea79d14610d9f578063e1560fd314610e7c578063e3ee160e14610ee8578063e63ab1e914610f54578063e8d6fc4714610f69578063e94a010214610f7e578063eccec5a814610fd8578063f515e6f214610fed578063f9f92be414611002578063fa2c322d14611035578063fe575a871461104a575b600080fd5b3480156102b857600080fd5b506102c161107d565b6040805160208082528351818301528351919283929083019185019080838360005b838110156102fb5781810151838201526020016102e3565b50505050905090810190601f1680156103285780820380516001836020036101000a031916815260200191505b509250505060405180910390f35b34801561034257600080fd5b5061036f6004803603604081101561035957600080fd5b506001600160a01b038135169060200135611114565b604080519115158252519081900360200190f35b6102c1600480360360a081101561039957600080fd5b6001600160a01b038235169190810190604081016020820135600160201b8111156103c357600080fd5b8201836020820111156103d557600080fd5b803590602001918460018302840111600160201b831117156103f657600080fd5b91908080601f016020809104026020016040519081016040528093929190818152602001838380828437600092019190915250929550508235935050506020810135906040013560ff16611234565b34801561045157600080fd5b5061045a6114fb565b60408051602080825283518183015283519192839290830191858101910280838360005b8381101561049657818101518382015260200161047e565b505050509050019250505060405180910390f35b3480156104b657600080fd5b506104bf6115b3565b60408051918252519081900360200190f35b3480156104dd57600080fd5b5061036f6115c5565b3480156104f257600080fd5b506104bf6115ce565b34801561050757600080fd5b5061052e6004803603602081101561051e57600080fd5b50356001600160a01b03166115d4565b005b34801561053c57600080fd5b506104bf6116df565b34801561055157600080fd5b5061036f6004803603606081101561056857600080fd5b506001600160a01b038135811691602081013590911690604001356116f1565b34801561059457600080fd5b506104bf600480360360208110156105ab57600080fd5b5035611866565b3480156105be57600080fd5b5061052e600480360360208110156105d557600080fd5b503561187b565b3480156105e857600080fd5b5061052e600480360360408110156105ff57600080fd5b50803590602001356001600160a01b03166118f0565b34801561062157600080fd5b506104bf611953565b34801561063657600080fd5b5061063f611965565b6040805160ff9092168252519081900360200190f35b34801561066157600080fd5b506104bf61196e565b34801561067657600080fd5b506104bf611972565b34801561068b57600080fd5b5061052e600480360360408110156106a257600080fd5b50803590602001356001600160a01b0316611978565b3480156106c457600080fd5b5061036f600480360360408110156106db57600080fd5b506001600160a01b0381351690602001356119d9565b3480156106fd57600080fd5b5061052e611aee565b34801561071257600080fd5b5061052e6004803603604081101561072957600080fd5b506001600160a01b038135169060200135611ba6565b34801561074b57600080fd5b506104bf611bb0565b34801561076057600080fd5b5061052e6004803603604081101561077757600080fd5b810190602081018135600160201b81111561079157600080fd5b8201836020820111156107a357600080fd5b803590602001918460018302840111600160201b831117156107c457600080fd5b919390929091602081019035600160201b8111156107e157600080fd5b8201836020820111156107f357600080fd5b803590602001918460018302840111600160201b8311171561081457600080fd5b509092509050611bc2565b34801561082b57600080fd5b5061052e600480360360a081101561084257600080fd5b506001600160a01b038135169060208101359060ff6040820135169060608101359060800135611d14565b34801561087957600080fd5b5061036f611d67565b34801561088e57600080fd5b506104bf600480360360208110156108a557600080fd5b50356001600160a01b0316611d70565b3480156108c157600080fd5b506104bf611d8b565b3480156108d657600080fd5b5061052e60048036036101008110156108ee57600080fd5b506001600160a01b038135169060208101359060408101359060608101359060808101359060ff60a0820135169060c08101359060e00135611d9d565b34801561093757600080fd5b5061045a611e58565b34801561094c57600080fd5b506104bf6004803603602081101561096357600080fd5b50356001600160a01b0316611f09565b34801561097f57600080fd5b5061052e611f24565b34801561099457600080fd5b506109b8600480360360408110156109ab57600080fd5b5080359060200135611fdf565b604080516001600160a01b039092168252519081900360200190f35b3480156109e057600080fd5b5061036f600480360360408110156109f757600080fd5b50803590602001356001600160a01b0316612000565b348015610a1957600080fd5b506102c1612018565b348015610a2e57600080fd5b506104bf612079565b348015610a4357600080fd5b506104bf61208b565b348015610a5857600080fd5b506104bf612090565b348015610a6d57600080fd5b5061036f60048036036040811015610a8457600080fd5b506001600160a01b0381351690602001356120a2565b348015610aa657600080fd5b5061036f60048036036040811015610abd57600080fd5b506001600160a01b0381351690602001356121b7565b348015610adf57600080fd5b5061052e6004803603610120811015610af757600080fd5b506001600160a01b03813581169160208101359091169060408101359060608101359060808101359060a08101359060ff60c0820135169060e08101359061010001356122cc565b348015610b4b57600080fd5b5061052e60048036036060811015610b6257600080fd5b506001600160a01b038135811691602081013590911690604001356123e4565b348015610b8e57600080fd5b5061052e6004803603610120811015610ba657600080fd5b506001600160a01b03813581169160208101359091169060408101359060608101359060808101359060a08101359060ff60c0820135169060e0810135906101000135612480565b348015610bfa57600080fd5b506104bf61258b565b348015610c0f57600080fd5b506104bf60048036036020811015610c2657600080fd5b503561259d565b348015610c3957600080fd5b5061052e60048036036040811015610c5057600080fd5b6001600160a01b038235169190810190604081016020820135600160201b811115610c7a57600080fd5b820183602082011115610c8c57600080fd5b803590602001918460018302840111600160201b83111715610cad57600080fd5b5090925090506125b4565b348015610cc457600080fd5b5061052e600480360360e0811015610cdb57600080fd5b506001600160a01b03813581169160208101359091169060408101359060608101359060ff6080820135169060a08101359060c00135612656565b348015610d2257600080fd5b5061052e60048036036040811015610d3957600080fd5b50803590602001356001600160a01b031661275f565b348015610d5b57600080fd5b506104bf6127b8565b348015610d7057600080fd5b506104bf60048036036040811015610d8757600080fd5b506001600160a01b03813581169160200135166127ca565b348015610dab57600080fd5b5061052e60048036036080811015610dc257600080fd5b810190602081018135600160201b811115610ddc57600080fd5b820183602082011115610dee57600080fd5b803590602001918460018302840111600160201b83111715610e0f57600080fd5b919390929091602081019035600160201b811115610e2c57600080fd5b820183602082011115610e3e57600080fd5b803590602001918460018302840111600160201b83111715610e5f57600080fd5b9193509150803560ff1690602001356001600160a01b03166127f5565b348015610e8857600080fd5b5061052e6004803603610120811015610ea057600080fd5b506001600160a01b03813581169160208101359091169060408101359060608101359060808101359060a08101359060ff60c0820135169060e0810135906101000135612964565b348015610ef457600080fd5b5061052e6004803603610120811015610f0c57600080fd5b506001600160a01b03813581169160208101359091169060408101359060608101359060808101359060a08101359060ff60c0820135169060e0810135906101000135612a6f565b348015610f6057600080fd5b506104bf612b7a565b348015610f7557600080fd5b5061045a612b8c565b348015610f8a57600080fd5b50610fb760048036036040811015610fa157600080fd5b506001600160a01b038135169060200135612c3d565b60405180826002811115610fc757fe5b815260200191505060405180910390f35b348015610fe457600080fd5b506102c1612c68565b348015610ff957600080fd5b506104bf612c85565b34801561100e57600080fd5b5061052e6004803603602081101561102557600080fd5b50356001600160a01b0316612c97565b34801561104157600080fd5b506104bf612d66565b34801561105657600080fd5b5061036f6004803603602081101561106d57600080fd5b50356001600160a01b0316612d78565b60038054604080516020601f60026000196101006001881615020190951694909404938401819004810282018101909252828152606093909290918301828280156111095780601f106110de57610100808354040283529160200191611109565b820191906000526020600020905b8154815290600101906020018083116110ec57829003601f168201915b505050505090505b90565b600d5460009060ff161561115d576040805162461bcd60e51b81526020600482015260106024820152600080516020614a3a833981519152604482015290519081900360640190fd5b611165612d96565b6001600160a01b0381166000908152600c602052604090205460ff16156111bd5760405162461bcd60e51b8152600401808060200182810382526025815260200180614b1c6025913960400191505060405180910390fd5b6001600160a01b0384166000908152600c6020526040902054849060ff16156112175760405162461bcd60e51b8152600401808060200182810382526025815260200180614b1c6025913960400191505060405180910390fd5b611229611222612d96565b8686612da5565b506001949350505050565b606061123e61459a565b50604080516060810182526001600160a01b0388166000818152600a60209081529084902080546001810190915583528201529081018690526112848782878787612e91565b6112bf5760405162461bcd60e51b81526004018080602001828103825260218152602001806149736021913960400191505060405180910390fd5b7f5845892132946850460bff5a0083f71031bc5bf9aadcd40f1de79423eac9b10b87338860405180846001600160a01b03168152602001836001600160a01b0316815260200180602001828103825283818151815260200191508051906020019080838360005b8381101561133e578181015183820152602001611326565b50505050905090810190601f16801561136b5780820380516001836020036101000a031916815260200191505b5094505050505060405180910390a160006060306001600160a01b0316888a6040516020018083805190602001908083835b602083106113bc5780518252601f19909201916020918201910161139d565b6001836020036101000a038019825116818451168082178552505050505050905001826001600160a01b031660601b8152601401925050506040516020818303038152906040526040518082805190602001908083835b602083106114325780518252601f199092019160209182019101611413565b6001836020036101000a0380198251168184511680821785525050505050509050019150506000604051808303816000865af19150503d8060008114611494576040519150601f19603f3d011682016040523d82523d6000602084013e611499565b606091505b5091509150816114ef576040805162461bcd60e51b815260206004820152601c60248201527b119d5b98dd1a5bdb8818d85b1b081b9bdd081cdd58d8d95cdcd99d5b60221b604482015290519081900360640190fd5b98975050505050505050565b6060600061151660008051602061469d83398151915261259d565b90506060816001600160401b038111801561153057600080fd5b5060405190808252806020026020018201604052801561155a578160200160208202803683370190505b50905060005b828110156115ac5761158060008051602061469d83398151915282611fdf565b82828151811061158c57fe5b6001600160a01b0390921660209283029190910190910152600101611560565b5091505090565b6000805160206147cd83398151915281565b60085460ff1690565b60025490565b6000805160206149948339815191526115f4816115ef612d96565b612000565b6007906116945760405162461bcd60e51b81526020600482019081528254600260001961010060018416150201909116046024830181905290918291604490910190849080156116855780601f1061165a57610100808354040283529160200191611685565b820191906000526020600020905b81548152906001019060200180831161166857829003601f168201915b50509250505060405180910390fd5b506001600160a01b0382166000818152600c6020526040808220805460ff19169055517f117e3210bb9aa7d9baff172026820255c6f6c30ba8999d1c2fd88e2848137c4e9190a25050565b600080516020614ad283398151915281565b600d5460009060ff161561173a576040805162461bcd60e51b81526020600482015260106024820152600080516020614a3a833981519152604482015290519081900360640190fd5b611742612d96565b6001600160a01b0381166000908152600c602052604090205460ff161561179a5760405162461bcd60e51b8152600401808060200182810382526025815260200180614b1c6025913960400191505060405180910390fd5b6001600160a01b0385166000908152600c6020526040902054859060ff16156117f45760405162461bcd60e51b8152600401808060200182810382526025815260200180614b1c6025913960400191505060405180910390fd5b6001600160a01b0385166000908152600c6020526040902054859060ff161561184e5760405162461bcd60e51b8152600401808060200182810382526025815260200180614b1c6025913960400191505060405180910390fd5b611859878787612f6f565b5060019695505050505050565b60009081526006602052604090206002015490565b611883612d96565b6001600160a01b0381166000908152600c602052604090205460ff16156118db5760405162461bcd60e51b8152600401808060200182810382526025815260200180614b1c6025913960400191505060405180910390fd5b6118ec6118e6612d96565b83612fef565b5050565b60008281526006602052604090206002015461190e906115ef612d96565b6119495760405162461bcd60e51b815260040180806020018281038252602f8152602001806146bd602f913960400191505060405180910390fd5b6118ec82826130d9565b6000805160206149f583398151915281565b60055460ff1690565b4690565b60095481565b611980612d96565b6001600160a01b0316816001600160a01b0316146119cf5760405162461bcd60e51b815260040180806020018281038252602f815260200180614b66602f913960400191505060405180910390fd5b6118ec8282613142565b600d5460009060ff1615611a22576040805162461bcd60e51b81526020600482015260106024820152600080516020614a3a833981519152604482015290519081900360640190fd5b611a2a612d96565b6001600160a01b0381166000908152600c602052604090205460ff1615611a825760405162461bcd60e51b8152600401808060200182810382526025815260200180614b1c6025913960400191505060405180910390fd5b6001600160a01b0384166000908152600c6020526040902054849060ff1615611adc5760405162461bcd60e51b8152600401808060200182810382526025815260200180614b1c6025913960400191505060405180910390fd5b611229611ae7612d96565b86866131ab565b600080516020614953833981519152611b09816115ef612d96565b600790611b6f5760405162461bcd60e51b81526020600482019081528254600260001961010060018416150201909116046024830181905290918291604490910190849080156116855780601f1061165a57610100808354040283529160200191611685565b50600d805460ff191690556040517f7805862f689e2f13df9f062ff482ad3ad112aca9e0847911ed832e158c525b3390600090a150565b6118ec82826131e3565b60008051602061488a83398151915281565b6000611bd0816115ef612d96565b600790611c365760405162461bcd60e51b81526020600482019081528254600260001961010060018416150201909116046024830181905290918291604490910190849080156116855780601f1061165a57610100808354040283529160200191611685565b50611c7685858080601f0160208091040260200160405190810160405280939291908181526020018383808284376000920191909152506132c192505050565b611cb583838080601f0160208091040260200160405190810160405280939291908181526020018383808284376000920191909152506132d492505050565b611d0d85858080601f016020809104026020016040519081016040528093929190818152602001838380828437600092019190915250506040805180820190915260018152603160f81b602082015291506132e79050565b5050505050565b600d5460ff1615611d5a576040805162461bcd60e51b81526020600482015260106024820152600080516020614a3a833981519152604482015290519081900360640190fd5b611d0d85858585856132f8565b600d5460ff1690565b6001600160a01b031660009081526020819052604090205490565b60008051602061469d83398151915281565b600d5460ff1615611de3576040805162461bcd60e51b81526020600482015260106024820152600080516020614a3a833981519152604482015290519081900360640190fd5b6001600160a01b0388166000908152600c6020526040902054889060ff1615611e3d5760405162461bcd60e51b8152600401808060200182810382526025815260200180614b1c6025913960400191505060405180910390fd5b611e4d89898989898989896133fa565b505050505050505050565b60606000611e7360008051602061499483398151915261259d565b90506060816001600160401b0381118015611e8d57600080fd5b50604051908082528060200260200182016040528015611eb7578160200160208202803683370190505b50905060005b828110156115ac57611edd60008051602061499483398151915282611fdf565b828281518110611ee957fe5b6001600160a01b0390921660209283029190910190910152600101611ebd565b6001600160a01b03166000908152600a602052604090205490565b600080516020614953833981519152611f3f816115ef612d96565b600790611fa55760405162461bcd60e51b81526020600482019081528254600260001961010060018416150201909116046024830181905290918291604490910190849080156116855780601f1061165a57610100808354040283529160200191611685565b50600d805460ff191660011790556040517f6985a02210a168e66602d3235cb6db0e70f92b3ba4d376a33c0f3d9434bff62590600090a150565b6000828152600660205260408120611ff790836134c9565b90505b92915050565b6000828152600660205260408120611ff790836134d5565b60048054604080516020601f60026000196101006001881615020190951694909404938401819004810282018101909252828152606093909290918301828280156111095780601f106110de57610100808354040283529160200191611109565b60008051602061473483398151915281565b600081565b6000805160206148ca83398151915281565b600d5460009060ff16156120eb576040805162461bcd60e51b81526020600482015260106024820152600080516020614a3a833981519152604482015290519081900360640190fd5b6120f3612d96565b6001600160a01b0381166000908152600c602052604090205460ff161561214b5760405162461bcd60e51b8152600401808060200182810382526025815260200180614b1c6025913960400191505060405180910390fd5b6001600160a01b0384166000908152600c6020526040902054849060ff16156121a55760405162461bcd60e51b8152600401808060200182810382526025815260200180614b1c6025913960400191505060405180910390fd5b6112296121b0612d96565b86866134ea565b600d5460009060ff1615612200576040805162461bcd60e51b81526020600482015260106024820152600080516020614a3a833981519152604482015290519081900360640190fd5b612208612d96565b6001600160a01b0381166000908152600c602052604090205460ff16156122605760405162461bcd60e51b8152600401808060200182810382526025815260200180614b1c6025913960400191505060405180910390fd5b6001600160a01b0384166000908152600c6020526040902054849060ff16156122ba5760405162461bcd60e51b8152600401808060200182810382526025815260200180614b1c6025913960400191505060405180910390fd5b6112296122c5612d96565b8686613539565b600d5460ff1615612312576040805162461bcd60e51b81526020600482015260106024820152600080516020614a3a833981519152604482015290519081900360640190fd5b6001600160a01b0389166000908152600c6020526040902054899060ff161561236c5760405162461bcd60e51b8152600401808060200182810382526025815260200180614b1c6025913960400191505060405180910390fd5b6001600160a01b0389166000908152600c6020526040902054899060ff16156123c65760405162461bcd60e51b8152600401808060200182810382526025815260200180614b1c6025913960400191505060405180910390fd5b6123d78b8b8b8b8b8b8b8b8b613682565b5050505050505050505050565b60008051602061469d8339815191526123ff816115ef612d96565b6007906124655760405162461bcd60e51b81526020600482019081528254600260001961010060018416150201909116046024830181905290918291604490910190849080156116855780601f1061165a57610100808354040283529160200191611685565b5061247a6001600160a01b0385168484613768565b50505050565b600d5460ff16156124c6576040805162461bcd60e51b81526020600482015260106024820152600080516020614a3a833981519152604482015290519081900360640190fd5b6001600160a01b0389166000908152600c6020526040902054899060ff16156125205760405162461bcd60e51b8152600401808060200182810382526025815260200180614b1c6025913960400191505060405180910390fd5b6001600160a01b0389166000908152600c6020526040902054899060ff161561257a5760405162461bcd60e51b8152600401808060200182810382526025815260200180614b1c6025913960400191505060405180910390fd5b6123d78b8b8b8b8b8b8b8b8b6137ba565b6000805160206148aa83398151915281565b6000818152600660205260408120611ffa90613894565b6000805160206148ca8339815191526125cf816115ef612d96565b6007906126355760405162461bcd60e51b81526020600482019081528254600260001961010060018416150201909116046024830181905290918291604490910190849080156116855780601f1061165a57610100808354040283529160200191611685565b5060008383602081101561264857600080fd5b50359050611d0d85826131e3565b600d5460ff161561269c576040805162461bcd60e51b81526020600482015260106024820152600080516020614a3a833981519152604482015290519081900360640190fd5b6001600160a01b0387166000908152600c6020526040902054879060ff16156126f65760405162461bcd60e51b8152600401808060200182810382526025815260200180614b1c6025913960400191505060405180910390fd5b6001600160a01b0387166000908152600c6020526040902054879060ff16156127505760405162461bcd60e51b8152600401808060200182810382526025815260200180614b1c6025913960400191505060405180910390fd5b611e4d8989898989898961389f565b60008281526006602052604090206002015461277d906115ef612d96565b6119cf5760405162461bcd60e51b81526004018080602001828103825260308152602001806148356030913960400191505060405180910390fd5b6000805160206147ed83398151915281565b6001600160a01b03918216600090815260016020908152604080832093909416825291909152205490565b60085460ff161561280557600080fd5b61284486868080601f0160208091040260200160405190810160405280939291908181526020018383808284376000920191909152506132c192505050565b61288384848080601f0160208091040260200160405190810160405280939291908181526020018383808284376000920191909152506132d492505050565b61288c82613a2f565b6128cd848460405160200180806410da1a5b1960da1b8152506005018383808284378083019250505092505050604051602081830303815290604052613a45565b6128df60006128da612d96565b611949565b6128f76000805160206148ca83398151915282611949565b61294f86868080601f016020809104026020016040519081016040528093929190818152602001838380828437600092019190915250506040805180820190915260018152603160f81b602082015291506132e79050565b50506008805460ff1916600117905550505050565b600d5460ff16156129aa576040805162461bcd60e51b81526020600482015260106024820152600080516020614a3a833981519152604482015290519081900360640190fd5b6001600160a01b0389166000908152600c6020526040902054899060ff1615612a045760405162461bcd60e51b8152600401808060200182810382526025815260200180614b1c6025913960400191505060405180910390fd5b6001600160a01b0389166000908152600c6020526040902054899060ff1615612a5e5760405162461bcd60e51b8152600401808060200182810382526025815260200180614b1c6025913960400191505060405180910390fd5b6123d78b8b8b8b8b8b8b8b8b613ae0565b600d5460ff1615612ab5576040805162461bcd60e51b81526020600482015260106024820152600080516020614a3a833981519152604482015290519081900360640190fd5b6001600160a01b0389166000908152600c6020526040902054899060ff1615612b0f5760405162461bcd60e51b8152600401808060200182810382526025815260200180614b1c6025913960400191505060405180910390fd5b6001600160a01b0389166000908152600c6020526040902054899060ff1615612b695760405162461bcd60e51b8152600401808060200182810382526025815260200180614b1c6025913960400191505060405180910390fd5b6123d78b8b8b8b8b8b8b8b8b613bba565b60008051602061495383398151915281565b60606000612ba760008051602061495383398151915261259d565b90506060816001600160401b0381118015612bc157600080fd5b50604051908082528060200260200182016040528015612beb578160200160208202803683370190505b50905060005b828110156115ac57612c1160008051602061495383398151915282611fdf565b828281518110612c1d57fe5b6001600160a01b0390921660209283029190910190910152600101612bf1565b6001600160a01b03919091166000908152600b60209081526040808320938352929052205460ff1690565b604051806040016040528060018152602001603160f81b81525081565b60008051602061499483398151915281565b600080516020614994833981519152612cb2816115ef612d96565b600790612d185760405162461bcd60e51b81526020600482019081528254600260001961010060018416150201909116046024830181905290918291604490910190849080156116855780601f1061165a57610100808354040283529160200191611685565b506001600160a01b0382166000818152600c6020526040808220805460ff19166001179055517fffa4e6181777692565cf28528fc88fd1516ea86b56da075235fa575af6a4b8559190a25050565b60008051602061490b83398151915281565b6001600160a01b03166000908152600c602052604090205460ff1690565b6000612da0613c94565b905090565b6001600160a01b038316612dea5760405162461bcd60e51b8152600401808060200182810382526024815260200180614a886024913960400191505060405180910390fd5b6001600160a01b038216612e2f5760405162461bcd60e51b81526004018080602001828103825260228152602001806147546022913960400191505060405180910390fd5b6001600160a01b03808416600081815260016020908152604080832094871680845294825291829020859055815185815291517f8c5be1e5ebec7d5bd14f71427d1e84f3dd0314c0f7b2291e5b200ac8c7c3b9259281900390910190a3505050565b60006001600160a01b038616612ed85760405162461bcd60e51b81526004018080602001828103825260258152602001806148656025913960400191505060405180910390fd5b606060008051602061490b83398151915260001b8660000151876020015188604001518051906020012060405160200180858152602001848152602001836001600160a01b031681526020018281526020019450505050506040516020818303038152906040529050866001600160a01b0316612f5a60095485888886613cf1565b6001600160a01b031614979650505050505050565b612f7a838383613539565b612fea83612f86612d96565b612fe58460405180606001604052806028815260200161492b602891396001600160a01b038916600090815260016020526040812090612fc4612d96565b6001600160a01b031681526020810191909152604001600020549190613d48565b612da5565b505050565b6001600160a01b0382166130345760405162461bcd60e51b81526004018080602001828103825260218152602001806149d46021913960400191505060405180910390fd5b61304082600083612fea565b61307d816040518060600160405280602281526020016146ec602291396001600160a01b0385166000908152602081905260409020549190613d48565b6001600160a01b0383166000908152602081905260409020556002546130a39082613ddf565b6002556040805182815290516000916001600160a01b038516916000805160206149b48339815191529181900360200190a35050565b60008281526006602052604090206130f19082613e21565b156118ec576130fe612d96565b6001600160a01b0316816001600160a01b0316837f2f8788117e7eff1d82e926ec794901d17c78024a50270940304540a733656f0d60405160405180910390a45050565b600082815260066020526040902061315a9082613e36565b156118ec57613167612d96565b6001600160a01b0316816001600160a01b0316837ff6391f5c32d9c69d2a47ea670b442974b53935d1edc7fd64eb21e047a839171b60405160405180910390a45050565b6001600160a01b03808416600090815260016020908152604080832093861683529290522054612fea9084908490612fe59085613e4b565b6001600160a01b03821661323e576040805162461bcd60e51b815260206004820152601f60248201527f45524332303a206d696e7420746f20746865207a65726f206164647265737300604482015290519081900360640190fd5b61324a60008383612fea565b6002546132579082613e4b565b6002556001600160a01b03821660009081526020819052604090205461327d9082613e4b565b6001600160a01b0383166000818152602081815260408083209490945583518581529351929391926000805160206149b48339815191529281900390910190a35050565b80516118ec9060039060208401906145c4565b80516118ec9060049060208401906145c4565b6132f18282613ea3565b6009555050565b6133028585613f15565b604080516000805160206147ed83398151915260208201526001600160a01b03871681830181905260608281018890528351808403909101815260809092019092526009549091906133579086868686613cf1565b6001600160a01b03161461339c5760405162461bcd60e51b81526004018080602001828103825260218152602001806148ea6021913960400191505060405180910390fd5b6001600160a01b0386166000818152600b60209081526040808320898452909152808220805460ff19166002179055518792917f1cdd46ff242716cdaa72d159d339a485b3438398348d68f09d7c8c0a59353d8191a3505050505050565b61340688858888613f83565b60408051600080516020614ad283398151915260208201526001600160a01b038a16818301819052606082018a90526080820189905260a0820188905260c08083018890528351808403909101815260e09092019092526009549091906134709086868686613cf1565b6001600160a01b0316146134b55760405162461bcd60e51b81526004018080602001828103825260218152602001806148ea6021913960400191505060405180910390fd5b6134bf8986614009565b611e4d8989612fef565b6000611ff78383614063565b6000611ff7836001600160a01b0384166140c7565b612fea8383612fe584604051806060016040528060258152602001614b41602591396001600160a01b03808a166000908152600160209081526040808320938c16835292905220549190613d48565b6001600160a01b03831661357e5760405162461bcd60e51b8152600401808060200182810382526025815260200180614a156025913960400191505060405180910390fd5b6001600160a01b0382166135c35760405162461bcd60e51b815260040180806020018281038252602381526020018061467a6023913960400191505060405180910390fd5b6135ce838383612fea565b61360b816040518060600160405280602681526020016147a7602691396001600160a01b0386166000908152602081905260409020549190613d48565b6001600160a01b03808516600090815260208190526040808220939093559084168152205461363a9082613e4b565b6001600160a01b038084166000818152602081815260409182902094909455805185815290519193928716926000805160206149b483398151915292918290030190a3505050565b61368e89858888613f83565b6040805160008051602061488a83398151915260208201526001600160a01b03808c16828401819052908b166060830152608082018a905260a0820189905260c0820188905260e0808301889052835180840390910181526101009092019092526009549091906137029086868686613cf1565b6001600160a01b0316146137475760405162461bcd60e51b81526004018080602001828103825260218152602001806148ea6021913960400191505060405180910390fd5b6137518a86614009565b61375c8a8a8a6134ea565b50505050505050505050565b604080516001600160a01b038416602482015260448082018490528251808303909101815260649091019091526020810180516001600160e01b031663a9059cbb60e01b179052612fea9084906140df565b6137c689858888613f83565b604080516000805160206148aa83398151915260208201526001600160a01b03808c16828401819052908b166060830152608082018a905260a0820189905260c0820188905260e08083018890528351808403909101815261010090920190925260095490919061383a9086868686613cf1565b6001600160a01b03161461387f5760405162461bcd60e51b81526004018080602001828103825260218152602001806148ea6021913960400191505060405180910390fd5b6138898a86614009565b61375c8a8a8a6131ab565b6000611ffa82614190565b333014156138ee576040805162461bcd60e51b815260206004820152601760248201527610d85b1b195c881a5cc81d1a1a5cc818dbdb9d1c9858dd604a1b604482015290519081900360640190fd5b4284101561393f576040805162461bcd60e51b815260206004820152601960248201527814195c9b5a5d0e881c195c9b5a5d081a5cc8195e1c1a5c9959603a1b604482015290519081900360640190fd5b6001600160a01b038088166000818152600a602090815260409182902080546001810190915582516000805160206149f583398151915292810192909252818301849052938a1660608201526080810189905260a081019390935260c08084018890528151808503909101815260e090930190526009546139c39086868686613cf1565b6001600160a01b031614613a1a576040805162461bcd60e51b81526020600482015260196024820152785065726d69743a20696e76616c6964207369676e617475726560381b604482015290519081900360640190fd5b613a25888888612da5565b5050505050505050565b6005805460ff191660ff92909216919091179055565b806040516020018082805190602001908083835b60208310613a785780518252601f199092019160209182019101613a59565b51815160209384036101000a6000190180199092169116179052793a20494e53554646494349454e545f5045524d495353494f4e5360301b9190930190815260408051808303600519018152601a909201905280516118ec95506007945092019190506145c4565b613aec89858888613f83565b604080516000805160206147cd83398151915260208201526001600160a01b03808c16828401819052908b166060830152608082018a905260a0820189905260c0820188905260e080830188905283518084039091018152610100909201909252600954909190613b609086868686613cf1565b6001600160a01b031614613ba55760405162461bcd60e51b81526004018080602001828103825260218152602001806148ea6021913960400191505060405180910390fd5b613baf8a86614009565b61375c8a8a8a612da5565b613bc689858888613f83565b6040805160008051602061473483398151915260208201526001600160a01b03808c16828401819052908b166060830152608082018a905260a0820189905260c0820188905260e080830188905283518084039091018152610100909201909252600954909190613c3a9086868686613cf1565b6001600160a01b031614613c7f5760405162461bcd60e51b81526004018080602001828103825260218152602001806148ea6021913960400191505060405180910390fd5b613c898a86614009565b61375c8a8a8a613539565b600033301415613cec5760606000368080601f0160208091040260200160405190810160405280939291908181526020018383808284376000920191909152505050503601516001600160a01b031691506111119050565b503390565b80516020808301919091206040805161190160f01b81850152602281018990526042808201939093528151808203909301835260620190528051910120600090613d3d81878787614194565b979650505050505050565b60008184841115613dd75760405162461bcd60e51b81526004018080602001828103825283818151815260200191508051906020019080838360005b83811015613d9c578181015183820152602001613d84565b50505050905090810190601f168015613dc95780820380516001836020036101000a031916815260200191505b509250505060405180910390fd5b505050900390565b6000611ff783836040518060400160405280601e81526020017f536166654d6174683a207375627472616374696f6e206f766572666c6f770000815250613d48565b6000611ff7836001600160a01b03841661430d565b6000611ff7836001600160a01b038416614357565b600082820183811015611ff7576040805162461bcd60e51b815260206004820152601b60248201527a536166654d6174683a206164646974696f6e206f766572666c6f7760281b604482015290519081900360640190fd5b8151602092830120815191830191909120604080517f36c25de3e541d5d970f66e4210d728721220fff5c077cc6cd008b3a0c62adab7818601528082019390935260608301919091523060808301524660a0808401919091528151808403909101815260c09092019052805191012090565b6001600160a01b0382166000908152600b6020908152604080832084845290915281205460ff166002811115613f4757fe5b146118ec5760405162461bcd60e51b81526004018080602001828103825260318152602001806147766031913960400191505060405180910390fd5b814211613fc15760405162461bcd60e51b815260040180806020018281038252602e815260200180614a5a602e913960400191505060405180910390fd5b804210613fff5760405162461bcd60e51b815260040180806020018281038252602881526020018061480d6028913960400191505060405180910390fd5b61247a8484613f15565b6001600160a01b0382166000818152600b60209081526040808320858452909152808220805460ff19166001179055518392917f98de503528ee59b575ef0c0a2576a82497bfc029a5685b209e9ec333479b10a591a35050565b815460009082106140a55760405162461bcd60e51b81526004018080602001828103825260228152602001806146586022913960400191505060405180910390fd5b8260000182815481106140b457fe5b9060005260206000200154905092915050565b60009081526001919091016020526040902054151590565b6060614134826040518060400160405280602081526020017f5361666545524332303a206c6f772d6c6576656c2063616c6c206661696c6564815250856001600160a01b031661441d9092919063ffffffff16565b805190915015612fea5780806020019051602081101561415357600080fd5b5051612fea5760405162461bcd60e51b815260040180806020018281038252602a815260200180614af2602a913960400191505060405180910390fd5b5490565b60006fa2a8918ca85bafe22016d0b997e4df60600160ff1b038211156141eb5760405162461bcd60e51b8152600401808060200182810382526026815260200180614aac6026913960400191505060405180910390fd5b8360ff16601b1415801561420357508360ff16601c14155b1561423f5760405162461bcd60e51b815260040180806020018281038252602681526020018061470e6026913960400191505060405180910390fd5b600060018686868660405160008152602001604052604051808581526020018460ff1681526020018381526020018281526020019450505050506020604051602081039080840390855afa15801561429b573d6000803e3d6000fd5b5050604051601f1901519150506001600160a01b038116614302576040805162461bcd60e51b815260206004820152601c60248201527b45435265636f7665723a20696e76616c6964207369676e617475726560201b604482015290519081900360640190fd5b90505b949350505050565b600061431983836140c7565b61434f57508154600181810184556000848152602080822090930184905584548482528286019093526040902091909155611ffa565b506000611ffa565b60008181526001830160205260408120548015614413578354600019808301919081019060009087908390811061438a57fe5b90600052602060002001549050808760000184815481106143a757fe5b6000918252602080832090910192909255828152600189810190925260409020908401905586548790806143d757fe5b60019003818190600052602060002001600090559055866001016000878152602001908152602001600020600090556001945050505050611ffa565b6000915050611ffa565b60606143058484600085606061443285614594565b614483576040805162461bcd60e51b815260206004820152601d60248201527f416464726573733a2063616c6c20746f206e6f6e2d636f6e7472616374000000604482015290519081900360640190fd5b60006060866001600160a01b031685876040518082805190602001908083835b602083106144c25780518252601f1990920191602091820191016144a3565b6001836020036101000a03801982511681845116808217855250505050505090500191505060006040518083038185875af1925050503d8060008114614524576040519150601f19603f3d011682016040523d82523d6000602084013e614529565b606091505b5091509150811561453d5791506143059050565b80511561454d5780518082602001fd5b60405162461bcd60e51b8152602060048201818152865160248401528651879391928392604401919085019080838360008315613d9c578181015183820152602001613d84565b3b151590565b60405180606001604052806000815260200160006001600160a01b03168152602001606081525090565b828054600181600116156101000203166002900490600052602060002090601f016020900481019282601f1061460557805160ff1916838001178555614632565b82800160010185558215614632579182015b82811115614632578251825591602001919060010190614617565b5061463e929150614642565b5090565b5b8082111561463e576000815560010161464356fe456e756d657261626c655365743a20696e646578206f7574206f6620626f756e647345524332303a207472616e7366657220746f20746865207a65726f2061646472657373cf6f9f892731e14b8859835f2ff35575f447fb501f46243c4eb8bac19e31a050416363657373436f6e74726f6c3a2073656e646572206d75737420626520616e2061646d696e20746f206772616e7445524332303a206275726e20616d6f756e7420657863656564732062616c616e636545435265636f7665723a20696e76616c6964207369676e6174757265202776272076616c75657c7c6cdb67a18743f49ec6fa9b35f50d52ed05cbed4cc592e13b44501c1a226745524332303a20617070726f766520746f20746865207a65726f20616464726573734761734162737472616374696f6e3a20617574686f72697a6174696f6e2069732075736564206f722063616e63656c656445524332303a207472616e7366657220616d6f756e7420657863656564732062616c616e6365808c10407a796f3ef2c7ea38c0638ea9d2b8a1c63e3ca9e1f56ce84ae59df73c158b0a9edf7a828aad02f63cd515c68ef2f50ba807396f6d12842833a15974294761734162737472616374696f6e3a20617574686f72697a6174696f6e2069732065787069726564416363657373436f6e74726f6c3a2073656e646572206d75737420626520616e2061646d696e20746f207265766f6b654e61746976654d6574615472616e73616374696f6e3a20494e56414c49445f5349474e4552b70559e94cbda91958ebec07f9b65b3b490097c8d25c8dacd71105df1015b6d8424222bb050a1f7f14017232a5671f2680a2d3420f504bd565cf03035c53198a8f4f2da22e8ac8f11e15f9fc141cddbb5deea8800186560abb6e68c5496619a94761734162737472616374696f6e3a20696e76616c6964207369676e617475726523d10def3caacba2e4042e0c75d44a42d2558aabcf5ce951d0642a8032e1e65345524332303a207472616e7366657220616d6f756e74206578636565647320616c6c6f77616e636565d7a28e3265b37a6474929f336521b332c1681b933f6cb9f3376673440d862a5369676e657220616e64207369676e617475726520646f206e6f74206d6174636898db8a220cd0f09badce9f22d0ba7e93edb3d404448cc3560d391ab096ad16e9ddf252ad1be2c89b69c2b068fc378daa952ba7f163c4a11628f55a4df523b3ef45524332303a206275726e2066726f6d20746865207a65726f20616464726573736e71edae12b1b97f4d1f60370fef10105fa2faae0126114a169c64845d6126c945524332303a207472616e736665722066726f6d20746865207a65726f20616464726573735061757361626c653a20706175736564000000000000000000000000000000004761734162737472616374696f6e3a20617574686f72697a6174696f6e206973206e6f74207965742076616c696445524332303a20617070726f76652066726f6d20746865207a65726f206164647265737345435265636f7665723a20696e76616c6964207369676e6174757265202773272076616c75656c8f8f5f82f0c140edd12e80d10ff715a36d6e5f73e406394862b5f1eb44c4f95361666545524332303a204552433230206f7065726174696f6e20646964206e6f742073756363656564426c61636b6c69737461626c653a206163636f756e7420697320626c61636b6c697374656445524332303a2064656372656173656420616c6c6f77616e63652062656c6f77207a65726f416363657373436f6e74726f6c3a2063616e206f6e6c792072656e6f756e636520726f6c657320666f722073656c66a164736f6c634300060c000a",
  "linkReferences": {},
  "deployedLinkReferences": {}
}